:020000040000FA
:06000000020EE102049271
:030013000204B52F
:03002B00020D08BB
:03003300020AB707
:03003B0002050AB1
:030053000203C3E2
:03006B00020A91F5
:100083000204270101FF01010503010F10FEFF0F09
:10009300180F180F180F18C516BF160F18EC2C00E1
:1000A3000000008A2C000000000C0000000C00017E
:1000B300008041545F41465F67726F7570000000B6
:1000C3000000CB0401FF000000000000000000005E
:1000D30000001F1A000000000000000000000000E4
:1000E3000000000000000000000000003D1A431A59
:1000F30000004F1A00000000000000000000000094
:10010300000000000000000000000A4C41423030B3
:10011300372020202001FFFFFFFF060401FF00001E
:10012300051495000000671A6D1A0000791A000083
:1001330000000000000000000000000000000000BC
:1001430000000000911A971A00009D1A0000000099
:10015300000000000000000000000000000000009C
:100163000000BB1AC11A0000C71A000000000000FB
:10017300000000000000000000000000000000007C
:100183000A4C41423030372020202001FF07040170
:10019300FF000003579801AD990A4C4142303037B4
:1001A3002020202001FF050401FF00000303980124
:1001B300A5990A4C41423030372020202001010408
:1001C30001FF0000036398000000E51AEB1A00002A
:1001D300F71A00000000000000000000000000000B
:1001E3000000000000000000FD1A0B49206C6F7630
:1001F300652055203A29010080040401FF00000511
:100203003C950000000C8DFFFF010100EB05000091
:10021300006106E80364006400B8010202000800FC
:1002230000050207051E02051E020A0A03B80B0297
:10023300803E01021520011496511800020206FFA8
:1002430000120F00604F120F2D6012E7548066F604
:10025300120D8F7011120F6C703B090909F4F61817
:10026300F618F618F622120DA47015120F76080868
:100273000860EAE6447FF618768018E4F618F6225A
:10028300120F766016120F6C7012E4F608F608F679
:1002930008E65480F609090918181822EAC0E0EBA9
:1002A300C0E0ECC0E0EDC0E0E687F0A4FBACF008F2
:1002B300E687F0A42CFCE435F0FA1809E687F0A4ED
:1002C3002C4B60027401CA35F0FCE433FB09E6876A
:1002D300F0D2F7A42CCB35F0FC1908E687F0A42B59
:1002E300CC35F0FBE433FD0819E687F0D2E7A42C04
:1002F3004ACB35F0CD3400FC09E687F0D2E7A42DD4
:10030300CC35F0FDE433FA0918E687F0D2F7A42CD4
:10031300CD35F0CA3400FC08E687F0D2E7D2F7A463
:100323002ACC35F07A7E20E70B0ACB33CBCD33CD05
:10033300CC33CC33CB3350147004ED30E00ED2F118
:10034300E4CD3DCDCC3CCC3B5005DA05C2F1EB54BA
:100353007FC63308E63392F0FBE73309E733C39AEA
:10036300502D2B70190C0D4C4D70151806E608C353
:1003730033700D20F10AA2F013F6E418800B402429
:10038300E4F630F002768018F618F618F68024D3D7
:100393003B14501074FFA2F013F6187680E418F69D
:1003A30018F6800FA2F013F618E63303F618ECF6EE
:1003B30018EDF6D0E0FDD0E0FCD0E0FBD0E0FA226F
:1003C300C0E074F2120859A2AFE433FED2AFE5A73E
:1003D300FFE5A1F5085F5410600612248775A1EFAD
:1003E300E5085F5408600812248D75A1F7802BEF90
:1003F300A2E0C0D0E508A2E092F0120E421581827D
:10040300F05017906198E0F8900838E0C398A2D2B2
:1004130065D0335002E8F075A1FEEEA2E092AF7F03
:1004230001020910C0E074F2120859A2AFE433FECE
:10043300D2AF9061A4E0F8759B00E5915854086031
:10044300087591F71224D5802AE591585410600855
:100453007591EF1224DB801BE8A2E0C0D0E591A2E6
:10046300E092F0120E42158182F05007E0C2E0F0F4
:1004730012261F9061A3E0F8E5E9585404600E12B8
:1004830025F575E9FB906193E0A2E640F2808BC00D
:10049300E074F2120859A2AFE433FED2AF9061A523
:1004A300E0F8E5BF585404600675BFFB1226370217
:1004B300041DC0E0C0D0E8C0E0E9C0E0C082C08352
:1004C300E5C1C0E09007A4E0F8742328F58274071F
:1004D3003400F583D0E0F09007A3E0F8A3E0687060
:1004E30006E5959007A6F09007A4E004F0C3948076
:1004F3004002E4F0A374C6F0D083D082D0E0F9D0F8
:10050300E0F8D0D0D0E032C0E0C0D0E8C0E0C0080E
:10051300C009C082C083900827E0F8A3E068700890
:10052300539AFBA374018026C2E9900827E0F508DB
:1005330074012508F074A72508F58274073400F5C3
:1005430083E0F5C1900827E0C394804002E4F0D033
:1005530083D082D009D00880A6C3E498F8E499F93F
:1005630012059D8026C3E49AFAE49BFBE920E7E9A0
:1005730012059DE498F8E499F922C3E498F8E49904
:10058300F912059DE498F8E499F9C3E49AFAE49B17
:10059300FB22EB20E7CFE920E7E0B90010BB00081E
:1005A300E88AF084F8AAF022E4FBC8FA22EB70226E
:1005B3007B10C833C8C933C9335007C39AC3DBF2AE
:1005C30080069A50012ADBEAC833F4C8C933F4C958
:1005D300FA2275F008E4C833C8C933C933C99AC9C4
:1005E3009B5004C92AC93BD5F0ECFBC833F4C8E4DB
:1005F300C9FA2212063620F01430E72B74FFFCFBF5
:10060300FA747F8022E4FCFBFA7480801AB48008B9
:10061300BC00F2BB00EF800F50EBF9E4C39AFAE49D
:100623009BFBE49CFCE499C6CC18C6CB18C6CA183D
:10063300C6F922E4C9C608CAC608CBC6D333030821
:10064300CCC63392F0C3947F402E94184019C9B995
:100653000704CACBCC225025C309CA33CACB33CB38
:10066300CC33CC33D9F422F4600DC9CCC313CB13F0
:10067300CBCA13CAD9F6CC22E4FCFBFA2214FCFB46
:10068300FA22080808EAC0E0EBC0E086F0E7A4FA23
:10069300180986F0E7A42AFA180986F0E7A42AFACB
:1006A300180986F0E7A42AFA1986F0E7A4FBE5F017
:1006B3002AFA190886F0E7A42BFBE5F03AFA1908A1
:1006C30086F0E7A42BFBE5F03AFA18180986F0E761
:1006D300A4C5F02BFBE43AFA1908E7C5F0C6A42633
:1006E300F6E5F03BFBE43AFA1886F0E7A4F6E5F00A
:1006F3000826F6E43B08F6E43A08F6D0E0FBD0E03F
:10070300FA22080808E630E711120DCE12071D0879
:100713000808C64480C618181822181818E9799EC4
:10072300C608CAC608CBC608CCC6C370207996CA09
:10073300CBCC7019798ECBCC70137986CC700EF933
:10074300802ACA33CACB33CBCC33CC331930E7F24C
:10075300CCCBCA3350147004EA30E00DE4CA3ACA71
:10076300CB3BCBCC3CCC500209C3E913C6CC1823FA
:1007730013C6CB18C6CA18C6F922E4CFC0E0E4CE2C
:10078300C0E0E4CDC0E0E4CCC0E075F020C3E633C4
:10079300F608E633F608E633F608E633F6181818D3
:1007A300EC33FCED33FDEE33FEEF33FFC3EC97097F
:1007B300ED9709EE9709EF97191919400FFFEC9779
:1007C300FC09ED97FD09EE97FE191906D5F0BEEC6D
:1007D300F709EDF709EEF709EFF7191919D0E0FC5E
:1007E300D0E0FDD0E0FED0E0FF222518C582C0E0B6
:1007F300E51934FFC583C0E0E518C3958224F810DA
:10080300AF08858319858218800885831985821826
:10081300D2AFCEF0A3E520F0A37808E608F0A3DE7C
:10082300FAEFF0A3E58124FAF8E608F0A3E608F06E
:10083300A3E608F0A30808E608F0A3E608F0A3156A
:10084300811581D0E0FED0E0F8158115811581E88E
:10085300C0E0EEC0E022C0D02518C582C0E0E51993
:1008630034FFC583C0E0E518C3958224F310AF08B5
:100873008583198582188008858319858218D2AFEC
:10088300C8F0A3E9F0A3EAF0A3EBF0A37908E70922
:10089300F0A3D8FAECF0A3EDF0A3EEF0A3EFF0A3EE
:1008A300D0E0F0A3D0E0F0A3D0E0F0A3E520F0A3E4
:1008B300E5F0F0A322120F61B900030208FAE490F5
:1008C30003017811790C8002F0A3D8FCD9FA900EB9
:1008D30011AA82AB8390008678BE79028015E493D7
:1008E300A3AC82AD838A828B83F0A3AA82AB838C71
:1008F300828D83D8E9D9E77582FE7583BF740512AB
:100903000C6775825D75832A7400120C67851983E1
:10091300851882E0C0E0A3E0F9A3E0FAA3E0FBA31B
:100923007808E0F608A3DFFAE0FCA3E0FDA3E0FE0D
:10093300A3E0FFA3E0C0E0A3E0C0E0A3E0F5D0A301
:10094300E0F520A3E0A3F5F010AF088583198582B5
:10095300188008858319858218D2AFD082D083D0BE
:10096300E0F8D0E03275F0108E1A8F1B85821F8558
:10097300831E851882851983E0CEA3E0CF851F826D
:10098300851E83EBC9EAC8EDCBECCAC3E833C8E9DB
:1009930033C9EA33CAEB33CBC3EA9EF51DEB9FF5AC
:1009A3001CB35004AB1CAA1DEC33CCED33CDD5F0F6
:1009B300DAAE1AAF1B22D083D082ECC0E0EDC0E0E8
:1009C300E493A3FCE493A3FDED4C600D120AD5EC74
:1009D30024FFFCED34FFFD80EFE493A3FCE493A339
:1009E300FDED4C600D120B72EC24FFFCED34FFFDAA
:1009F30080EFD0E0FDD0E0FCE493A3C0E0E493C03B
:100A0300E022D083D082E9C0E0E493A3C386F0C59B
:100A1300F095F0F908E493A386F0C5F095F0700B18
:100A2300E493A3C3994005E9048002A3E475F002AB
:100A3300A42582F582E5F03583F583D0E0F9E493CC
:100A4300A3C0E0E493C0E022851983851882E0A364
:100A5300FEE0A3F5207808E0A3F608DFFAE0A3FFA1
:100A6300E0A3C0E0E0A3C0E0E0A3C0E0E0A3C0E0F7
:100A7300E0A3C0E010AF088582188583198008853C
:100A83008218858319D2AFD083D082020C6DC0E067
:100A930074F2120859A2AFE433FED2AFE589A2E1A2
:100AA3005003122397758900C2C5EEA2E092AF7F6F
:100AB30001020910C0E074F2120859A2AFE433FE38
:100AC300D2AFE58BA2E05003122397758B00C2E8E7
:100AD30080D8C0E0C3E49396087401939618400F3E
:100AE300E49366700808740193661870007019A384
:100AF300A3C3E49396087401939618A3A3400DD05F
:100B0300E0D0E0D0E00209F5A3A3A3A3A3A3D0E020
:100B1300227404800474028000CCC0E0EDC0E0E5E0
:100B230018C39CCCAD1950011D10AF068C188D193C
:100B330080068C188D19D2AF120BE9D0E0FDD0E0FE
:100B4300FC2274028000CCC0E0EDC0E0E518C39C39
:100B5300CCAD1950011D10AF068C188D1980068C71
:100B6300188D19D2AF120BC7D0E0FDD0E0FC22C024
:100B7300E0C0F088F0E49366700808740193661887
:100B83007000A8F0A3A3700BD0F0D0E0D0E0D0E0C9
:100B93000209F5A3A3D0F0D0E022D083D082CCC049
:100BA300E0E493A36006120C0A1470FAE493A360C2
:100BB30006120D4F1470FAD0E0FCE493A3C0E0E4F6
:100BC30093C0E022CAC0E0E493A3C582CCC582C52A
:100BD30083CDC583F0A3C582CCC582C583CDC58330
:100BE300DAE5D0E0CA22CAC0E0E0A3C582CCC58260
:100BF300C583CDC583F0A3C582CCC582C583CDC5CE
:100C030083DAE6D0E0CA22C0E0E493A3D39C501079
:100C1300E493A3C39C400AD0E0D0E0D0E0020BBA37
:100C2300A3A3A3D0E022C008C3E096F50808A3E07D
:100C330096420808A3E096420808A3E09645087088
:100C430001D3D00822700908080822601618181862
:100C5300C6C333C608C633C608C633C608C633C6BA
:100C6300D5E0EA22C09FF59FE473D09F22D083D0C2
:100C730082C09FE493C0E0740193C0E0740293F5D3
:100C83009F227404800A7403800674028002740134
:100C9300C0E0F404120CA0D0E0120F3C222518F59A
:100CA3008210AF08F518400215198008F5184002A4
:100CB3001519D2AF85198322BB0102E722C082C076
:100CC3008389828A83BB0003E08002E493D083D0CC
:100CD3008222C0D0251810AF08F5185002051980DC
:100CE30008F51850020519D2AFD0D02260160808B3
:100CF30008C6C313C618C613C618C613C618C61328
:100D0300C6D5E0EA22C0E0C0D0E8C0E0E5A8D2AF93
:100D1300C2C7A2E792AFD0E0F8D0D0D0E032C3E0B0
:100D2300C696F608A3E0C696F608A3E0C696F608AC
:100D3300A3E0C696F622251810AF08F51840021551
:100D4300198008F51840021519D2AF22C0E0E493C8
:100D5300A36C7009D0E0D0E0D0E0020BBAA3A3D01B
:100D6300E022C3E09608A3E09608A3E09608A3E078
:100D730096A2D265D03322E066701008A3E06670B5
:100D83000A08A3E066700408A3E06622181818E6B0
:100D9300084608700AE608C3337005E633F42208F0
:100DA30022191919E7094709700AE709C3337005BE
:100DB300E733F4220922E76670100809E766700A30
:100DC3000809E76670040809E76622181818E4C3DF
:100DD30096F608E496F608E496F608E496F622C337
:100DE300E096F008A3E096F008A3E096F008A3E0ED
:100DF30096F022E647F60809E647F60809E647F6BD
:100E03000809E647F622E026F008A3E036F008A337
:100E1300E036F008A3E036F022E056F608A3E056E9
:100E2300F608A3E056F608A3E056F622E657F608BE
:100E330009E657F60809E657F60809E657F622C009
:100E4300E0E8C0E0E58124FCF8E6A2E7D0E0F8D0D2
:100E5300E022E056F008A3E056F008A3E056F008BD
:100E6300A3E056F022700422600D18C6C333C608EF
:100E7300C633C6D5E0F41822E627F60809E637F6A6
:100E83000809E637F60809E637F622E026F608A34E
:100E9300E036F608A3E036F608A3E036F622C3E010
:100EA3009608A3E09608A3E09608A3E09622C6F46A
:100EB300C608C6F4C608C6F4C608C6F4C622600D42
:100EC30008C6A2E713C618C613C6D5E0F322C3E7C4
:100ED300960809E7960809E7960809E7962275D068
:100EE30000758140751801751903000208B8E6F012
:100EF30008A3E6F008A3E6F008A3E6F022E6084616
:100F030008C3134608336002E633F422600C08C6B4
:100F1300C313C618C613C6D5E0F422E0F608A3E04F
:100F2300F608A3E0F608A3E0F622E7094709C3138E
:100F33004709336002E733F422CAC0E0E6F0A308AE
:100F4300DAFAD0E0FA22EAF0A3EBF0A3ECF0A3ED97
:100F5300F022E0FAA3E0FBA3E0FCA3E0FD22E5C757
:100F630054F84401F5C7790122E7C33319471947F8
:100F7300194722E6C333184618461846222518F5A2
:100F830082E43519F58322C2AF75D69F0200002291
:100F9300120C70CC3000120C70F23000120C702C5A
:100FA3003100120C703E3100120C70903100120CA3
:100FB30070F13100120C707B3200120C701F330081
:100FC300120C70673300120C70A13300120C70BE48
:100FD3003300120C70E33300120C70353400120C22
:100FE300704E3400120C70743400120C70AF340065
:100FF300120C70F33400120C701A3500120C706B63
:101003003500120C701B3600120C70D33600120C14
:10101300709B3700120C705B3800120C709F380005
:10102300120C70C43800120C70073900120C705483
:101033003900120C70AC3A00120C70323B00120CE7
:1010430070503B00120C707A3B00120C70943B0002
:10105300120C70A33B00120C70AE3B00120C706EAE
:101063003C00120C70C73C00120C70893D00120C3E
:1010730070913D00120C70153E00120C705B3E0027
:10108300120C709C3E00120C702C4000120C70E489
:101093004000120C70504100120C707B4200120C85
:1010A300708C4200120C70024300120C70944300C7
:1010B300120C70EC4300120C70AC4400120C70D391
:1010C3004400120C70F14400120C70034500120C22
:1010D30070564500120C70934500120C70A0450029
:1010E300120C70234700120C70784800120C709198
:1010F3004800120C70CD4900120C705E4A00120CAD
:10110300706C4B00120C70A54B00120C70F14B006D
:10111300120C700D4D00120C70564F00120C7061C2
:101123004F00120C706C4F00120C70764F00120CB3
:1011330070814F00120C709B4F00120C70A54F0072
:10114300120C70AF4F00120C70BA4F00120C70E209
:101153004F00120C703D5000120C70615000120CC5
:1011630070855000120C70E35000120C7027510070
:10117300120C70435100120C70BA5100120C70F231
:101183005100120C703E5200120C709B5200120C54
:1011930070555300120C70395500120C70925500A3
:1011A300120C70C25600120C70E85600120C7071CB
:1011B3005800120C70ED5B00120C70BF5D00120C36
:1011C30070885F00120C70356000120C70A0610013
:1011D300120C703F6200120C708C6200120C70F6DD
:1011E3006200120C70056300120C708C6500120C07
:1011F300703E6700120C70AB6700120C708A6800B7
:10120300120C70A36900120C70206B00120C703F5B
:101213006B00120C70946B00120C70996C00120C22
:1012230070C16C00120C70196D00120C70F86D0017
:10123300120C703C6E00120C70876E00120C70F270
:101243006E00120C70337000120C70977000120C49
:1012530070E57100120C70457400120C7076740006
:10126300120C702E7600120C70837600120C7087AD
:101273007700120C70247800120C707D7800120C29
:1012830070307900120C70D27900120C70727A00EF
:10129300120C70177B00120C70B99901120C70F8C4
:1012A3009901120C703F9C01120C70899C01120C65
:1012B30070A49D01120C70149E01120C70499E01C2
:1012C300120C70BD9F01120C7040A201120C7069C8
:1012D300A301120C70FFA301120C7007AD01120CD5
:1012E300709CAD01120C7083B001120C7076B101C9
:1012F300120C70D7B101120C70F3B201120C70D83A
:10130300B401120C70E9B601120C7053B701120C40
:101313007025B801120C70DCB801120C70E6B8012C
:10132300120C7014B901120C70D1B901120C70A80F
:10133300BA01120C706FBB01120C7021BC01120CAC
:10134300704ABC01120C706CBC01120C70C2BE015D
:10135300120C709ABF01120C70DEBF01120C7046A2
:10136300C001120C70FEC001120C7030C101120CCE
:101373007074C101120C70AAC101120C70F6C10184
:10138300120C704BC201120C7050C201120C70A3EC
:10139300C201120C70C8C201120C70D7C301120C27
:1013A300703BC401120C70ABC401120C7037C50141
:1013B300120C7004C801120C70E8C801120C706B97
:1013C300CA01120C70A1CC01120C704FCD01120C8A
:1013D30070FFCD01120C7040D001120C70E3D001EC
:1013E300120C702AD101120C70D6D201120C70EAC1
:1013F300D201120C70F4D201120C701CD301120C26
:101403007028D301120C7047D301120C702CD50134
:10141300120C7063D501120C706DD501120C70772C
:10142300D501120C70D2D501120C701CD601120C0E
:101433007024D701120C707BD701120C70CAD8012B
:10144300120C700ED901120C70B6D901120C7099DE
:10145300DA01120C7044DB01120C7090DC01120CE7
:10146300708EDD01120C7034DE01120C70C4DE01CB
:10147300120C70DBDE01120C7012DF01120C701CF7
:10148300DF01120C7026DF01120C7031DF01120C28
:10149300704FDF01120C7093DF01120C70F0DF014B
:1014A300120C7015E001120C702FE001120C70BBCE
:1014B300E001120C70D8E101120C7045E201120C2C
:1014C300702CE301120C7053E301120C70C7E3019B
:1014D300120C7042E401120C7046E501120C703CD0
:1014E300E601120C70EBE601120C70FEE701120C20
:1014F300709AE801120C7027E901120C7005EA01D9
:10150300120C703DEA01120C7095EA01120C705E28
:10151300EB01120C707FEB01120C7006EC01120C44
:10152300702AEC01120C704CEC01120C7095EC015A
:10153300120C70ABEE01120C7092EF01120C70439F
:10154300F001120C7079F201120C70C9F201120C45
:101553007009F301120C704BF301120C70A7F30125
:10156300120C70D5F301120C70F9F301120C704CCC
:10157300F401120C707AF401120C70B3F401120C22
:101583007008F501120C706EF501120C70C2F601B1
:10159300120C70E5F801120C7052F901120C707BF9
:1015A300F901120C7006FA01120C706DFA01120C9B
:1015B30070B8FA01120C70DCFA01120C7000FB0116
:1015C300120C705BFB01120C7076FB01120C702F76
:1015D300FC01120C7017DB05120C7056DB05120CA4
:1015E3007082C402120C70C8C402120C70A8C50227
:1015F300120C70AAC602120C70ADC702120C70391D
:10160300C902120C7097C902120C7054CA02120C50
:101613007072CB02120C70E3CB02120C701FCC025F
:10162300120C706DCC02120C7077CC02120C70BBD2
:10163300CC02120C7017CD02120C70B2CD02120C38
:10164300702FCE02120C70FECE02120C7097CF02D6
:10165300120C70B7CF02120C70EDCF02120C701E79
:10166300D002120C70DFD002120C70EFD002120CF9
:101673007043D102120C705ED102120C7070D10251
:10168300120C7079D102120C70D3D102120C702F8C
:10169300D202120C707BD202120C7096D202120C80
:1016A30070C7D202120C70E4D202120C70F0D20294
:1016B300120C7064D402120C707DD402120C70E40C
:1016C300D402120C70F7D402120C7005D502120C5E
:1016D30070B9D502120C709DD602120C70A3D702FA
:1016E300120C702DD802120C7037D802120C70A491
:1016F300D802120C70BBD802120C70EDD802120C77
:101703007026D902120C7050D902120C70B1D90292
:10171300120C70D1D902120C70EFD902120C703571
:10172300DA02120C705BDB02120C70A8DB02120CE3
:1017330070D7DB02120C704DDC02120C7075DC02E8
:10174300120C70AEDC02120C70BCDC02120C7014B2
:10175300DD02120C7063DD02120C70A2DD02120CAA
:1017630070D2DD02120C70FEDD02120C7009DE0273
:10177300120C7027DE02120C70E9DE02120C70F3F9
:10178300DE02120C702EDF02120C7044DF02120C08
:101793007099DF02120C70ADDF02120C70BBE00215
:1017A300120C70CEE002120C70E3E002120C708592
:1017B300E102120C7008E202120C70C6E202120C73
:1017C30070D1E202120C70FDE302120C7019E402F4
:1017D300120C706BE402120C70AAE402120C70BFBC
:1017E300E402120C7021E502120C70B0E502120C37
:1017F30070FBE502120C704CE802120C70CAE8028E
:10180300120C703FE902120C7061EB02120C70793A
:10181300EB02120C707CEB02120C7088EB02120CC0
:10182300709CEB02120C70A4EB02120C70D7EB024B
:10183300120C7087EC02120C70FDEC02120C70702B
:10184300ED02120C7024EE02120C70D9EE02120C8F
:1018530070F8EE02120C7098EF02120C70A4EF02F3
:10186300120C70CFEF02120C70D2EF02120C703C0C
:10187300F002120C7064F102120C703CF202120CB2
:1018830070C7F202120C70E0F302120C709DF402A6
:10189300120C70D6F402120C7007F502120C70C50C
:1018A300F502120C70F5F502120C70D0F602120C50
:1018B3007069F702120C70F4F702120C70A5F802AB
:1018C300120C7028F902120C705AF902120C709B58
:1018D300F902120C70DCE604120C7041E704120CDE
:1018E300707EE704120C70CDE704120C70E3E90478
:1018F300120C70C6EB04120C7030EF04120C706BF8
:10190300EF04120C708DEF04120C70F0EF04120C44
:101913007024F004120C7047F004120C7074F0047D
:10192300120C70D0F004120C70F1CC04120C701F66
:10193300CD04120C7066CD04120C70E1CD04120CB0
:1019430070E5CE04120C70E5CF04120C70FFCF04C7
:10195300120C70ECD004120C7009D204120C702E0D
:10196300D204120C7046D204120C7056D404120C1A
:101973007013D504120C7027D504120C7045D704CC
:10198300120C70B1D804120C70C5D804120C709EDE
:10199300D904120C70A2FA03120C70F2FA03120C9F
:1019A30070C6FB03120C703CFC03120C70AEFC03FC
:1019B300120C702AFD03120C708EFD03120C701EA4
:1019C300FE03120C7066FE03120C70D9FE03120C98
:1019D300709CFF03120C70FBCA05120C702BCB0515
:1019E300120C7080CB05120C7015FF04120C703EA4
:1019F300FF04120C7081FF04120C70448705120C53
:101A0300705F8705120C70AD8705120C709C8905F9
:101A1300120C706B8B05120C703A8C05120C70EB68
:101A23008C05120C70738D05120C70B18D05120CA0
:101A33007009C205120C703AC205120C70F1C2058E
:101A4300120C702DC305120C7049C305120C709053
:101A5300C305120C70E4C305120C706DCC05120C97
:101A630070A1CC05120C70F5CC05120C7031CD05AC
:101A7300120C704DCD05120C709BCD05120C70C766
:101A8300CD05120C7094B605120C70C8B605120C75
:101A93007006B805120C7042B805120C705EB805DA
:101AA300120C70AAB805120C70F2B805120C701F54
:101AB300B405120C7053B405120C7091B505120CD9
:101AC30070CDB505120C70E9B505120C7035B6056D
:101AD300120C707DB605120C70FBC305120C703529
:101AE300C405120C70DBC405120C7017C505120C6B
:101AF3007033C505120C707AC505120C70C8C50584
:101B0300120C70CBC505120C709EBC04120C7046EF
:101B1300BD04120C70ACBE04120C7099C004120CFC
:101B2300709FC104120C7019C204120C70D6C30446
:101B3300120C7008C404120C7065C404120C709764
:101B4300C404120C70D8C404120C704FC604120CD7
:101B530070D2C604120C70FFC604120C7005C904BF
:101B6300120C70DBC904120C708FCB04120C7012B0
:101B7300CC04120C7058CC04120C707ED005120CDD
:101B8300709CD005120C7003D105120C7040D10566
:101B9300120C7084D105120C70F89405120C70228B
:101BA3009505120C70529505120C70279605120CB0
:101BB30070999705120C70249A05120C70539A05AC
:101BC300120C7051DC05120C7059DC05120C705BA1
:101BD300DC05120C7063DC05120C7068DC05120C5A
:101BE300706DDC05120C7073DC05120C7088DC055B
:101BF300120C708EDC05120C70008002120C706FD8
:101C03008002120C70BB8102120C70458202120C0E
:101C130070928202120C70E88202120C7009830225
:101C2300120C705D8302120C7039A903120C70D36D
:101C33008302120C704D8402120C70B68402120CD3
:101C430070EB8402120C701A8502120C70728502FA
:101C5300120C70378602120C70808602120C70CC44
:101C63008602120C70A78702120C70D18702120C25
:101C730070828802120C70F08802120C70178902AD
:101C8300120C70BB8A02120C704C8B02120C70C3C4
:101C93008C02120C70973000120C70458E02120CDD
:101CA30070798E02120C70BC8E02120C700E9002B0
:101CB300120C70CA9002120C70ED9102120C70712A
:101CC3009202120C70559802120C70B89802120C02
:101CD300703B9902120C70E09902120C705D9A022B
:101CE300120C70F59A02120C70329C02120C70B333
:101CF3009C02120C70179D02120C70959D02120C1F
:101D030070159E02120C70209F02120C70479F02E6
:101D1300120C7063A002120C7037A102120C70FB3C
:101D2300A102120C70C6A202120C7065A302120C5F
:101D330070AEA302120C7087A402120C70F1A402FD
:101D4300120C7005A602120C707FA602120C7051C1
:101D5300A702120C7047A802120C7008A902120CF9
:101D630070D4A902120C7094AA02120C705EAB021A
:101D7300120C700CAD02120C7058AD02120C703CB8
:101D8300AE02120C706EB102120C70B3B202120CDE
:101D9300706CB302120C704EB402120C701CB602BB
:101DA300120C70FBB702120C70FFB802120C7029F0
:101DB300B902120C702ABB02120C7013BD02120C72
:101DC3007095BE02120C7038BF02120C7047C0022D
:101DD300120C701BC102120C7016C202120C70712D
:101DE300C302120C70DFDA04120C705DDB04120CF8
:101DF3007093DB04120C70FADB04120C7037DC04F2
:101E0300120C70AADD04120C70C6DD04120C700BE8
:101E1300DE04120C7099DE04120C70F2DE04120C54
:101E2300701FE004120C7031E104120C708EE10497
:101E3300120C70FAE104120C705BE204120C709C39
:101E4300E204120C7049E304120C705BE404120CFC
:101E53007086E404120C70D1E404120C7018E504CB
:101E6300120C70AAE504120C7065E604120C702AB9
:101E73008E05120C70768E05120C70E48E05120C12
:101E830070058F05120C70B58F05120C70BE8F058F
:101E9300120C70119005120C703A9005120C70A17F
:101EA3009005120C70329105120C70749105120C8E
:101EB30070BE9105120C701D9205120C70499205AB
:101EC300120C70DA9205120C70199305120C7058EB
:101ED3009305120C708D9305120C709F9305120CD1
:101EE30070B19305120C70D09305120C70D9930541
:101EF300120C708F9405120C70CF9405120C706C39
:101F03007F00120C702FD705120C70CCBD05120C7C
:101F13007002BE05120C704BBE05120C709BBF0500
:101F2300120C706E9604120C70AD9704120C70E9CB
:101F33009704120C70A89904120C70D19904120C16
:101F430070649C04120C70A89C04120C70319E04E3
:101F5300120C70C99E04120C70319F04120C70D2C3
:101F63009F04120C7014A004120C7054A004120CE1
:101F730070DFA104120C704FA304120C7074A5043B
:101F8300120C70A2A504120C70C9A504120C70D215
:101F9300A504120C702DA604120C70C0A604120C1A
:101FA30070DEA904120C705FAA04120C70D7FF0232
:101FB300120C70EDFF02120C7085AB05120C7098B9
:101FC300AB05120C7035AC05120C7070AC05120C1D
:101FD300708BAC05120C70B0AC05120C70F5AC052F
:101FE300120C7026AD05120C7057AD05120C70DD86
:101FF300AE05120C70CDD805120C7003D905120C66
:10200300701FD905120C7061D905120C7071D905B6
:10201300120C707BD905120C70BCAA04120C70113F
:10202300AB04120C700AAC04120C70DAAC04120C80
:1020330070EFAC04120C7039AD04120C709BAD043C
:10204300120C70AEAD04120C70EFAD04120C7003E1
:10205300AE04120C70E5AF04120C7060B004120CE5
:10206300708AB004120C703AB204120C7049B204B4
:10207300120C7098B204120C70AEB204120C70C53C
:10208300B204120C70F4B204120C700DB304120CEF
:1020930070A6B304120C7000B404120C705BB40489
:1020A300120C706EB504120C70DFB704120C7014AE
:1020B300B804120C70A5B804120C7009B904120C00
:1020C3007015B904120C7051B904120C70B3B90431
:1020D300120C70AEBA04120C70D3BA04120C70DD79
:1020E300BA04120C70ECBA04120C705BBB04120C31
:1020F3007076BB04120C7098BB04120C70C4BB0442
:10210300120C70FFBB04120C700EBC04120C704A4C
:10211300BC04120C705DBC04120C70C9DA05120CFD
:1021230070E1DA05120C70008005120C704F800507
:10213300120C70F18105120C70AD8305120C70F551
:102143008305120C70DD8405120C700E8605120CCB
:1021530070308605120C708C8605120C7010870582
:10216300120C70F1DA03120C701CDB03120C70FFFB
:10217300DB03120C7084DC03120C70EDDC03120C15
:102183007039DD03120C70BADD03120C704CDE03E0
:10219300120C70D4DE03120C7016DF03120C705F86
:1021A300E303120C70E3E403120C7022E503120C38
:1021B300702EE803120C70B9E803120C7065EA0381
:1021C300120C70A7EB03120C70E5EC03120C70C336
:1021D300ED03120C70EAED03120C708FF003120C76
:1021E300701CF103120C7008F203120C7033F3032A
:1021F300120C70E6F303120C7007F403120C709BBD
:10220300F403120C70F6F403120C70F4F503120CC1
:1022130070D1F603120C704AF803120C7082F903A2
:10222300120C700AFA03120C70008004120C70BABC
:102233008004120C702C8104120C703B8104120C6C
:1022430070B58104120C70248204120C702B830469
:10225300120C705C8304120C70D38304120C708C08
:102263008604120C70638704120C70D08704120C5E
:10227300704D8904120C70178A04120C70828A0440
:10228300120C70828B04120C706A8C04120C70DBBB
:102293008C04120C701E8D04120C707C8E04120CB4
:1022A30070499004120C705C9104120C70A8920493
:1022B300120C70BB9304120C70549404120C701A19
:1022C3009504120C70E9F902120C703DFA02120C1B
:1022D3007089FA02120C70D4FA02120C7014FB0209
:1022E300120C7064FB02120C7007FD02120C707961
:1022F300FD02120C7091FD02120C70B8FD02120C5B
:102303007023FE02120C7026FF02120C70E2C50548
:10231300120C7013C605120C70CDC605120C703367
:10232300C705120C707DC005120C7002D805120C83
:102333007013D805120C70B3D805120C70BCC70506
:10234300120C70CAC705120C70A3DC05120C703393
:10235300DA05120C7043DA05120C705EDA05120C02
:1023630070BFDA05120C702DD605120C70B2D605AB
:10237300120C7016D705120C7074C905120C7096E6
:10238300C905120C70FCC905120C701CCA05120C8D
:102393007062CA05120C70BDCA05120C70B2D10569
:1023A300120C70C7D105120C703BD205120C70557C
:1023B300D205120C7068D205120C7076D205120C7D
:1023C3007090D205120C70B0D205120C7069FC012A
:1023D300120C7077FC01120C70F1FC01120C70D519
:1023E300FD01120C708EFF01120C70D57F00120CD0
:1023F30070EAAE05120C7038AF05120C70D5AF053C
:10240300120C7080B005120C7098B005120C701489
:10241300B105120C702AB105120C703DB105120CF6
:10242300704BB105120C70A59A05120C70FA9A053F
:10243300120C70F69C05120C70289D05120C704A44
:102443009D05120C70639D05120C707C9D05120C8A
:1024530070869E05120C70219F05120C70E4CD0549
:10246300120C7008CE05120C7021CE05120C70549C
:10247300CE05120C7085CE05120C70B3CE05120C6E
:102483007015CF05120C7024CF05120C702ECF05DA
:10249300120C703BCF05120C708FB105120C70B586
:1024A300B105120C70F2B105120C7001B205120CD9
:1024B3007020B205120C7088B205120C7091B2052F
:1024C300120C70F0B205120C7014B305120C70D319
:1024D300B305120C70E0B305120C70F1B305120CC6
:1024E30070E8DB05120C7005DC05120C70989F0573
:1024F300120C70F6A005120C7003A105120C7016D5
:10250300A105120C7035A105120C704BA105120C1C
:10251300705FA105120C70D4A105120C7039A205CD
:10252300120C70E9A205120C70BEA305120C70CE3A
:10253300A305120C70DDA305120C709AD905120CB9
:1025430070BED905120C70E6D905120C700EDA05AF
:10255300120C7009B905120C7030B905120C7051C8
:10256300B905120C70B6B905120C706FBB05120CCD
:102573007088BB05120C7094BB05120C70A8BB05C8
:10258300120C70C6BB05120C70D0BB05120C70DAAE
:10259300BB05120C70EDBB05120C7040BC05120C90
:1025A3007079BC05120C70A8BC05120C70F6BC0542
:1025B300120C7045BD05120C7060BD05120C706ADB
:1025C300BD05120C707BBD05120C70C1BD05120C4C
:1025D30070AAFF03120C701CF104120C7046F10474
:1025E300120C7062F104120C7075F104120C708BF2
:1025F300F104120C70E8F104120C701BF204120CBB
:102603007057F604120C707DF704120C70B0F704C7
:10261300120C70FCF704120C7028F904120C7050A1
:10262300F904120C7065F904120C7075F904120C9C
:1026330070B9F904120C701AFA04120C702AFA0415
:10264300120C70E5D205120C7000D305120C702920
:10265300D305120C7043D305120C7068D305120C0A
:102663007087D305120C709FD305120C70CDD30560
:10267300120C70E7D305120C70A4DB05120C700565
:10268300A805120C700CA805120C7018A905120CE1
:102693007048A905120C706EA905120C7091A9055A
:1026A300120C70B3A905120C70EDA905120C70532E
:1026B300AA05120C708CAA05120C70D8AA05120C6C
:1026C3007005AB05120C7025AB05120C7045CF05D8
:1026D300120C705DCF05120C7078D005120C707B54
:1026E300D005120C7018D405120C708AD405120C84
:1026F30070C8D405120C7009D505120C70D6B1033D
:10270300120C70F5B103120C7063B203120C70D487
:10271300B203120C706BB303120C7087B303120C69
:10272300700DB403120C70D3B503120C709CB60376
:10273300120C7086B803120C70ABB903120C70AE96
:10274300BA03120C705BBB03120C7027BC03120C90
:102753007039BD03120C70AAC103120C7092C2032C
:10276300120C7028C303120C7057C303120C7001B0
:10277300C403120C7017C403120C703AC403120C76
:1027830070B4C403120C70CAC403120C70F5C403F2
:10279300120C7009C603120C706FC703120C700F72
:1027A300C803120C7053C803120C70C5C803120C73
:1027B300702EC903120C7090C903120C7046CA0321
:1027C300120C70BFCA03120C70FBCA03120C7067A1
:1027D300CB03120C708CCC03120C70DFCD03120CE4
:1027E3007081CE03120C70B0CE03120C70E2CE03D4
:1027F300120C7063CF03120C703CD103120C70EBFC
:10280300D203120C70E7D303120C7026D803120CF8
:1028130070FCD903120C70637B00120C70FC7B00FC
:10282300120C70737C00120C70E27C00120C700CA2
:102833007D00120C70C17D00120C7060DB05120C60
:10284300702BD505120C70C4D505120C70F7D50585
:10285300120C7016A405120C7035A405120C7084AA
:10286300A405120C70A0A405120C70D1A405120CBF
:1028730070E1A405120C70EEA405120C70FBA40504
:10288300120C70E7A505120C7025A605120C702F0B
:10289300A605120C703FA705120C704AA705120C6F
:1028A300705CA705120C7065A705120C706FA70565
:1028B300120C7090A705120C7058FA04120C709D3C
:1028C300FE04120C70ABFE04120C7024DC05120C17
:1028D3007087A803120C70F9A703120C70ECA703FE
:1028E300120C70E6A403120C7048A203120C7011B0
:1028F300A103120C7065A003120C70AB9E03120CA3
:10290300705B9C03120C70AFB103120C7091B10396
:10291300120C70E29B03120C70899B03120C704221
:10292300B003120C709FAF03120C70199B03120CAF
:1029330070F09A03120C70D09803120C709C9803D9
:10294300120C70699803120C704D9803120C706688
:102953009703120C701E9703120C70699503120CE7
:1029630070E99403120C70E69403120C70DB93036A
:10297300120C70A99303120C70E69203120C7011DF
:102983009103120C70A29003120C7052AE03120C3E
:1029930070FDAB03120C7048AB03120C7066AA03F4
:1029A300120C7031AA03120C70749003120C707124
:1029B3009003120C705E9003120C70099003120CBA
:1029C30070FDA903120C70F88F03120C70EA8E03CA
:1029D300120C70B48E03120C703A8E03120C70E159
:1029E300A903120C70808D02120C70058E03120C59
:1029F30070A68D03120C70758D03120C703D8A0343
:102A0300120C70FD8903120C70F18903120C7051C2
:102A13008903120C70918803120C70138603120C35
:102A230070A48303120C70628303120C703682034A
:102A3300120C70EB8103120C70278103120C706A65
:102A43008003120C70008003120C703A8003120C86
:102A53007081A903120C70A3830200000080FBE4C1
:102A63007300013636010100010201000103010078
:102A730001040106060502000007010034080100F5
:102A83000F090401010D0100FF0E080000170200E9
:102A930000190100FF1A0100011B0100FE1C0100C7
:102AA300081D0200001F0100012001000121020096
:102AB300002301000F24020000260100012701006A
:102AC30008280200FF2A0100072B0102402C010005
:102AD300002D0100012E0100012F0100FF30010B29
:102AE3001C310800003A0100083B01000F2F0100D0
:102AF3000000000400420115980000050042012770
:102B030098000006004201E095000007002001B78D
:102B130099000010004203980E000012001003A356
:102B23000E030000002103D104060000002001D39E
:102B330004020400002901A40E0204010029019DDE
:102B4300990204020029019B99050400002901A6AA
:102B53000E0504010029019F99050402002901A71C
:102B63009903047104020460041104700402040252
:102B730004010402041004610400041404630473D4
:102B830004720462044304000413040604000400F2
:102B93000404041204000400040004000451046447
:102BA30000000400040004440400040004000400C2
:102BB30004650400043504810464000504000483EF
:102BC3000400040302710230016002110270020169
:102BD30002020202028002100261023A0041006313
:102BE30002730272026202430200021302380000FF
:102BF30002000204021202000200020002000204A8
:102C0300020402370037003C02440200023900008C
:102C130002000265020002350281020002050282FF
:102C2300028302000201017101010101011101018D
:102C3300013101010101018001100161013B001417
:102C43000063017301720162014301000113010674
:102C5300013D0135000401120100010001000100E2
:102C63000104010401330133013C01440132013603
:102C7300000001000165010001350081010001052B
:102C830001820183010001010371030103010301B7
:102C930003010301032203020301031003000300E2
:102CA30003000300030003000300034203000324A3
:102CB3000306030003000304031203250323032570
:102CC300032303040304030003000300034403007A
:102CD300030003230300036503210035038103007D
:102CE30003050300030003000303007100300160C8
:102CF30000110070003102200350048000100061B5
:102D030000000014006300730072006200430000BF
:102D13000013000600000000000400120000000081
:102D2300000000000004000400370037003C0244A8
:102D33000000000000000000006500000035008175
:102D430000000005000000830000000000040042B2
:102D530001C7970000050042018997000006004261
:102D6300011F96000007002001B6990000100042E1
:102D7300030E0F000012001003190F0300000021BF
:102D830003D704060000002001D904070000003027
:102D930001B5990700100030011A0F000000000070
:102DA30000000000000000000000000000040042DA
:102DB3000151980000050042018B96000006004275
:102DC30001CE95000007002001AF990000100042DA
:102DD30003780F000012001003840F0200000009A3
:102DE30001850F030000002103E104060000002019
:102DF30001E304020400002901850F0204010029F4
:102E030001AB99020402002901A9990000040042C0
:102E13000169980000050042011297000006004274
:102E2300010D96000007002001B299000010004236
:102E330003270F000012001003320F0300000021CC
:102E430003DA04060000002001DC04070000003060
:102E530001B199070010003001330F00000000009A
:102E63000000000000000000000000000004004219
:102E7300010F980000050042011B98000006004264
:102E830001F295000007002001B0990000100042F4
:102E930003400F0000120010034B0F03000000213A
:102EA30003DD04060000002001DF04000000000031
:102EB30000000000000000000000003600010006D2
:102EC3000000000F000000000000000000000000F0
:102ED3000003FFFF00000403FFFF0000FFFF0FF4E8
:102EE300010005C4040320000100000B00000000E2
:102EF3000000000003010F000059221300D5210137
:102F030000592202007B210300812104008721054F
:102F1300008D21060099213000B1213100AB21320F
:102F230000BD213300C3213400C921FFFF0000C9C4
:102F330027F327CF271128D527F927D5270528DBFE
:102F4300271128D527F92700000000000000000002
:102F53000000000000000000000000E1271128E746
:102F6300270B28ED27112801E112060B130805137F
:102F73000B2313105D1202E71205F91207ED120C71
:102F8300C3120DD512FF000003EAF5E5D5D5C5B58B
:102F9300A5959585857575656555554545353525DE
:102FA300251515051F174F1725172B1749173D17FC
:102FB300371755175B1761176D1731171917131744
:102FC30000160F00000B150B020002220F32000047
:102FD300060F1821182718E9162D18E316EF166F98
:102FE300188D189318751881187B1823161D1659F8
:102FF300165F1653160B160C0E020B040B0A07086A
:10300300000F0001191618161615230300000349B3
:1030130048424D181725050200383C3E363B3B35E8
:103023002B432C303017181921301B1D1F30303023
:1030330016181920231A1C1E304317671787187395
:1030430017791763183318391845183F1802040203
:103053000101010109022F16351629166516000014
:10306300000000003B164D1600BE040A0E000400CB
:103073007F00E8030C00280000000000150003088F
:10308300100C0A03080900040001FF1E1E0C0504AE
:1030930008100F0974F61207ED74FF120D39851825
:1030A30082851983E4F08582088583097808120CE8
:1030B3008D7508017509007808120C8D1230EB74B8
:1030C30004120CD57401024B6474F61207ED8C08DC
:1030D3008D097808120C8D75080B75090078081294
:1030E3000C8D1230EB024B62123114121F9B2274AF
:1030F300F61207ED8C088D097808120C8D75080BF4
:103103007509007808120C8D123114121FA1024B9D
:1031130062EA75F00BA4FAA8F075F00BEBA428FB98
:10312300EAFCEBFD7A237B0022C082C0838A828B78
:1031330083E0D2E7F01220DF02454FC082C08379DB
:10314300001236BA126AEFC082C083900334125859
:103153006DD083D082C3E09CA3E09D500C1271C359
:10316300FAA3E012316F60010902454FFBEA75F0E3
:103173000BA4FAA8F075F00BEBA428FB900336E040
:103183002AF8A3E03B8882F583E0540F2274F712F8
:1031930007ED89081236BA123760ACF075F00BE907
:1031A300A42CF9900336E028FEA3E039FF740165EF
:1031B3000860067402650870208A828B8312374C7C
:1031C300124A5874026508701B12360B123793703B
:1031D300138E828F83E4F0800BEA2403FCEB123717
:1031E3002E12373AEEFAEFFB120F9F02488C74F45B
:1031F3001207ED127AEA79008E828F83E060768976
:103203000A890B8065E50A75F00BA4FAA8F075F03E
:103213000BE50B12317C7046E50A75F00BA4F8AA96
:10322300F075F00BE50B1237728E828F83E0850801
:1032330082850983123854850882850983A3124A3B
:1032430058EE2403FCEF12373712470D126569AAB3
:1032530008AB09120F9F7901900334125F76E50AD8
:103263002401F50AE50B3400F50B123613E50A9A2F
:10327300E50B9B4090024D0874F51207EDEAFEEB57
:10328300FF740B120F80124712750A01EC4D602B6D
:10329300EC127B06ED126AEF124A507901120FAB62
:1032A300E5084509606F850882850983A3127AF4CE
:1032B3007902AA08AB09120FAB805AE508450960E9
:1032C3002B126AF31251B512470E12377D700CEEB2
:1032D300FAEFFB120FB1E9F50A80CBEE2403FA12E1
:1032E30036B570317903EEFAEFFB80CA8E828F8395
:1032F300A3E064FE7003A3E0F4700BEE24030A0A58
:103303000A1236B5700CEEFAEFFB120FB1E9F50AAB
:103313008003750A00A90A7F03020A4B74F7120798
:10332300ED9003341249BFEA4B602FEA75F00BA40A
:10333300FAA8F075F00BEBA428FBEAFEEBFF121FD3
:10334300179003361249BF900336125DBB6012EE2D
:10335300FCEFFD7900121E7B8007900336E4F0A397
:10336300F002488C74F61207EDE4F508F5097808C5
:10337300120C8D90033412586DEC75F00BA4FCA85D
:10338300F075F00BEDA428FD7A237B00121F8F74D8
:1033930002120CD5E9FE6003120FC9026D0274F725
:1033A3001207ED7E007F00800AEEFAEFFB121C95F8
:1033B30012423912342940F102488C74F71207ED96
:1033C3007E007F008012123698FCA3E039FDEEFAEE
:1033D300EFFB120F9912423912342940E902488C4B
:1033E30074F71207ED7E007F008033EEF8EFF9E803
:1033F30075F00BA4F8AAF075F00BE9A42AF9900371
:103403003612628488828983E0A2E7500EC2E7F015
:10341300AC82AD83EEFAEFFB120F931242391234F2
:103423002940C802488C900334125525C3EE98EF07
:103433009922C082C083EC4D60051226F780097C77
:10344300087D007900121E7B02454F74F61207EDCA
:103453007900EA4B601878008808126E36EB127117
:10346300BF60047901780808E8C3940840EA024B76
:103473006774F71207ED74F3120D39ECFEEDFF8557
:103483001882851983E4F004120F80EAF0A3EB128B
:1034930062EF7403120F80AC82AD83EEFAEFFB127E
:1034A3000FDBEEFAEFFB120FE102488774F7120706
:1034B300ED74F3120D39ECFEEDFF85188285198347
:1034C300E4F0EAFCEBFD7403120F8012384D740133
:1034D300120F80124A4C8E828F83124A5874FE68F0
:1034E300700374FF696004790180027900024887E0
:1034F30074F71207EDEAFEEBFF1235517014123523
:103503005C8E828F83E0F4F88A828B83E058F0121A
:103513000F9FA90802488C74F71207EDEAFEEBFF30
:103523007508008E828F83E06022123551701D1260
:10353300355C8A828B83E08F838E82F8E058700C2F
:10354300E0F88A828B83E048F0120F9F80C4120F49
:10355300A5E9F5087401650822127AFF123764128F
:1035630036A6FAA3E039FB2274F41207ED8A088B1E
:10357300097C007D0012360B12373A1236CB127AD1
:10358300F17900850882850983A3E064FE7003A3B3
:10359300E0F460717E007F008062EEFAEF12316F1B
:1035A3006057EEFAEFFBEA75F00BA4FAA8F075F09A
:1035B3000BEBA428FB900336E02AF50AA3E03BF5C6
:1035C3000B850882850983A3126235850A82850BE0
:1035D30083A3E06A7003A3E06B701EE50A2403FA79
:1035E300E50B1236B6700AE50A2403FCE50B123725
:1035F300371236BF7901126B05124239123613EEB8
:103603009AEF9B4095024D08EA24030A0A0AEB222B
:103613009003341266DCC32274F31207ED8A088B1D
:10362300098A828B83A3127AF41236BA127AF1755D
:103633000C0012360B1236B670547E007F008049A0
:10364300123698FAA3E0398A82F583E0540F603684
:10365300123698F50AA3E039F50BE50A2403FCE5D5
:103663000B1237413400FB1226F1E9640170178510
:103673000A82850B83A312679DA3124A581236BF91
:10368300750C01126B0512423912342940B2A90C90
:103693007F05020A4BEEF8EFF9E875F00BA4F81278
:1036A30036A622AAF075F00BE9A42AF9900336E0B6
:1036B3002822EF12378D22127B05EB221236CB1212
:1036C3006B00EEF0A3EFF022E508127B06E509227A
:1036D30074F51207EDEAFEEBFF8E828F83A3127A55
:1036E300F47C007D00EE24030A0A0AEF12373AEE57
:1036F300FAEFFB120FA5E9F50A7401650A702912A6
:103703007AFF123760AAF075F00BE9123772850859
:1037130082F58312374C12377D700DE5082403FCC4
:10372300E50912372E12373A0233183400FDEE241E
:1037330003FAEF221237413400FB120FDB2234006D
:10374300FDE5082403FAE50922A3123751221237B3
:103753005522E0F8A3E0F98E828F83A32212376407
:10376300223400F583125529E875F00BA4F82212D0
:1037730036ACF508A3E039F50922E8F0A3E9F0E552
:10378300082403FAE50912378D22123793640122C4
:103793003400FB120FE1E92274F31207ED74E61211
:1037A3000D39127AEA750C01750800750900750A5E
:1037B30000750B00851882851983E4F0EE2403FC61
:1037C300EF3400FD7403120F8012384DE964017069
:1037D30023740B120F80124A507401120F8012626D
:1037E300397003A3E0696051851882851983858246
:1037F30008858309740D120F80E4123854740E1275
:103803000F80124A58740D120F80AA82AB83120FD5
:10381300FFE96401700B740D120F8085820A8583A2
:103823000B780A120C8DAC08AD09EEFAEFFB120F00
:10383300B77402120CD5E9F50CEEFAEFFB120FF98F
:10384300A90C741A120CD5023693123B20121005E0
:10385300221249BA12552522C082C083780079000A
:10386300800312394B123613E89AE99B5029E8FA80
:10387300E9FBEA75F00BA4FAACF075F00BEBA42CA2
:10388300FB900336E02AFCA3E03B8C82F583E054F3
:103893000F70CF79008002790102454FC082C08347
:1038A30090307F12557BEC75F012A4FCA8F075F0F4
:1038B30012EDA428FD79FF7AA77B08121E7B02452F
:1038C3004F74F71207EDE9FEEAFF7A007B007800F8
:1038D30079008028E8FCE9FDEC75F012A4FC85F082
:1038E3000875F012EDA42508123D60C39E400AE05E
:1038F300FCEFC39C400312410E12394B123D54405E
:10390300D302488CC082C0837800790080031239C7
:103913004B12393F501F123D64F470F2E875F012F8
:10392300A4F8AAF075F012E9A42AF974A728FA7486
:103933000839FB80047A007B0002454F90307F12E8
:103943003FE6C3E89AE99B22E8240108E93400F939
:103953002274F01207ED74F3120D398A0A8B0B8C63
:103963000C8D0D8908EC450D6016AA0CAB0D1210D9
:10397300538A0E8B0FAE0EAF0FEE4F6003023A1257
:103983001210298A0E8B0FA80EA90FE8FEE9FFE893
:1039930049607C90307D123A74602274036508603C
:1039A300067404650870167A0479031210239030A4
:1039B3007D123A8B40077A007B00023A7190307B8C
:1039C300123A74601B74016508600674026508701E
:1039D3000F7A02790112102390307B123A8B50D662
:1039E3008518828519837401F0120F80126569AC02
:1039F3000CAD0D7403120F80123B19740B120F8060
:103A030012471A124F3EE41265511215638004EEF9
:103A13004F604A780074FF2508C394045002780469
:103A23008E828F831265698E828F83A3A3A3A3E5FE
:103A330008F0E88E828F83A3A3A3A3A31265711258
:103A430005951240038E828F83A3A3A3A3A3A3A3ED
:103A5300F0123FFA120F55126AE9120F49123A791E
:103A63004005900E15E4F0121437EEFAEFFB025501
:103A73002F12668B49227A04790012102390307F2B
:103A83001271A5EA98EB9922123AA47583307582D4
:103A93007FE493C398F8A3E49399F9C3EA98EB9965
:103AA30022E493F8740193F92274F21207ED74F38C
:103AB300120D398A088B09ECFEEDFF750A00EEFA48
:103AC300EFFB1210538A0C8B0DA80CA90DE849606B
:103AD3003E88828983E065087004A3E06509602F4E
:103AE30088828983A3A3A3A3E0C394055021126909
:103AF300978518828519837401F0120F8012699BD0
:103B0300EEFCEFFD7403120F80123B19750A01A935
:103B13000A740D02602D123B2012101122AA82ABEF
:103B230083120FDB851882851983AA82AB832274E3
:103B3300F61207ED123B6E600FA3A3A3A3E014C319
:103B430094045004790180027900024B6774F612E1
:103B530007ED123B6E600FA3A3A3A3E014C394026B
:103B63005004790180027900024B6712104D8A825A
:103B73008B83E58245832274F61207ED123B6E6058
:103B83000BA3A3A3A3E07004790180027900024B85
:103B930067C082C083EAFCEBFD7A007B0002454CE0
:103BA300C082C0837C007D0002454C74F41207ED93
:103BB30074F3120D39EAFEEBFF8C0A8D0BC3EC9400
:103BC300F8ED94FF4007EE4F7003023C6775080061
:103BD300750900802E8518828519837401F01242BD
:103BE30061120F8012426F60137403120F80AC8254
:103BF300AD83EEFAEFFB1226F1E97049E5082401E3
:103C0300123E0090307FE4126693E50898E5099927
:103C13005052E50875F012A4F8AAF075F012E50900
:103C2300A42AF91271D860D4EE4F70A974FF650A03
:103C3300700474FF650B60C4124251650A7004A3DB
:103C4300E0650B70B7E50875F012A4F508A8F075E8
:103C5300F012E509A428F50974A72508FA740835B4
:103C630009FB80047A007B00024D0374F41207ED14
:103C730074F3120D397508001210538A0A8B0BAEB8
:103C83000AAF0BEE4F602A851882851983740112DF
:103C930049B4F8A3E0F9740B120F80124BE1120F31
:103CA300F37C127D0079FFEEFAEFFB121E7B7508A1
:103CB30001123A795009900E157401F0121437A9C4
:103CC30008024D0374F71207EDE9FE74FE6A7003F0
:103CD30074FF6B780079007005805212394B123DE6
:103CE30054504AE8FCE9FDEC75F012A4FCAFF07502
:103CF300F012EDA42F123D60F460E0E8FCE9FDEC66
:103D030075F012A4FC75F012EDA42FFD74A72CF529
:103D13008274083DF583E06A7003A3E06B70BC8096
:103D230009123D6414C39404401712394B12393FEE
:103D33005018EE70EC123D6464016005E06403709A
:103D4300E9124242FAA3E0FB80047AFE7BFF0248B9
:103D53008C90307F12557FC3E89CE99D221241432A
:103D630022E8FAE9FBEA75F012A4FAACF075F01256
:103D7300EBA42CFB74AB2AF58274083BF583E02299
:103D830012106502454FC082C083790180F274F03E
:103D93001207ED8A0A8B0B7A0479011210238A0C1D
:103DA3008B0DEA450D603EEAC333FAEB33FB121F7A
:103DB300178A088B09AE08AF09EE4F60237AFE7BA2
:103DC300FF12106B74FE6A700374FF6B601B85082F
:103DD300828509831249BFE5082402123E0080E16F
:103DE300750C0080047E007F00850A82850B83E5C5
:103DF3000CF0EEFAEFFB025534E5082407F508E56D
:103E0300093400F5092290307F12557FC3EA9CEBF9
:103E13009D2274F61207EDE4F508F5097808120CF3
:103E23008D90307FE493F508740193F5097403785A
:103E330008120E68123E4C121F8F7402120CD5E941
:103E4300FE600312107D026D02E5082402FCE50901
:103E53003400FD7A227B002274F61207ED74FE1201
:103E63000D39851882851983E4F0A3124A3E8582B1
:103E7300088583097808120C8D7508027509007886
:103E830008120C8D7C007D007A227B00121F9B742C
:103E930004120CD57402024B6474F11207ED74DF43
:103EA300120D3985188285198385820885830978DF
:103EB30008120C8D7508027509007808120C8D7CA8
:103EC300007D007A227B00121FA17404120CD5E935
:103ED3006003023FD490307F123FE6124A46C3EAA2
:103EE30098EB995003023FD4750800023FC9740F41
:103EF300120F8085820A85830B780A120C8D750A4E
:103F030008750B00780A120C8D85080A7403780A69
:103F1300120E68E50A2402FCE50B123E53121FA1A0
:103F23007404120CD5E96003023FC77411120F80A9
:103F3300E0F47003A3E0F47003023FC77402120FAE
:103F4300807401F07411120F80124A4C740D120F19
:103F530080124A587402120F80AA82AB8312100B8C
:103F6300E9606190037512586D740F120F8012622D
:103F730035121563E50875F012A4F8A9F074A728A3
:103F8300FE740839FF740F120F80A982AA83890C6B
:103F93008A0D750E00780C120C897C08123FEE1204
:103FA3000CD5126576120595124003123FFA120FD3
:103FB30055126AE9120F49123A794005900E15E439
:103FC300F0121437050885080A1271995003023E4E
:103FD300F1851882851983E0F97421120CD57F07C6
:103FE300020A4BE493FA740193FB227D00EEFAEF8D
:103FF300FB121E6F740322126AFAE4F09098FA22FD
:10400300E88E828F83A3A3A3A3A3A3A3A312402514
:104013007401124025A3F0EE2410126AFDE4F0A30C
:10402300F022124F4AA3A3A32274F41207ED74FEE5
:10403300120D39851882851983E4F0A3F0FE806799
:10404300EEF8EFF9E875F012A4F8AAF075F012E9AA
:10405300A42AF974A728F50A740839F50B780A120B
:104063000C8D7508087509007808120C8D8E088F61
:104073000974037808120E68123E4C121F9B7404D5
:10408300120CD5850A82850B83A3A3A3A3E0F46056
:104093000F851882851983E02401F0A3E03400F032
:1040A300EE24010EEF3400FF90307F12777F4090B3
:1040B3008518828519838582088583097808120CFF
:1040C3008D7508027509007808120C8D7C007D003F
:1040D3007A227B00121F9B7404120CD57402024DCA
:1040E30005C082C0837A007B0080041912410E123E
:1040F3003E09501012412DC3940550F0E970EC12A3
:10410300411780047A007B0002454FEA24010AEB41
:104113003400FB22EA75F012A4FA75F012EBA4281E
:10412300FB74A72AFA74083BFB22EAFCEBFDEC754F
:10413300F012A4FCA8F075F012EDA428124143225A
:10414300FD74AB2CF58274083DF583E02274F712FD
:1041530007ED74F3120D397E007F000241F5E50887
:1041630075F017A4F8A9F0127439FAA3E0FBEEF87E
:10417300EFF9E875F012A4F8ACF075F012E9A42C8D
:104183001242506A7003A3E06B603FE50875F017B5
:10419300A4F8AAF0EA127438F8A3E0F97401120F34
:1041A30080E0687003A3E0696020E50875F017A458
:1041B300F8EAF9742328FC740A39FD7403120F809A
:1041C300AA82AB831226F1E96014E50875F017A4FF
:1041D300F8A9F0742128FA740A39FB12156F05083F
:1041E300903083E493F8E508C398500302416112C9
:1041F300423990307F12777F5039EEF8EFF912424F
:1042030042F47003A3E0F460E68518828519837491
:1042130001F0EEF8EFF9E875F012A4F875F012E981
:10422300A42AF9124261120F8012426F60C175080D
:104233000080AD024887EE24010EEF3400FF22E830
:1042430075F012A4F8AAF075F012E9A42AF9124243
:10425300552274A728F582740839F583E02274A9DE
:1042630028F582740839125523740B22E8F0A3E968
:10427300124BE912100BE922C082C08390034174F0
:10428300F3F0A37412F002454F74F71207EDEAFE40
:10429300EBFF900377E06408601BE0640460168E14
:1042A300828F83E054036401704812470D12503427
:1042B300E06406703D8E828F83A3A3E064FE7003E7
:1042C300A3E0F4602D8E828F83A3A3124A4C900344
:1042D30068E0687003A3E069700BEE2415F582EFC4
:1042E3001271BF60081213ADE9F50880081213B309
:1042F30080F67508C2EEFAEFFB121F1D0235157426
:10430300F41207ED8A088B098A828B83E0F8A3E015
:10431300FAE82AFAE43400FB121F178A0A8B0BAE61
:104323000AAF0BEE4F6063850882850983E0FC7D4D
:10433300007900121E7B8E828F83A3A3127AF4125C
:1043430013EF8E828F83A3A3A3A31249BF85088291
:10435300850983E0F8EE28F8EF3400124A54850803
:1043630082850983A3E0C0E0EE240D126AECD0E05D
:10437300F0121401EE240E126AECE9126196E0C009
:10438300E0EE2411126AECD0E0F0EEFAEFFB024DFE
:104393000874F41207ED74EB120D398A088B098C3B
:1043A3000A8D0BE9FE900377E064046005E064087E
:1043B300700479C2802EA37808120EF1EE90037E6A
:1043C30012458D120EF17405120F80E9F074041278
:1043D3000F807401F07407120F80E4F09003777478
:1043E300021244CC7415024D0574F61207ED74EBFA
:1043F300120D39EAFEEBFF125DB860030244907AB6
:10440300077B00121F179003391249BF125DB86072
:10441300788E828F83120F5590033A125037120F02
:10442300491279B8C0E012449CD0E0F0EE2405FABA
:10443300EF3400FB8A088B098A82F583E0C0E0121F
:104443004497D0E0124CFFE0C0E0124497A3D0E0C1
:10445300124A33120F55851882851983120F498822
:10446300828983E0C0E07405120F80D0E0F08508F4
:1044730082850983E0C0E07404120F80D0E0F074F9
:1044830007120F801244CB800679108002790174E1
:1044930015024B6412449CA322900339E0FAA3E073
:1044A300F5838A82A3A3A3A322C082C083125DB82B
:1044B300600D9003391266CA900339E4F0A3F01239
:1044C300131D12150F02454FE4124BE912287D22EA
:1044D30074F71207EDE9900338F07A807B009003BC
:1044E300C2E0F9121FDD1210CB790002488CC082A2
:1044F300C083900338E070031221CF1210CB804C9D
:10450300C082C083900338E0900E147004E4F080FE
:104513002D7401F0900338E0F460237C41E0C394F0
:10452300415002E0FCECF8E0C398F0EC75F0E8A42D
:10453300CCA8F075F003A428FD7A801255877A146D
:104543007B0E79411228658003121059D083D082E3
:10455300020C6D74F41207ED74EB120D398A088B9B
:10456300098C0A8D0B900377740112458D120EF19D
:104573007405120F80E9F07404120F807403F07451
:1045830007120F801244CB0243E7124A3E780822F7
:1045930074F71207ED7C011210DD02488C74F212DD
:1045A30007ED74FC120D39E9851882851983F0EA49
:1045B300FEEBFF8C0A90037512586D1213118A08D3
:1045C3008B09EA4509700579CA0247088A828B83F9
:1045D300A3A3A3A3A3A3A3E064FE7003A3E0F470C7
:1045E3000579C30247089003751262351215758564
:1045F3000882850983A3A3A3A3A3A3A3A3A3A3E0DF
:104603000490038812486B7402120F807402F01432
:10461300120F80AA82AB831214738A0C8B0DAE0C1B
:10462300AF0DEE4F70030246FF12470D1251A974EE
:1046330006F0A3A882A983900362126707125502AA
:10464300F0EE2413126AEC74011265497440F0A36E
:10465300E412618FA3A312471A124A58EE241112CF
:104663006AECE50AF0EEFAEFFB1210A1E9FE600333
:104673000247019003777409F0123DFCAA08FB7905
:104683004B12286585088285098312485D124A58B2
:1046930090036AE0F8851882851983E068600CE06E
:1046A30090036A124BE579E1122865900FA5124A2F
:1046B3004C900FA7E0687003A3E069601A90033B76
:1046C300124A58900FA7126235121419900FA712AD
:1046D300586D7A011255877A007B049003C2E0F982
:1046E300121FDD900FA712471274027808120E688A
:1046F300AC08AD09FA7B0412558980027E1090053F
:10470300D4E4F0EEF9740402602DEE126AFB22E0A9
:10471300F508A3E0F5092212471E22123755A322FA
:1047230074F51207ED74E2120D3985188285198329
:10473300ECF0A3EDF0EAFEEBFF89087429120F8079
:10474300E0F509742C120F80E0F50A900377E0641A
:10475300046005E06408700579C2024855742A12A2
:104763000F80E064FE7003A3E0F4700579C3024890
:10477300559003777403124BE57950122865742A18
:10478300120F80AA82AB83794B1228658518828524
:104793001983124864124A58E50890036AF0742A90
:1047A300120F8012485D124A58E5099003621248BD
:1047B3006B74CE55094480C0E07412120F80D0E0B0
:1047C300F07401250A900388F0740F120F807402AD
:1047D300F0742A120F80124A4C7407120F80E8F00B
:1047E300A3E91249C57410120F80124A58740512B6
:1047F3000F80E508F0741B120F80E4F090037D74C2
:104803000FF07A7D7B03795412286590037C740F33
:10481300F07A7C7B03794712286590037CE0C3948C
:104823000F50237405120F80E0C0E07402120F8052
:10483300D0E0F07404120F807401F004120F80AA08
:1048430082AB831228897405120F80AA82AB83126C
:10485300286B741E120CD502331A12552590036B64
:104863002212552590037522F0EEFCEFFD7A897B29
:10487300031226F72274F71207EDEB90037FF01271
:1048830012FF8005740D120CD57F01020A4B74F7D9
:104893001207ED74E9120D39EAFEEBFF7508008E7D
:1048A300828F83A3A3A3E0C0E07406120F80D0E03D
:1048B3001249B4C0E07408120F80D0E0F0740912FA
:1048C3000F807401124A2EF8A3E0F9E849600D8EB7
:1048D300828F83126235120FE1E970467407120F5B
:1048E30080E4F01213E97404120F801249BF90039D
:1048F30077E06404700E1213F57402120F80EAF06D
:10490300A3EB800B7402120F8074FDF0A374FFF00D
:104913007402120F80AA82AB83121455E9F50802C0
:1049230049AD851882851983AC82AD838E828F83CE
:10493300126235120FED8E828F83A3A3A3A3E070BF
:10494300247407120F8074011249C57402120F8078
:10495300124A588E828F83124A4C7404120F80E8D5
:10496300F0A3E980AA124A46740A120F80124A5829
:104973007414120F80740112702CE0C0E0741512CD
:104983000F80D0E0F07416120F80E4124A2EFCA3BD
:10499300E0FD740C120F80AA82AB831226F7740A0F
:1049A300120F80AA82AB831220C7A908741702488A
:1049B300891249BAA3E022124A33A322EAF0A3EBF5
:1049C300F022124A39F8A3E0F92274F71207ED74C2
:1049D300F8120D39EAFEEBFF7900900377E06408E3
:1049E300704485188285198374FDF0A374FFF01257
:1049F30013E97402120F801249BF7405120F80E489
:104A03001249BAE0C0E07404120F80D0E0124A2EBB
:104A1300C0E07406120F80D0E0F07407120F80E438
:104A2300124BE51214557408024889124A33E022E6
:104A3300F08E828F8322124A3EE022F0851882850F
:104A430019832285188285198312552522E0F8A33C
:104A5300E0F9126AFAE8F0A3E9F02274F11207ED23
:104A6300890BECFEEDFF750E00750A00E9247960F1
:104A73002824FC607924F3601324FC601514603E41
:104A8300146003024B3D900377024B57900365027A
:104A93004B5712155DEA024B58750AC11215698A04
:104AA300088B09EA45097003024B5D750A00780813
:104AB300120C897C17123FEE120CD5024B5D7891D4
:104AC300790B7C007D00801688828983E064FE7008
:104AD30003A3E0F46002050E127AD8127AE1903053
:104AE3007912679440E28E828F83E50E806B750A9C
:104AF300C175089175090B7C007D008008050E12B5
:104B03003DFC127AE1903079E4126693EC98ED99CA
:104B13005048850882850983E064FE7003A3E0F4AE
:104B230060DD850E0CEA650C7001EB70D0750A0030
:104B33007808120C897C07024AB8747F250BC3944A
:104B43001E4005750AC98012890874D3126E377422
:104B530002126AEFE08E828F83F0A90A023FE174AA
:104B630004120CD57F02020A4BC082C08390034912
:104B730074A3F0A37411F09003EF74B5F0A374144D
:104B8300F090034D74D9F0A37411F090034F74A304
:104B9300F0A37411F090035174DFF0A37411F002C9
:104BA300454F74F41207ED74F9120D398A088B0915
:104BB3008C0A8D0B8518828519837808120EF1747F
:104BC30004120F80E9F07405120F80E4F0740612EA
:104BD3000F80E4124BE51210B37407024D05E8F0A1
:104BE300A3E9124BE922124A3EAA82AB832274F450
:104BF3001207ED8A088B098A828B83126B08EE4FAA
:104C03007003024CFD900312125DBB60158A828B08
:104C130083A3A3E0F9EEFAEFFB90031312503712CC
:104C23002A628E828F83A3A3A3A3A3A3A3A3A3E038
:104C3300640270748E828F83A3A3A3A3A3A3E054FF
:104C4300027003024CCF850882850983A3A3E06425
:104C5300E960798E828F83A3A3A3A3A3A3A3A3A3B2
:104C6300A3E07014900FBAE0048E828F83A3A3A3F2
:104C7300A3A3A3A3A3A3A3F08E828F83A3A3A3A31E
:104C8300A3A3A3A3A3A3E014124CFFA3A3A374049D
:104C9300F0900FBB126543E8F0A3E912761C8B0B6F
:104CA300EA450B7003126FFA8E828F83A3A3A3A32B
:104CB300A3A3A3A3A3E0640260128E828F83A3A3A2
:104CC300A3A3A3A3A3A3A3E06406702E8E828F8362
:104CD300A3A3A3A3A3A3E0A2E0501F850882850991
:104CE30083A3A3E0F9EEFAEFFB1229438E828F83AD
:104CF300A3A3A3A3A3A3E054FEF08009124F46226B
:104D0300740D120CD57F04020A4B74EC1207ED7478
:104D1300DD120D39EAFEEBFF8C088D097437120F93
:104D230080780C120F1E750A007405120F80AC8276
:104D3300AD831229917412120F80E070087415125A
:104D43000F80E060207405120F80E0A2E6501E8EF3
:104D5300828F83A3A3A3A3A3A3A3A3A31262351246
:104D63001491E9600879031226DF024F2C740512AF
:104D73000F80E0540C64047005750B018003750B00
:104D830000E0A2E55035750A01E50BA2E0402C12C4
:104D930013EF8A108B11A810A91112470DE0687048
:104DA30003A3E06960157405120F80127AFB126287
:104DB3003112294FE96004790480AC7405120F8025
:104DC300E0A2E650227406120F80E05403701874B8
:104DD30005120F80E0540C640C600CE0540C640862
:104DE300600575100180037510007405120F80E0D3
:104DF3005403F8740268700C127AFB1262311229A0
:104E03001F024F2C740168703AE510A2E0500312A0
:104E13004F347405120F80A882A9837403120F8084
:104E2300E8F0A3E9125519851882851983124F3EBC
:104E3300E0C0E07402120F80D0E0124BE5122A3971
:104E4300024F2CE86003024F2C90035FE064017073
:104E5300108E828F83A3A3A3A3A3A3E07003024DA9
:104E6300BA7422120F807402125519741A120F8029
:104E7300124A58E510A2E050087405120F80124F31
:104E830034E50BA2E0506AEE240FF582EF1271BFF6
:104E9300C0E07417120F80D0E0F0900314125DBBD2
:104EA3007003024F2C1213EF8A128B13A812A9134B
:104EB300741A120F80E0687003A3E069706B780CBA
:104EC300120C85780A120C917808120C8DA91074B3
:104ED3000C120F80AC82AD837421120F80AA82ABB7
:104EE30083900314125034122A627407120CD58073
:104EF30038780C120C85780A120C917808120C8DF4
:104F0300900375120B18EE2412F582EF126EED74F6
:104F130023120F80AC82AD83740E120F80AA82AB72
:104F2300831229377409120CD57423120CD5027518
:104F3300E7127AFB1266D812298B22E8F0A3E91252
:104F43004F4622124F4A22F08E828F83A3A3A3A33C
:104F5300A3A32274F71207ED12209702488C74F76B
:104F63001207ED1220A902488CC082C0831220A32D
:104F730002454F74F71207ED1220AF02488C74F705
:104F83001207ED7409120F80E0F5087808120C91EE
:104F93001220BB7401024889C082C0831220C70259
:104FA300454FC082C0831220CD02454F74F71207CC
:104FB300ED1220D302488C74F71207EDEAFEEBFFE3
:104FC3008908740165087014790012121B90308EE1
:104FD300E493FC7900EEFAEFFB12119102488C7412
:104FE300F41207ED74F9120D39E9FE8A088B098C66
:104FF3000A8D0B7413120F80126235900621125D15
:10500300BB6027EE851882851983F07401120F8027
:105013007808120EF1EAF8EBF97405120F80124BBF
:10502300E1900621125034122A62024BDCFB9003FA
:105033004BE0F8A3E0F58388822274F71207ED9022
:105043000E17E0F97E00800B1271AB540D640170F2
:1050530001190E1252375003E970ED02488C74F7B0
:105063001207ED900E18E0F97E00800B1271AB541D
:105073008D64817001190E1252375003E970ED02ED
:10508300488C74F21207ED890BE975F006A4240C21
:10509300F508E5F0123E048A0CE508250CFAE5094B
:1050A3003400FB121F178A0C8B0DAE0CAF0DEE4FA5
:1050B3006027AC08AD097900121E7B12470DE50B82
:1050C300F0EE2508F8EF3509F98E828F83A3A3A3A9
:1050D300A3A3A3A3A3A3124A58EEFAEFFB026030E3
:1050E30074F61207EDEAFEEBFF12116D900E16E057
:1050F300F8E9C3984009900345126235121173EE23
:105103002402F8EF12684D90034712670790034794
:10511300E004F0EEFAEFFB1211798508828509832A
:10512300E0026D03C082C0837900900345800109CA
:105133001262358A828B83E582458370F202454F82
:1051430074F71207EDEAFEEBFFEE4F60569003454E
:10515300125DBB604E888289837A007B00EE658294
:105163007003EF6583600FAA82AB831251A9E582B6
:105173004583602F80E79003451251B5687002EFB5
:10518300698E828F837008124A4C90034580031204
:1051930075F9124A58EEFAEFFB122A09EEFAEFFB01
:1051A300121F1D02488C1251AD2212552988828983
:1051B3008322125525EE22C082C0839003458004CA
:1051C30088828983125DBB600B8882898312586D44
:1051D300EC4D70EC8A828B83E4F0A3F0E84960061F
:1051E3008882898380039003451249BF02454F7427
:1051F300F71207ED90034580048A828B83125232A3
:105203004B60257E0080010E12523750ECEE75F094
:1052130006A4FCADF0EA2CFCEB3DFDEC2410F5827A
:10522300ED12528770E180047A007B0002488C12F1
:1052330066DCEA22125290EEC3982274F71207ED4D
:105243007D0080010D12528CEDC3985034ED75F042
:1052530006A4FEA8F0E8FFEA2EFEEB3FFFEE2410C3
:10526300F582EF12528770DCED75F006A4FEE8FFBD
:10527300EA2EFAEB3FFBEA2411F582EB1271BF4CE5
:10528300F002488C1271CB692212529022127B05D4
:10529300EB3400F583E0F82274F61207ED12129353
:1052A3007A007B008025EAF8EBF9E875F006A4F8AC
:1052B300ACF075F006E9A42C1266B11279C6A3E42A
:1052C3001267A7F0A31279CC127B43903077123A7E
:1052D3008340D37A007B00801C8A088B097403788F
:1052E30008120E6812615DA374FEF0A304126587B1
:1052F300A3E4127B4390308212533A40DC7A007B62
:1053030000801D8A088B0974037808120E6874499B
:10531300126E37740D12767E74FEF0A304127B4373
:1053230090308812533A40DB90308CE493900353CF
:10533300F0125344024B67E493F8C3EA98EB9400EA
:10534300227CE87D037A107B009003C2E0F9121FF0
:10535300D72274F01207ED74F5120D398A088B0900
:10536300890A8C0BE9A2E050147508FC7509FFA2A9
:10537300E15005D2E4025417D2E302541712601C21
:105383007003A3E069700579000254E4AC0A790262
:10539300AA08AB0912126FE960EDE50AF50C780C67
:1053A300120C9179027CFE7DFFAA08AB09125D976E
:1053B300120CD5E960030254E2E50AC2E5F50A904E
:1053C30003B5E07051E50AA2E6404B7403120F8067
:1053D300AC82AD83AA08AB09120FE7E9703212560B
:1053E300B88A0C8B0DA80CA90DE8FEE9FFE849600B
:1053F30025EE24020A0AEF123793601AEE2402FC08
:10540300EF3400FD7403120F80AA82AB831226F7D8
:10541300E50AD2E5F50A900348E0F50C900368E04D
:10542300F50EA3E0F50F780E120C8D7D017C009034
:105433000348E0F9AA0EAB0F1212277402120CD51F
:10544300E9F8900348E004F0E860030254E2E50A57
:10545300A2E55004740E80027406C0E07401120FBA
:1054630080D0E0126B198A0E8B0FAE0EAF0FEE4F8A
:105473006069125502125519888289837401F07488
:1054830078550AA3127B0BE50C127B0BA3E508F0FE
:10549300E5091254F1E4F0E50AA2E5500F74031292
:1054A3000F80AC82AD83E824061254E88E828F838A
:1054B300A3A374FDF0A374FFF0E50B601590308F88
:1054C300E493F8E50BC3985009EE2413126AECE554
:1054D3000BF0EEFAEFFB1210A1800679108002792F
:1054E300C7740B8049FAE93400FB1226F72288823D
:1054F3008983A3A3A3A31254FD22126880A322EEDF
:105503002417126AFD7401F01213E9EE241A126AC9
:10551300FDEAF0A3EB22F0127AFF340012552322A6
:10552300F58312552922E0F8A3E0F922740D120C39
:10553300D57F08020A4B74F61207ED7A007B10122E
:10554300700760089003D47401F080299006C0E0CE
:105553006401900FB87006E0FC79018004E0FC79E7
:10556300037A007B0012119190307512557B7A00FB
:105573007B10125589024B6712557F22E493FC740A
:105583000193FD227B009003C2E0F9121FD1227424
:10559300EC1207ED8A088B098C0C8D0D890E74149F
:1055A300120F80125F767416120F80E0F510A3E0DD
:1055B300F511121491E960077AFF7BFF0256B5904B
:1055C3000FB7E0640260030256A87900AA08AB098A
:1055D300121275A90E1212698A128B13AE12AF132F
:1055E300EE4F70030256908E828F83A3A3A3A3A3CF
:1055F300E064018E828F83A3A370691262358E8269
:105603008F83A3A3A3A3A3A3E05418604390308D77
:10561300E4938E828F83A3A3A3A3F0EA650C7003A4
:10562300EB650D6014EA650A7003EB650B600AEA2B
:1056330065107003EB6511701F7810120C8DAC0AA6
:10564300AD0BAA0CAB0D12158D7402120CD580088C
:10565300900367126FF1A3F074FE6A700374FF6B1B
:10566300601D804EA3A3A3E0640360298E828F8311
:10567300A3A3A3A3A3E0640470057AFE0255BD8E21
:10568300828F83A3A3A3A3A3E0640270089003B44F
:10569300E0640270101256B88B0BEA450B6006AA41
:1056A30008AB09800DAA08AB0990034912503412C4
:1056B3002A620275E7900375125D9D1215512274DB
:1056C300F71207EDEAFEEBFF12103BE9700AEEFA60
:1056D300EFFB121047E96006EEFAEFFB80047AFE57
:1056E3007BFF02488C74F01207ED8A0A8B0B8C0E39
:1056F3008D0F8909750800121491E979006003027E
:10570300585FAA0AAB0B121275A9091212698A0C07
:105713008B0DAE0CAF0DEE4F60198E828F83A3A35A
:10572300A3A3A3E0640270559003B4E06402700382
:1057330002585DAA0AAB0B90034F125034122A622F
:1057430012104D8A0C8B0DA80CA90DE849700302A9
:10575300585D88828983A3A3A3A3A3E0A2E04003A7
:1057630002585D750C01A2E150687901AC0AAD0BDA
:10577300AA0EAB0F1211C1E9706402585D8E828FBD
:1057830083A3A3A3A3A3E064037005750C02805253
:105793008E828F83A3A3A3A3A3E0640160030258B3
:1057A3005D90037512586D8E828F83125BC28A0CD3
:1057B3008B0DA80CA90DE84960D1903086E493FACB
:1057C30088828983E0C39A50C2A3E0600302585DD4
:1057D30080B988828983A3A3A3A3A3D2E1F0EE4F68
:1057E300603A8E828F83A3A3A3A3A3A3E05418607C
:1057F3002B7508018E828F83A3A3120B18750CFEE1
:10580300750DFF780C120C8D7900AC0AAD0BAA0E46
:10581300AB0F1212877404120CD5803E900368E01C
:10582300650E7004A3E0650F701490308EE493FC52
:10583300A909AA0AAB0B121191750801801CA90CC6
:10584300AC0AAD0BAA0EAB0F1211C1E9700C7508AF
:1058530001A909AA0AAB0B12121BA908025534E5C8
:105863000C2415F582E50D126B0012655D2274EAB6
:105873001207ED74F0120D398A0C8B0D8C088D090B
:105883007426120F80E0F514A3E0F5157512069047
:1058930003F5125DBB602390037512586DAA08AB24
:1058A3000912157B8A108B11EA4511600D8A828BD0
:1058B30083A3E070057900025BAAE50C241DF50EB5
:1058C300E50D3400F50F850E82125DA7F51388826E
:1058D3008983A3A3A3E0FA88828983A3A3A3A3E074
:1058E300F9EA2400FEE439FFAA08AB091212218564
:1058F3000E82850F83125BE5E029F50BE50AA2E52D
:10590300500375120E7487550A70177418550A647C
:1059130018600FE50C2417F582E50D1271BF6512AF
:10592300600779011226DF808C530A78C3EE94F85E
:10593300EF94FF501D7900EEFAEFFB125BB4601297
:1059430088828983A3A3A3A3A3A3E05418600302BB
:1059530058B87808120C8D7D00125BD8120CD5E96B
:10596300F874036870030258B8E86003025A23749A
:1059730018550A7003025AD8E50AD2E0F50AA2E4E0
:105983005004D2E1F50AA90A12622E125BB46053E5
:1059930088828983A3A3A3A3A3A3E05418604488A4
:1059A300828983A3A3A3A3A3E064017036E5104512
:1059B30011603090037512586D88828983125BC21F
:1059C3008A0E8B0FA80EA90FE84960178882898376
:1059D300A3E0600F851082851183A3126D0E50031F
:1059E3000258B8E50AF50E780E120C91125BCB1231
:1059F3000CD5E9702B7C007D00851482851583749A
:105A0300FFF0A3F0850C82850D83A3A3A3A3A3A317
:105A1300A3A3E06003125862A90B12622E1220C1E5
:105A2300851482851583E0F47003A3E0F460399054
:105A330003B4E0640270030258B8125F67E0FAA38C
:105A4300E0125030122A62EA65087003EB650960C0
:105A5300030258B8EEFAEF125030122A628514820C
:105A6300851583EAF0A3EBF07808120C8D7D011203
:105A73005BD8120CD5A90AEEFAEFFB1212758A084D
:105A83008B09A808A909900368E0687003A3E0697B
:105A93006003025B9BEEFAEFFB12104D8A088B0941
:105AA300A808A909E849606E88828983A3A3A3A3F0
:105AB300E06401600D88828983A3A3A3A3E0640249
:105AC3007054851882851983AC82AD83EEFAEFFB9F
:105AD300120FE78055900361E0600FE50AF50E7839
:105AE3000E120C91125BCB120CD5E50AF50E780E53
:105AF300120C9179027CFE7DFFEEFAEFFB125D97AB
:105B0300120CD5E96003025A238514828515837428
:105B1300FFF0A3025A6A1213E9EAFCEBFD8518822F
:105B2300851983AA82AB831226F7850C82850D83A0
