:020000040000FA
:06000000020EFB02048D5C
:030013000204B034
:03002B00020C982C
:03003300020A3E80
:03003B00020505B6
:030053000203BBEA
:03006B00020A1571
:10008300020422010101FF01050301351535153570
:10009300153515EB13E513351538290000000074E9
:1000A30028000000000C0000000C000100804154F7
:1000B3005F41465F67726F75700000000000CB04FC
:1000C30001FF0000000000000000000000006317B3
:1000D300000000000000000000000000000000001D
:1000E300000000000000000081178717000093172D
:1000F30000000000000000000000000000000000FD
:100103000000000000000A4C41423030372020201C
:100113002001FFFFFFFF060401FF000005559500C6
:100123000000AB17B1170000BD170000000000006E
:1001330000000000000000000000000000000000BC
:10014300D517DB170000E1170000000000000000D6
:100153000000000000000000000000000000FF1786
:10016300051800000B18000000000000000000004C
:100173000000000000000000000000000A4C4142A3
:100183003030372020202001FF070401FF00000347
:10019300909801169A0A4C41423030372020202093
:1001A30001FF050401FF000003C09801349A0A4CC3
:1001B30041423030372020202001010401FF00009C
:1001C30003D89800000029182F1800003B180000DE
:1001D300000000000000000000000000000000001C
:1001E3000000000041180B49206C6F7665205520F4
:1001F3003A29010080040401FF0000055F95000017
:1002030000C88DFFFF0101009F05000000F105E814
:100213000364006400B8010202000800000502073D
:10022300051E02051E0A03B80B02010215200296E1
:1002330051180002020612FF00120F1A604F120F2C
:10024300476012E7548066F6120D7B7011120F8619
:10025300703B090909F4F618F618F618F622120D80
:10026300CF7015120F9008080860EAE6447FF6186D
:10027300768018E4F618F622120F906016120F8695
:100283007012E4F608F608F608E65480F609090940
:1002930018181822EAC0E0EBC0E0ECC0E0EDC0E0C3
:1002A300E687F0A4FBACF008E687F0A42CFCE43569
:1002B300F0FA1809E687F0A42C4B60027401CA35E2
:1002C300F0FCE433FB09E687F0D2F7A42CCB35F03E
:1002D300FC1908E687F0A42BCC35F0FBE433FD08CA
:1002E30019E687F0D2E7A42C4ACB35F0CD3400FCD5
:1002F30009E687F0D2E7A42DCC35F0FDE433FA0903
:1003030018E687F0D2F7A42CCD35F0CA3400FC08E8
:10031300E687F0D2E7D2F7A42ACC35F07A7E20E73D
:100323000B0ACB33CBCD33CDCC33CC33CB335014BF
:100333007004ED30E00ED2F1E4CD3DCDCC3CCC3BAE
:100343005005DA05C2F1EB547FC63308E63392F069
:10035300FBE73309E733C39A502D2B70190C0D4C6F
:100363004D70151806E608C333700D20F10AA2F08C
:1003730013F6E418800B4024E4F630F0027680187C
:10038300F618F618F68024D33B14501074FFA2F02D
:1003930013F6187680E418F618F6800FA2F013F619
:1003A30018E63303F618ECF618EDF6D0E0FDD0E0CE
:1003B300FCD0E0FBD0E0FA22C0E074F21208BFA246
:1003C300AFE433FED2AFE5A7FFE5A1F5085F541014
:1003D300600612213B75A1EFE5085F54086008121F
:1003E300214175A1F7802BEFA2E0C0D0E508A2E080
:1003F30092F0120E7F158182F05017906198E0F809
:100403009007C6E0C398A2D265D0335002E8F075D6
:10041300A1FE751A00EEA2E092AF7F0102091EC091
:10042300E074F21208BFA2AFE433FED2AF9061A42E
:10043300E0F8759B00E59158540860087591F71230
:100443002189802AE59158541060087591EF122193
:100453008F801BE8A2E0C0D0E591A2E092F0120EDB
:100463007F158182F05007E0C2E0F01222DF906135
:10047300A3E0F8E5E9585404600E1222B575E9FBD0
:10048300906193E0A2E640F28088C0E074F2120823
:10049300BFA2AFE433FED2AF9061A5E0F8E5BF5849
:1004A3005404600675BFFB1222F7020415C0E0C0B6
:1004B300D0E8C0E0E9C0E0C082C083E5C1C0E090FD
:1004C3000732E0F874B128F58274063400F583D05E
:1004D300E0F0900731E0F8A3E0687006E595900737
:1004E30034F0900732E004F0C394804002E4F0A3B8
:1004F30074C6F0D083D082D0E0F9D0E0F8D0D0D069
:10050300E032C0E0C0D0E8C0E0C008C009C082C08B
:10051300839007B5E0F8A3E0687008539AFBA374CF
:10052300018026C2E99007B5E0F50874012508F0BB
:1005330074352508F58274073400F583E0F5C1901E
:1005430007B5E0C394804002E4F0D083D082D009A1
:10055300D00880A6C3E498F8E499F9120598802698
:10056300C3E49AFAE49BFBE920E7E9120598E498CF
:10057300F8E499F922C3E498F8E499F9120598E4A8
:1005830098F8E499F9C3E49AFAE49BFB22EB20E799
:10059300CFE920E7E0B90010BB0008E88AF084F84F
:1005A300AAF022E4FBC8FA22EB70227B10C833C8FE
:1005B300C933C9335007C39AC3DBF280069A50018B
:1005C3002ADBEAC833F4C8C933F4C9FA2275F00840
:1005D300E4C833C8C933C933C99AC99B5004C92A6B
:1005E300C93BD5F0ECFBC833F4C8E4C9FA221206C0
:1005F3003120F01430E72B74FFFCFBFA747F802268
:10060300E4FCFBFA7480801AB48008BC00F2BB00DF
:10061300EF800F50EBF9E4C39AFAE49BFBE49CFCF4
:10062300E499C6CC18C6CB18C6CA18C6F922E4C9C1
:10063300C608CAC608CBC6D3330308CCC63392F068
:10064300C3947F402E94184019C9B90704CACBCC70
:10065300225025C309CA33CACB33CBCC33CC33D9CD
:10066300F422F4600DC9CCC313CB13CBCA13CAD97C
:10067300F6CC22E4FCFBFA2214FCFBFA220808085D
:10068300EAC0E0EBC0E086F0E7A4FA180986F0E7D9
:10069300A42AFA180986F0E7A42AFA180986F0E7CB
:1006A300A42AFA1986F0E7A4FBE5F02AFA190886CA
:1006B300F0E7A42BFBE5F03AFA190886F0E7A42B40
:1006C300FBE5F03AFA18180986F0E7A4C5F02BFB0E
:1006D300E43AFA1908E7C5F0C6A426F6E5F03BFBB1
:1006E300E43AFA1886F0E7A4F6E5F00826F6E43BC8
:1006F30008F6E43A08F6D0E0FBD0E0FA220808084E
:10070300E630E711120E0C120718080808C64480D9
:10071300C618181822181818E9799EC608CAC608F8
:10072300CBC608CCC6C370207996CACBCC701979D6
:100733008ECBCC70137986CC700EF9802ACA33CA5B
:10074300CB33CBCC33CC331930E7F2CCCBCA3350D9
:10075300147004EA30E00DE4CA3ACACB3BCBCC3C7C
:10076300CC500209C3E913C6CC182313C6CB18C651
:10077300CA18C6F922E4CFC0E0E4CEC0E0E4CDC09D
:10078300E0E4CCC0E075F020C3E633F608E633F6C8
:1007930008E633F608E633F6181818EC33FCED33A5
:1007A300FDEE33FEEF33FFC3EC9709ED9709EE97A8
:1007B30009EF97191919400FFFEC97FC09ED97FD05
:1007C30009EE97FE191906D5F0BEECF709EDF70906
:1007D300EEF709EFF7191919D0E0FCD0E0FDD0E0EE
:1007E300FED0E0FF222518C582C0E0E51934FFC51D
:1007F30083C0E0E518C3958224F810AF08858319F8
:100803008582188008858319858218D2AFCEF0A31C
:10081300E520F0A37808E608F0A3DEFAEFF0A3E5FD
:100823008124FAF8E608F0A3E608F0A3E608F0A3AB
:100833000808E608F0A3E608F0A315811581D0E0C7
:10084300FED0E0F8158115811581E8C0E0EEC0E027
:1008530022120F7BB900030208A9E4900301783048
:10086300790A8002F0A3D8FCD9FA781A9000867A24
:1008730001BA00028007E493A3F608DAF9900C307A
:10088300AA82AB8390008778B579028015E493A39D
:10089300AC82AD838A828B83F0A3AA82AB838C82E2
:1008A3008D83D8E9D9E77582D97583FD7401120C5C
:1008B3007A75820B7583277400120C7AC0D02518C1
:1008C300C582C0E0E51934FFC583C0E0E518C395D0
:1008D3008224F310AF0885831985821880088583E5
:1008E30019858218D2AFC8F0A3E9F0A3EAF0A3EB0D
:1008F300F0A37908E709F0A3D8FAECF0A3EDF0A38D
:10090300EEF0A3EFF0A3D0E0F0A3D0E0F0A3D0E0AB
:10091300F0A3E520F0A3E5F0F0A322851983851861
:1009230082E0C0E0A3E0F9A3E0FAA3E0FBA3780828
:10093300E0F608A3DFFAE0FCA3E0FDA3E0FEA3E0FA
:10094300FFA3E0C0E0A3E0C0E0A3E0F5D0A3E0F59F
:1009530020A3E0A3F5F010AF0885831985821880E2
:1009630008858319858218D2AFD082D083D0E0F86E
:10097300D0E032040075F0108E218F228582268507
:100983008325851882851983E0CEA3E0CF8526824F
:10099300852583EBC9EAC8EDCBECCAC3E833C8E9C4
:1009A30033C9EA33CAEB33CBC3EA9EF524EB9FF595
:1009B30023B35004AB23AA24EC33CCED33CDD5F0D1
:1009C300DAAE21AF2222D083D082ECC0E0EDC0E0CA
:1009D300E493A3FCE493A3FDED4C600D120AE8EC51
:1009E30024FFFCED34FFFD80EFE493A3FCE493A329
:1009F300FDED4C600D120B85EC24FFFCED34FFFD87
:100A030080EFD0E0FDD0E0FCE493A3C0E0E493C02A
:100A1300E022C0E074F21208BFA2AFE433FED2AF0B
:100A2300E589A2E15003122045758900C2C5751AF4
:100A330000EEA2E092AF7F0102091EC0E074F21241
:100A430008BFA2AFE433FED2AFE58BA2E05003129E
:100A53002045758B00C2E880D5D083D082E9C0E001
:100A6300E493A3C386F0C5F095F0F908E493A38655
:100A7300F0C5F095F0700BE493A3C3994005E90426
:100A83008002A3E475F002A42582F582E5F03583A4
:100A9300F583D0E0F9E493A3C0E0E493C0E02285BA
:100AA3001983851882E0A3FEE0A3F5207808E0A36C
:100AB300F608DFFAE0A3FFE0A3C0E0E0A3C0E0E0B4
:100AC300A3C0E0E0A3C0E0E0A3C0E010AF088582CC
:100AD300188583198008858218858319D2AFD0833E
:100AE300D082020C80C0E0C3E4939608740193960D
:100AF30018400FE493667008087401936618700039
:100B03007019A3A3C3E49396087401939618A3A33F
:100B1300400DD0E0D0E0D0E0020A05A3A3A3A3A335
:100B2300A3D0E0227404800474028000CCC0E0ED02
:100B3300C0E0E518C39CCCAD1950011D10AF068C65
:100B4300188D1980068C188D19D2AF120BFCD0E0CA
:100B5300FDD0E0FC2274028000CCC0E0EDC0E0E5F3
:100B630018C39CCCAD1950011D10AF068C188D19FC
:100B730080068C188D19D2AF120BDAD0E0FDD0E0CD
:100B8300FC22C0E0C0F088F0E493667008087401AA
:100B93009366187000A8F0A3A3700BD0F0D0E0D038
:100BA300E0D0E0020A05A3A3D0F0D0E022D083D0A6
:100BB30082CCC0E0E493A36006120C3C1470FAE408
:100BC30093A36006120D651470FAD0E0FCE493A3BE
:100BD300C0E0E493C0E022CAC0E0E493A3C582CCA2
:100BE300C582C583CDC583F0A3C582CCC582C58329
:100BF300CDC583DAE5D0E0CA22CAC0E0E0A3C5824E
:100C0300CCC582C583CDC583F0A3C582CCC582C5BF
:100C130083CDC583DAE6D0E0CA22C008C3E096F5E7
:100C23000808A3E096420808A3E096420808A3E058
:100C33009645087001D3D00822C0E0E493A3D39C67
:100C43005010E493A3C39C400AD0E0D0E0D0E0026C
:100C53000BCDA3A3A3D0E0227009080808226016D5
:100C6300181818C6C333C608C633C608C633C60821
:100C7300C633C6D5E0EA22C09FF59FE473D09F2216
:100C8300D083D082C09FE493C0E0740193C0E0742A
:100C93000293F59F22C0E0C0D0E8C0E0E5A8D2AF40
:100CA300C2C7751A00A2E792AFD0E0F8D0D0D0E067
:100CB300322518F58210AF08F5184002151980087F
:100CC300F51840021519D2AF851983227404800ADE
:100CD30074038006740280027401C0E0F404120CF1
:100CE300B4D0E0120F5622BB0102E722C082C083B8
:100CF30089828A83BB0003E08002E493D083D0829D
:100D030022C0D0251810AF08F51850020519800825
:100D1300F51850020519D2AFD0D022601608080882
:100D2300C6C313C618C613C618C613C618C613C639
:100D3300D5E0EA22C3E0C696F608A3E0C696F60815
:100D4300A3E0C696F608A3E0C696F622251810AFD0
:100D530008F518400215198008F51840021519D234
:100D6300AF22C0E0E493A36C7009D0E0D0E0D0E000
:100D7300020BCDA3A3D0E022181818E6084608708A
:100D83000AE608C3337005E633F4220822E06670EE
:100D93001008A3E066700A08A3E066700408A3E0E5
:100DA3006622C3E09608A3E09608A3E09608A3E0B2
:100DB30096A2D265D03322E76670100809E7667001
:100DC3000A0809E76670040809E76622191919E792
:100DD300094709700AE709C3337005E733F42209A9
:100DE30022C3E096F008A3E096F008A3E096F0088B
:100DF300A3E096F022C3E697F60809E697F60809FA
:100E0300E697F60809E697F622181818E4C396F64B
:100E130008E496F608E496F608E496F622E627F642
:100E23000809E637F60809E637F60809E637F62231
:100E3300E056F608A3E056F608A3E056F608A3E04A
:100E430056F622E657F60809E657F60809E657F676
:100E53000809E657F622E056F008A3E056F008A387
:100E6300E056F008A3E056F022E647F60809E64705
:100E7300F60809E647F60809E647F622C0E0E8C0A7
:100E8300E0E58124FCF8E6A2E7D0E0F8D0E02270A8
:100E93000422600D18C6C333C608C633C6D5E0F4B2
:100EA3001822E026F008A3E036F008A3E036F008A5
:100EB300A3E036F022E026F608A3E036F608A3E026
:100EC30036F608A3E036F622C6F4C608C6F4C6080A
:100ED300C6F4C608C6F4C622C3E09608A3E0960883
:100EE300A3E09608A3E09622C3E7960809E79608CD
:100EF30009E7960809E7962275D0007581407518B1
:100F03000175190300020854E6F008A3E6F008A3EC
:100F1300E6F008A3E6F022E6084608C313460833C2
:100F23006002E633F422600C08C6C313C618C61366
:100F3300C6D5E0F422E0F608A3E0F608A3E0F6083D
:100F4300A3E0F622E7094709C3134709336002E721
:100F530033F422CAC0E0E6F0A308DAFAD0E0FA22BA
:100F6300EAF0A3EBF0A3ECF0A3EDF022E0FAA3E0A8
:100F7300FBA3E0FCA3E0FD22E5C754F84401F5C759
:100F8300790122E7C33319471947194722E6C333C7
:100F9300184618461846222518F582E43519F583B4
:100FA30022C2AF75D69F02000022120C83C6B20282
:100FB300120C83E4B202120C831DDC02120C835266
:100FC300DC02120C8378DC02120C83B2DC02120CFA
:100FD30083C4DC02120C8316DD02120C8377DD025C
:100FE300120C8301DE02120C83A5DE02120C83EDC8
:100FF300DE02120C8327DF02120C8344DF02120C81
:101003008369DF02120C83BBDF02120C83D4DF027D
:10101300120C83FADF02120C8335E002120C83797F
:10102300E002120C83A0E002120C83F1E002120C26
:1010330083A1E102120C8359E202120C8321E30221
:10104300120C83FEE302120C8384E402120C8393DA
:10105300E402120C839EE402120C83A7E502120C35
:1010630083B8E502120C832EE602120C83C0E6025B
:10107300120C8318E702120C83DEE702120C8305BD
:10108300E802120C8323E802120C8376E802120CA6
:1010930083BBE802120C83C8E802120C835CEA02E9
:1010A300120C83A7EB02120C8356EC02120C837210
:1010B300ED02120C83DCEF02120C83E7EF02120C39
:1010C30083F1EF02120C83FCEF02120C8306F00291
:1010D300120C8310F002120C831BF002120C8326F5
:1010E300F002120C8357F002120C837BF002120CF5
:1010F300839FF002120C8304F102120C8348F10265
:10110300120C8364F102120C83DBF102120C8313C1
:10111300F202120C835FF202120C83BCF202120C75
:10112300839EF402120C8324F502120C83FDF50254
:10113300120C830DF902120C8362F902120C838FD5
:10114300F902120C83DBFA02120C832BFB02120C42
:101153008380FB02120C8381FC02120C8319FD02B3
:10116300120C839BFD02120C833BFE02120C83487C
:101173009A01120C83819A01120C835B9C01120C5D
:10118300839A9C01120C83E49C01120C83899D01B8
:10119300120C83E89D01120C831C9E01120C83899F
:1011A3009E01120C83A69F01120C83AEA001120CA8
:1011B3008344A101120C838BA401120C8334A50177
:1011C300120C8310A601120C8371A601120C838EDC
:1011D300A701120C83B8A901120C836FAA01120C88
:1011E3008379AA01120C83ACAA01120C8373AB019D
:1011F300120C830EAC01120C8373AC01120C839C92
:10120300AC01120C83BEAC01120C83EDAE01120CC7
:1012130083C4AF01120C8308B001120C8375B001B3
:10122300120C8330B101120C8362B101120C83A63C
:10123300B101120C83D9B101120C832EB201120C2D
:101243008383B201120C8317B301120C8379B301A8
:10125300120C83E1B301120C838AB501120C837261
:10126300B601120C83B4B701120C83E2B901120C5C
:1012730083A2BA01120C83D1BC01120C8374BD0189
:10128300120C83B2BD01120C835EBF01120C837278
:10129300BF01120C837CBF01120C83A6BF01120C89
:1012A30083B2BF01120C83D1BF01120C8388C0012A
:1012B300120C83C7C001120C83D1C001120C83DB53
:1012C300C001120C8326C101120C8389C101120CC7
:1012D3008390C201120C8351C301120C83F9C30121
:1012E300120C8345C501120C833EC601120C83DB2D
:1012F300C601120C837DC701120C8394C701120C23
:1013030083CBC701120C83E9C701120C832DC801DB
:10131300120C8352C801120C8338C901120C83A426
:10132300C901120C831ECA01120C832DCB01120CAE
:10133300836CCC01120C83CECC01120C8388CD01BB
:10134300120C83ABCD01120C837FCE01120C83CA26
:10135300CE01120C830CCF01120C8363CF01120C4C
:10136300839ACF01120C83C8CF01120C8301D001E1
:10137300120C8326D001120C83AED001120C83D140
:10138300D201120C8330D301120C83C4D301120C8B
:101393008330D401120C8384D401120C8312E80429
:1013A300120C8351E804120C832DB402120C8387B0
:1013B300B402120C83E3B402120C832FB502120C95
:1013C300834AB502120C837BB502120C8398B502D3
:1013D300120C83A4B502120C8318B702120C8331CA
:1013E300B702120C8398B702120C83ABB702120C2C
:1013F30083B9B702120C836DB802120C8351B90280
:10140300120C8357BA02120C83DDBA02120C83E763
:10141300BA02120C8354BB02120C836BBB02120C74
:10142300839DBB02120C83D6BB02120C8300BC0249
:10143300120C8361BC02120C8381BC02120C839FC9
:10144300BC02120C83E5BC02120C830BBE02120C0D
:101453008358BE02120C8387BE02120C83FDBE02A8
:10146300120C8325BF02120C835EBF02120C836C25
:10147300BF02120C83C4BF02120C8313C002120CEE
:101483008352C002120C8382C002120C83AEC002CC
:10149300120C83B9C002120C83D7C002120C8399B9
:1014A300C102120C83A3C102120C83DEC102120C0F
:1014B30083F4C102120C83FDC102120C8352C202D7
:1014C300120C8366C202120C8374C302120C83874C
:1014D300C302120C839EC302120C83B3C302120C09
:1014E3008355C402120C83D8C402120C8396C5021E
:1014F300120C83A1C502120C83C7C602120C83E32C
:10150300C602120C8335C702120C8374C702120C75
:101513008389C702120C83CBC702120C8318CA0239
:10152300120C8396CA02120C8309CB02120C832B72
:10153300CD02120C8343CD02120C8346CD02120C52
:101543008352CD02120C8366CD02120C836ECD0240
:10155300120C83A1CD02120C8351CE02120C83C74D
:10156300CE02120C833ACF02120C83EECF02120C7E
:1015730083A3D002120C83C2D002120C8362D10265
:10158300120C836ED102120C8399D102120C839C2C
:10159300D102120C83CBD102120C83E0D102120CC4
:1015A300834AD202120C8372D302120C834AD402EE
:1015B300120C83D5D402120C83EED502120C83AB2A
:1015C300D602120C83E4D602120C8315D702120C36
:1015D30083B5D702120C83E5D702120C83C0D8025D
:1015E300120C8359D902120C83E4D902120C83958D
:1015F300DA02120C8317DB02120C8349DB02120C92
:10160300838ADB02120C83BFDB02120C8380E903A3
:10161300120C83E5E903120C8322EA03120C837193
:10162300EA03120C8387EC03120C836AEE03120C99
:1016330083D4F103120C830FF203120C8331F203F0
:10164300120C8394F203120C83C8F203120C83EB83
:10165300F203120C8318F303120C8374F303120CBA
:10166300836F7100120C839D7100120C83EB710068
:10167300120C83667200120C836A7300120C83646B
:101683007400120C837E7400120C83707500120CAC
:10169300838D7600120C83A17600120C83C376002F
:1016A300120C83E07800120C83A17900120C83B929
:1016B3007900120C83D67B00120C83307D00120C50
:1016C300833F7D00120C83617D00120C83757D00C6
:1016D300120C83497E00120C83589E04120C83A8BB
:1016E3009E04120C837C9F04120C83F29F04120C41
:1016F3008364A004120C83E0A004120C8344A104AD
:10170300120C83D4A104120C831CA204120C838F29
:10171300A204120C8352A304120C8375D804120C76
:1017230083A5D804120C83FAD804120C8375E2043F
:10173300120C839EE204120C83E1E204120C830078
:101743008004120C831B8004120C83698004120C26
:1017530083588204120C83278404120C83F68404B6
:10176300120C83A78504120C832F8604120C836D3D
:101773008604120C839BCD04120C83CCCD04120C73
:101783008383CE04120C83BFCE04120C83DBCE04FE
:10179300120C8322CF04120C8376CF04120C83E73E
:1017A300D904120C831BDA04120C836FDA04120CB3
:1017B30083ABDA04120C83C7DA04120C8315DB043F
:1017C300120C8341DB04120C8331C404120C8365B5
:1017D300C404120C83A3C504120C83DFC504120CCA
:1017E30083FBC504120C8347C604120C838FC60403
:1017F300120C83BCC104120C83F0C104120C832E9F
:10180300C304120C836AC304120C8386C304120C30
:1018130083D2C304120C831AC404120C838DCF0425
:10182300120C83C7CF04120C836DD004120C83A94E
:10183300D004120C83C5D004120C830CD104120CF7
:10184300835AD104120C835DD104120C83A5BD030A
:10185300120C834DBE03120C83B3BF03120C83A07F
:10186300C103120C83A6C203120C8320C303120C00
:1018730083DDC403120C830FC503120C836CC503F1
:10188300120C839EC503120C83DFC503120C83560F
:10189300C703120C83D9C703120C8306C803120CA7
:1018A300830CCA03120C83E2CA03120C8396CC0383
:1018B300120C8319CD03120C835FCD03120C83C961
:1018C300DC04120C83E7DC04120C834EDD04120CDF
:1018D300838BDD04120C83CFDD04120C83949304F9
:1018E300120C83BE9304120C83EE9304120C83C375
:1018F3009404120C83359604120C83C09804120CC2
:1019030083EF9804120C83E4FF01120C83ECFF01B4
:10191300120C83EEFF01120C83F6FF01120C83FB02
:10192300FF01120C83FCE804120C8302E904120C7D
:101933008317E904120C831DE904120C839E2C0007
:10194300120C831A2D00120C83662E00120C83E7EF
:101953002E00120C83342F00120C838A2F00120CDA
:1019630083AB2F00120C83FF2F00120C8345300032
:10197300120C83753000120C83EF3000120C835865
:101983003100120C838D3100120C83BC3100120C18
:1019930083143200120C83D93200120C83223300D9
:1019A300120C836E3300120C83493400120C8373C0
:1019B3003400120C83173500120C83923500120C7D
:1019C30083B93500120C835D3700120C83EE3700A8
:1019D300120C83653900120C83223A00120C83E740
:1019E3003A00120C831B3B00120C835E3B00120C6B
:1019F30083B03C00120C836C3D00120C838F3E00BD
:101A0300120C83133F00120C83F14400120C835415
:101A13004500120C83DC4500120C83F34500120CC5
:101A230083894600120C83C64700120C8347480083
:101A3300120C83AB4800120C83294900120C83A9B2
:101A43004900120C83AC4A00120C83D34A00120CD7
:101A5300838F4C00120C83B04D00120C83844E0014
:101A6300120C83484F00120C83135000120C83B2E4
:101A73005000120C83195100120C83F25100120C06
:101A8300835C5200120C83705300120C8305A9026D
:101A9300120C839E5400120C83945500120C835530
:101AA3005600120C83215700120C83CE5700120CE0
:101AB30083AB5800120C83595A00120C83A55A00A9
:101AC300120C83895B00120C83C05E00120C830529
:101AD3006000120C83BE6000120C83A06100120C24
:101AE300836E6300120C834D6500120C83516600F4
:101AF300120C837B6600120C8373B102120C836B8E
:101B03006A00120C83ED6B00120C83906C00120CB4
:101B1300839F6D00120C83736E00120C836E6F0033
:101B2300120C83D67000120C8383DD03120C830125
:101B3300DE03120C8337DE03120C839EDE03120CCA
:101B430083DBDE03120C834EE003120C836AE00393
:101B5300120C83AFE003120C833DE103120C839656
:101B6300E103120C83C3E203120C83D5E303120CCB
:101B73008332E403120C839EE403120C83FFE40319
:101B8300120C8340E503120C83EDE503120C83FF73
:101B9300E603120C832AE703120C8375E703120C86
:101BA30083BCE703120C834EE803120C8309E90399
:101BB300120C83E68604120C83328704120C83A072
:101BC3008704120C83C18704120C83718804120CDE
:101BD300837A8804120C83CD8804120C83F688045C
:101BE300120C835D8904120C83EE8904120C83307A
:101BF3008A04120C837A8A04120C83D98A04120C85
:101C0300836A8B04120C83A98B04120C83E88B0464
:101C1300120C831D8C04120C832F8C04120C834131
:101C23008C04120C83608C04120C83698C04120CD8
:101C330083248D04120C83648D04120C8397FF0399
:101C4300120C835AE304120C8369CB04120C839F96
:101C5300CB04120C83E8CB04120C8338CD04120C92
:101C630083AB9703120C83EA9803120C8326990320
:101C7300120C83E59A03120C830E9B03120C83A1AF
:101C83009D03120C83E59D03120C836E9F03120CBC
:101C93008306A003120C836EA003120C830FA1030F
:101CA300120C8351A103120C8391A103120C831C08
:101CB300A303120C838CA403120C83B1A603120C8E
:101CC30083DFA603120C8306A703120C830FA7035B
:101CD300120C836AA703120C83FDA703120C831B48
:101CE300AB03120C839CAB03120C83C4E704120CEA
:101CF30083DAE704120C83E9E704120C83BFB4040C
:101D0300120C83D2B404120C836FB504120C83AB90
:101D1300B504120C83C2B504120C83E7B504120C8C
:101D23008329B604120C835AB604120C8395B604A5
:101D3300120C830FB804120C8350B804120C832DB9
:101D4300E404120C8363E404120C837FE404120C96
:101D530083C1E404120C83D1E404120C83DBE40496
:101D6300120C83F8CD03120C834DCE03120C833473
:101D7300CF03120C8304D003120C8319D003120C6B
:101D83008363D003120C8376D003120C83B7D00382
:101D9300120C83CBD003120C8395D203120C831045
:101DA300D303120C833AD303120C83CBD403120C48
:101DB30083DAD403120C8329D503120C833FD50392
:101DC300120C835FD503120C838ED503120C83A4EC
:101DD300D503120C8332D603120C838CD603120C58
:101DE30083E7D603120C83F1D703120C8373DA0350
:101DF300120C8310DB03120C8352DB03120C83E7F8
:101E0300DB03120C8304DC03120C8307DC03120CC8
:101E13008317DC03120C838ADC03120C83B9DC0303
:101E2300120C83E5DC03120C8320DD03120C832FD9
:101E3300DD03120C8342DD03120C83E4E604120C6F
:101E430083F0E604120C832AE704120C8300800358
:101E5300120C832B8003120C83ED8003120C83720C
:101E63008103120C83DB8103120C83278203120C80
:101E730083A68203120C83388303120C83C8830363
:101E8300120C830C8403120C83558803120C83D524
:101E93008903120C83308A03120C83CB8A03120C3E
:101EA30083648B03120C83928C03120C83358E0391
:101EB300120C83C18E03120C839A8F03120C83C5F9
:101EC3009003120C83779103120C83989103120CE5
:101ED300835A9203120C83619303120C8344940379
:101EE300120C83CB9503120C83039703120C83F913
:101EF300AB03120C83B3AC03120C8325AD03120C9A
:101F03008334AD03120C83AEAD03120C831DAE03F9
:101F1300120C8327AF03120C8350AF03120C83C739
:101F2300AF03120C83FBB003120C83D7B103120C63
:101F33008348B203120C83C5B303120C8387B40323
:101F4300120C83F2B403120C83F6B503120C83DE76
:101F5300B603120C8347B703120C8398B703120C12
:101F63008391B903120C83F4BA03120C8393BB035A
:101F7300120C8350BC03120C83A68D04120C83FA3B
:101F83008D04120C83468E04120C83918E04120C62
:101F930083D18E04120C83218F04120C83C490040A
:101FA300120C83369104120C834E9104120C837528
:101FB3009104120C83E09104120C83E39204120C3B
:101FC3008350D304120C8381D304120C833BD404B7
:101FD300120C83A1D404120C8358FE01120C83DB70
:101FE300E804120C83E2E804120C832AD504120CD1
:101FF3008338D504120C8332E904120C8345E604BA
:10200300120C8355E604120C836AE604120C83D780
:10201300E604120C8373E104120C83F8E104120C3E
:10202300835CE204120C83E2D604120C8304D7040B
:10203300120C836AD704120C838AD704120C83D040
:10204300D704120C832BD804120C8362D804120C0D
:102053008365D804120C83D8B004120C83E6B00451
:10206300120C8360B104120C8344B204120C83FD7E
:10207300B304120C8362B404120C83ACB404120CC8
:1020830083F87F00120C8374D104120C8396D1045D
:10209300120C83C9D204120C834DD304120C83FC9B
:1020A300FC03120C834AFD03120C83E7FD03120C9D
:1020B3008392FE03120C83AAFE03120C8326FF03F2
:1020C300120C833CFF03120C834FFF03120C835D3E
:1020D300FF03120C8360A304120C83B5A304120C38
:1020E30083B1A504120C83E3A504120C8305A60493
:1020F300120C831EA604120C8337A604120C834110
:10210300A704120C83DCA704120C835EDB04120CFD
:102113008382DB04120C839BDB04120C83CEDB046F
:10212300120C83FFDB04120C832DDC04120C8337A7
:10213300DC04120C8399DC04120C83A8DC04120C5B
:1021430083B2DC04120C83BFDC04120C832CBF04A7
:10215300120C8352BF04120C838FBF04120C839E94
:10216300BF04120C83BDBF04120C8325C004120CE0
:10217300832EC004120C838DC004120C83B1C004DF
:10218300120C8370C104120C837DC104120C838E64
:10219300C104120C839FE804120C83BCE804120CE4
:1021A30083799904120C83D79A04120C83E49A045A
:1021B300120C83F79A04120C83169B04120C832CC3
:1021C3009B04120C83409B04120C83B59B04120CDA
:1021D300831A9C04120C83A29C04120C832B9D046F
:1021E300120C83009E04120C83109E04120C831F96
:1021F3009E04120C83ACE504120C83D0E504120C8C
:1022030083F8E504120C8320E604120C83A6C604AB
:10221300120C83CDC604120C83EEC604120C835336
:10222300C704120C830CC904120C8325C904120CB5
:102233008331C904120C8345C904120C8363C90496
:10224300120C836DC904120C8377C904120C838AA0
:10225300C904120C83DDC904120C8316CA04120CC0
:102263008345CA04120C8393CA04120C83E2CA0482
:10227300120C83FDCA04120C8307CB04120C8318BF
:10228300CB04120C835ECB04120C8367E704120C9D
:1022930083B8E704120C83C0F303120C83EAF3033D
:1022A300120C8306F403120C8319F403120C832F0C
:1022B300F403120C838CF403120C83BFF403120C8B
:1022C30083FBF803120C8321FA03120C8354FA03E1
:1022D300120C83A0FA03120C83CCFB03120C83F4BD
:1022E300FB03120C8309FC03120C8319FC03120C6D
:1022F300835DFC03120C83BEFC03120C83CEFC0330
:10230300120C83FDDD04120C8318DE04120C8341CE
:10231300DE04120C835BDE04120C8380DE04120CD9
:10232300839FDE04120C83B7DE04120C83E5DE0404
:10233300120C83FFDE04120C83F3E404120C8337C4
:10234300E504120C835DB804120C8364B804120C08
:102353008370B904120C83A0B904120C83C6B904A8
:10236300120C83E9B904120C830BBA04120C8345D3
:10237300BA04120C83ABBA04120C83E4BA04120C31
:102383008330BB04120C835DBB04120C837DBB043E
:10239300120C8330DF04120C8342DF04120C835AC5
:1023A300E004120C835DE004120C8360E004120C61
:1023B30083D2E004120C8310E104120C8351E10474
:1023C300120C83BED401120C83DDD401120C834B97
:1023D300D501120C83BCD501120C8353D601120C08
:1023E300836FD601120C83F5D601120C83BBD8017F
:1023F300120C8384D901120C836EDB01120C8393BC
:10240300DC01120C8396DD01120C8343DE01120CF6
:10241300830FDF01120C8321E001120C8392E4018C
:10242300120C837AE501120C8310E601120C833F30
:10243300E601120C83E9E601120C83FFE601120C9C
:102443008322E701120C839CE701120C83B2E7019C
:10245300120C83DDE701120C83F1E801120C8357A0
:10246300EA01120C83F7EA01120C833BEB01120C15
:1024730083ADEB01120C8316EC01120C8378EC0193
:10248300120C832EED01120C83A7ED01120C83E3D2
:10249300ED01120C834FEE01120C8374EF01120C49
:1024A30083C7F001120C8369F101120C8398F101C7
:1024B300120C83CAF101120C834BF201120C832418
:1024C300F401120C83D3F501120C83CFF601120C25
:1024D300830EFB01120C83E4FC01120C83CFAC04CA
:1024E300120C8368AD04120C83DFAD04120C834E0F
:1024F300AE04120C8378AE04120C832DAF04120CBD
:10250300835BE804120C83EEFE02120C8387FF0246
:10251300120C83BAFF02120C83DDBB04120C83F985
:10252300BB04120C8348BC04120C8364BC04120C5D
:102533008395BC04120C83A5BC04120C8391BD04C7
:10254300120C839BBD04120C83A8BD04120C83C917
:10255300BE04120C83DDBE04120C83E6BE04120C0F
:1025630083F0BE04120C831BA804120C8360AC041A
:10257300120C8365AC04120C83C07F00120C83130E
:10258300A602120C8365A302120C8339A202120C59
:10259300838DA102120C83DE9F02120C83999D028C
:1025A300120C83209D02120C83C79C02120C835BC6
:1025B3009C02120C83D0B002120C837DAF02120C6A
:1025C30083329C02120C83259A02120C832EAD02D5
:1025D300120C8379AC02120C83F19902120C83BEA4
:1025E3009902120C83A29902120C83C89802120C4E
:1025F30083809802120C83B59602120C83359602DF
:10260300120C83329602120C83399502120C830743
:102613009502120C83449402120C836F9202120CE3
:1026230083009202120C83D29102120C83CF910287
:10263300120C83BC9102120C83549102120C8382FC
:10264300AB02120C834DAB02120C8319AB02120CBA
:1026530083FDAA02120C83A9AA02120C83439102DE
:10266300120C83249002120C83EE8F02120C8361EE
:10267300AA02120C83A08F02120C836B8F02120C1E
:10268300830C8F02120C83DB8E02120C839FA90230
:10269300120C837C6800120C83968B02120C8387C6
:1026A3008A02120C83168A02120C83DB8902120C33
:1026B30083A68902120C839A8902120C83FA880278
:1026C300120C83418802120C83148602120C83A01D
:1026D3008302120C835E8302120C83298202120C82
:1026E30083DE8102120C830D8102120C836480024B
:1026F300120C83008002120C833A8002120C8312A4
:10270300A902120C83CC530000000080FBE4730089
:102713000136360101000102010001030100010439
:1027230001060605020000070100340801000F0935
:102733000401010D0100FF0E08000017020000193B
:102743000100FF1A0100011B0100FE1C0100081D0E
:102753000200001F010001200100012102000023EB
:1027630001000F24020000260100012701000828B0
:102773000200FF2A0100072B0102402C0100002D5B
:102783000100012E0100012F0100FF30010B1C315C
:102793000800003A0100083B01000F2F0100000070
:1027A30000040042013C98000005004201B4980077
:1027B3000006004201D695000007002001479A0059
:1027C3000010004203B20C000012001003BD0C0302
:1027D3000000002103850406000000200187040295
:1027E3000400002901BE0C0204010029011E9A0203
:1027F3000402002901129A050400002901C00C05F6
:102803000401002901389A0504020029012E9A03C4
:10281300027102300160021102700201020202021F
:10282300028002100261023A0041006302730272E5
:102833000262024302000213023800000200020493
:102843000212020002000200020002040204023724
:102853000037003C02440200023900000200026516
:102863000200023502810200020502820283020095
:1028730002010371030103010301030103010322A5
:10288300030203010310030003000300030003001A
:1028930003000300034203000324030603000300B1
:1028A300030403120325032303250323030403045F
:1028B3000300030003000344030003000323030096
:1028C30003650321003503810300030503000300AF
:1028D3000300030101710101010101110101013132
:1028E30001010101018001100161013B001400633A
:1028F3000173017201620143010001130106013DED
:10290300013500040112010001000100010001046E
:10291300010401330133013C01440132013600005B
:1029230001000165010001350081010001050182FB
:102933000183010001030071003001600011007088
:1029430000310220035004800010006100000014D5
:10295300006300730072006200430000001300066E
:10296300000000000004001200000000000000004E
:102973000004000400370037003C0244000000005C
:102983000000000000650000003500810000000524
:10299300000000830000000000040042016698006C
:1029A3000005004201B19700000600420154960061
:1029B3000007002001419A000010004203280D0087
:1029C3000012001003330D0300000021038B0406E3
:1029D30000000020018D04070000003001469A0723
:1029E3000010003001340D00000000000000000062
:1029F30000000000000000000004004201A2980053
:102A03000005004201C697000006004201819600BE
:102A13000007002001409A000010004203410D000E
:102A230000120010034C0D0300000021038E040666
:102A3300000000200190040700000030013F9A07C6
:102A430000100030014D0D000000000000000000E8
:102A530000000000000000000004004201CC9800C8
:102A63000005004201D096000006004201CD95000A
:102A73000007002001459A000010004203920D0058
:102A830000120010039E0D0200000009019F0D03B8
:102A930000000021039504060000002001970402B2
:102AA30004000029019F0D0204010029013C9A0240
:102AB30004020029013A9A000004004201C698006A
:102AC3000005004201D298000006004201B79600BB
:102AD30000070020013E9A0000100042035A0D0037
:102AE3000012001003650D0300000021039104068A
:102AF300000000200193040000000000000000001B
:102B03000000000000000036000100060000000F76
:102B13000000000000000000000000000003FFFFB1
:102B230000000403FFFF0000FFFF0FF4010005C4D2
:102B3300040320000100000B00000000000000005F
:102B430003010F8F24B9249524D7249B24BF249BEE
:102B530024CB24A124D7249B24BF240000000000FD
:102B6300000000000000000000000000000000A7BB
:102B730024D724AD24D124B324D72401001F1F025A
:102B830000651E03006B1E0400711E0500771E0600
:102B930000831E3000951E3300A11E3400A71EFFC4
:102BA300FF0000451475144B1451146F1463145D26
:102BB300147B1481148714931457143F143914038A
:102BC300EAF5E5D5D5C5B5A595958585757565658D
:102BD30055554545353525251515050AF31102BD0E
:102BE3001105CF1107C3110C9F110DB111FF000087
:102BF30000160F00000B150B020002220F3200001B
:102C030006351547154D150F14531509141514A141
:102C130015BF15C515A715B315AD15000119161860
:102C230016161523030000034948424D18172505BE
:102C330002303016181920231A1C1E3000383C3E6F
:102C4300363B3B352B432C303017181921301B1DD5
:102C53001F300C0E020B040B0A0708000F69148DBA
:102C630014B91599149F14891559155F156B1565BA
:102C73001502040201010101090200000000000025
:102C830000BE040AE8030E0015002800040C0A0322
:102C9300090CFF1E1E050408100F0874F71207E83D
:102CA30074E3120D4FE9FE8518828519837401F0D0
:102CB300120F9A7404F07402120F9AE4F074031260
:102CC3000F9A7440126D9A740A120F9A126D9874C7
:102CD30012120F9A126D987405120F9A7406F074FB
:102CE30016120F9A7401F0741B120F9A7443F0A317
:102CF3007419F0EE900498F090049B740D126A63BB
:102D0300AA82AB8379001220B7741D800274041267
:102D13000D047F01020AA274F61207E874FF120D74
:102D23004FE9FE022DC0E0640D6003022DC07F0059
:102D330080010F8F08749B123E71740412358D64E9
:102D43000D70EF7C027D007AF47B99790012194FA4
:102D5300AC087D007A9B7B04790012194FEF900435
:102D63009AF090049974028053851882851983E040
:102D7300645460EEE0647460E9E06441607FE064A1
:102D830061607A8033851882851983E06408600561
:102D9300E0647F700990049AE0606214801EE0642E
:102DA3000D90049A705E122E59740DF090049AE4FB
:102DB300F07A9B7B041219C1900499E4F0122E4E11
:102DC3007003022E497C017D00851882851983AA30
:102DD30082AB83EEF91220BD900499E0600C14607D
:102DE300881460A124FE60C480D38518828519836A
:102DF300E064416008E064616003022D2990049956
:102E0300740180B8E0C3947F5019851882851983B3
:102E1300E0C0E090049A122E59D0E0F090049AE0BA
:102E2300048099900499E4F090049AF0122E4E6075
:102E33008C7C017D00851882851983AA82AB83EE81
:102E4300F91220BD80E6740102306DEEF91220CF35
:102E53008B09EA450922E0F8749B28F58274041271
:102E630037CC2274F71207E874F3120D4FE9FE7A98
:102E7300008A82A8827900748228F58274941235BC
:102E83008DC0E0851882851983E58228124D96D07E
:102E9300E0F00AEAC3940D40D8EE123151EEC45467
:102EA3000F5004243080022437C0E07408120F9AB4
:102EB300D0E0F0740F5EC3940A740F5E50042430A4
:102EC30080022437C0E07409120F9AD0E0F07C0D21
:102ED3007D00851882851983AA82AB8312194F74EA
:102EE3000D022D1274F21207E8890A8A088B09EC85
:102EF300FEEDFF7A007B00EE4F6033C3EE9480EF6C
:102F03009400502A8014E5082AF508E5093BF509E1
:102F1300C3EE9AFEEF9BFF1220C9EEFCEFFDAA0859
:102F2300AB09A90A1220C3C3EA9EEB9F40D802371C
:102F33004C74F41207E87A017B05121CD3EAFCEB0C
:102F4300FD7A017B05121CE5750800E50875F003A1
:102F5300A4F8A9F0743E28F5827488125E972401C0
:102F6300FEE43405FFEEFAEFFB121CD38A0A8B0B47
:102F7300AC0AAD0BEEFAEFFB121CE50508E508C33E
:102F8300943940C702558F74F61207E8E9FA7800BE
:102F930088081230616A70047901800908E8C394D3
:102FA3000540ED790002307074F41207E8E9FE8AF7
:102FB300088B09E4F50AF50B780A120CD7122FF1E6
:102FC300120D04E9600574096970207808120CD7A2
:102FD3007508017509007808120CD78E08AC087DB6
:102FE300007A017B0512432A120D0402558F7C05DA
:102FF3007D007A017B05121CCD74022274F4120742
:10300300E8E9FE8A088B09E4F50AF50B780A120C45
:10301300D7122FF1120D04E9600574096970207845
:1030230008120CD77508017509007808120CD78EA1
:1030330008AC087D007A017B05124345120D04029A
:10304300558F74F61207E8E9F879008908123061A0
:1030530068600909E9C3940540F179FF800F74257D
:10306300123E7174991237CCE022120D047F0202D2
:103073000AA274F71207E8780079001230E91231D6
:1030830052E0540F5004243080022437C0E0123041
:10309300D0240FF582EF124D9AD0E0F01230E912EE
:1030A3003151E0C4540F5004243080022437C0E06F
:1030B3001230D0240EF582EF124D9AD0E0F0123583
:1030C3007CC3E8940812343040B1022D15E8FEE9C0
:1030D300FFEE33FEEF33FFC3E49EFEE49FFFEC2ECF
:1030E300FEED3FFFEE22EA124489E02274F7120755
:1030F300E8EBF8123152E8540F50042430800224D4
:10310300378C828D83A3F0E8C4540F940AE8C45427
:103113000F50042430800224378C828D83F0EA54CC
:103123000F940AEA540F5004243080022437A3A3D7
:10313300A3F0EAC4540F940AEAC4540F5004243091
:10314300800224378C828D83A3A3F0022D15C454EF
:103153000FC3940A22C082C083740F59C3940A74A4
:103163000F5950042430800224378A828B83A3F0C2
:10317300E9C4540F940AE9C4540F50042430800264
:1031830024378A828B83F0023311E9F874D028C381
:10319300940A500674D028F9801C749F28C394069F
:1031A300500474A980F074BF28C39406500674C9F0
:1031B30028F9800279FF020C8074F51207E8EAFE11
:1031C300EBFF750A008E828F83A3E060378E828FB8
:1031D30083A3858208858309F88E828F831232A3A5
:1031E300F50A850882850983E0C3940240168E821E
:1031F3008F83A3E0F88E828F831232CD12320EC4F6
:1032030054F0420AA90A7F03020AA224FE1232AC36
:103213002274F41207E88A088B097E007F008A82F1
:103223008B83A3E060738A828B83A385820A858361
:103233000BF88A828B831232A3FE850A82850B8365
:10324300E0C3940240171232BA12320EF50A8F0B02
:103253007404780A120E92E50A4EFEAF0B850882BB
:10326300850983A3E0C39403400A1232BA24FD12F2
:1032730032104FFF850882850983A3E0C39404407D
:10328300181232BA24FC123210F508750900740CB6
:103293007808120E92E5094FFFEEFAEFFB02558F05
:1032A3001232CD24FF1232AC22F582E934FFF583CA
:1032B300E0F9121985E922850882850983A3E0F8DC
:1032C3008508828509831232CD22A3A3E028F8A3BF
:1032D300E03400F9E822C082C0837D008024EDF849
:1032E3008A828B83A3A3E028FC123318249FC39400
:1032F3001A500E8A828B83A3A3E02812331824E08A
:10330300F00D8A828B83A3E0F8EDC39840D0D0837D
:10331300D082020C80A3E034008C82F583E0227417
:10332300F61207E8E9FC7D0180398D081235A9FF03
:10333300EDFE8E08EA2508F8EB3400F9E824FFF5E2
:1033430082E934FFF583E0F8EFC398500EEA2508CD
:10335300F8E088828983F01EEE70D78E081237C397
:10336300EFF00DEDC39C40C202307074ED1207E81C
:103373008A0C8B0D8C108D11E9131313541FF50F49
:10338300600DF879008C828D83E412687070FA7591
:1033930012008029850C82850D83A3E024FE1A1A6E
:1033A300E434FFFBEEC33318E433F9EA98F8EB99FE
:1033B300123439C454F012358548F00512E512C3AE
:1033C300950F5064E512C333F8E433F9850C828515
:1033D3000D83A3E0FAE89AE99400C365D03350481B
:1033E300851282AE82EEC333F508E433F509850C0A
:1033F30082850D83A385820A85830B124441950838
:10340300F8E9950912343912358548F0E5082401A5
:10341300F8E5093400F9850A82850B83E0FAE89A16
:1034230012343050030233977F0B020AA2E994004F
:10343300A2D265D03322F9850C82850D8312356EB5
:10344300F9121985E922C082C083E9FC7901E97583
:10345300F003A4FAABF0743E2AF58274883BF5833B
:10346300E06C600909E9C3941340E3790002331166
:1034730074F61207E88A828B83A3E4F080010912B1
:10348300350C60FAE060F7249FC3941A4010E024DF
:10349300BFC3941A4008E024D0C3940A50088A8218
:1034A3008B83E4F08014E0640D7008E08A828B83E0
:1034B300F08053E08A828B83F00912350C60FAE0C6
:1034C30060F7123E6EED12358D249FC3941A40109F
:1034D300E024BFC3941A4008E024D0C3940A5026C2
:1034E3008A828B83A3E07013EC2508FEED3400FF82
:1034F3008A828B83A3A3EEF0A3EFF08A828B83A34C
:10350300E004F00980BC023070123E6EED1237CC3D
:10351300E064202274F71207E87800790080031230
:10352300357C8A828B83A3E0FEC3E89E1234308A03
:10353300828B83A35025A3E028FEA3E0398E82F576
:1035430083E0FEEC28F582ED125E976E60D1E0FC1D
:103553008A828B8312356EC39C800CE0F8EC28F5CD
:1035630082ED12358DF404F9022D15A3A3E028FA98
:10357300A3E0398A82F583E022E8240108E93400D4
:10358300F922F8E5102EF582E5111237CCE022740A
:10359300F61207E8790089081235A960060974FF55
:1035A3006970F30230701235AD22EA2508F582EB1B
:1035B3003400F583E02274F21207E874FC120D4F15
:1035C300EAFEEBFF7C017D007A2A7B9A79001219CF
:1035D3004F78007900800312357CEE28F582EF12D4
:1035E3005E97640D70F1E8FC7D00EEFAEFFB790065
:1035F30012194FEEFCEFFD7900126862F50A851887
:1036030082851983AA82AB8312199785188285193B
:1036130083E0640D70107C077D007ACD7B97790081
:1036230012194F023747E0705A7C287D9A1242FFE5
:10363300700CEEFAEFFBA90A1219D90237477C2660
:103643007D9A1242F970117C137D007A8C7B921261
:1036530037511219DF0237477402120F9A126A4761
:10366300E0645370197C137D007AAD7B917900126D
:10367300194FEEFAEFFB7901121A03023747791259
:10368300023744642B600302372175080075090073
:10369300E50875F006A4F8AAF075F006E509A42A72
:1036A300F9127095FCA3E0FD1242F9704B7C027D88
:1036B300007AFD7B99790012194FE50875F006A48D
:1036C300F8AAF075F006E509A42AF9740028F8743D
:1036D3008039F9880C890D8882F583A3A3A3A312EB
:1036E3003ADEEEFAEFFBA90A850C82850D83A3A3CC
:1036F300126A47122710800B123E769436E509941E
:1037030000408D743665087002E50970377C437D8F
:103713009A1242F970047922802779218023E06488
:1037230026701C7C187D9A1242FF60030236817C4E
:103733002C7D007A867B8B1237511219E58005792F
:10374300111219497404120D047F06020AA27900AA
:1037530012194FEEFAEFFBA90A2274F41207E87567
:103763000A008002050A850A081237C3A3E0601E17
:103773001237E2120E921237D160E9E07004791227
:10378300803B640D7004792580337911802F1235C5
:10379300A9640D702675090074027808120E92123E
:1037A30037D6640D600479268013850A82858208E2
:1037B3001237E2120E921237D170C0790002558F80
:1037C300EA123E71EB1237CC223400F58322123712
:1037D300D66922EC2508F582ED3509F583E02275DB
:1037E30009001235ADF9740278082274F41207E85F
:1037F30074E0120D4FE9FE8A088B097F00AC08AD17
:1038030009EEF98F0A750B007402780A120E92748E
:103813000C120F9A123C6B12686CFE0FEFC39405E7
:1038230040DB740C120F9AAC82AD837A9C7B9812A6
:1038330058A6600302395F7410120F9A1263627400
:1038430014120F9A123A1A120F9A126A2974091251
:103853000F9AEFF0E50870097408120F9A7402804A
:10386300077408120F9A7401F0740D120F9AE07026
:103873000512128F800C740C120F9AAA82AB83125A
:103883001991126A577419120F9AE07036E4F50809
:10389300F5097808120CD77808120CD77508017847
:1038A30008120CDBE4F5087808120CD77808120C20
:1038B300DB7808120CDB7508017808120CDB75083D
:1038C30002806BE5097036E4F508F5097808120CF7
:1038D300D77808120CD77508017808120CDBE4F5C9
:1038E300087808120CD77808120CDB7808120CDB66
:1038F3007508017808120CDB7508008031E4F508BF
:10390300F5097808120CD77808120CD775080178D6
:1039130008120CDBE4F5087808120CD77808120CAF
:10392300DB7808120CDB7508017808120CDB7808C9
:10393300120CDB7C067D00740B120F9AAA82AB83F8
:1039430079CB1223E7740B120D04E9700F7C077D0A
:10395300007ACD7B97790012194F8003121949021F
:10396300558A74F41207E874E0120D4F890AEAFECF
:10397300EBFF750B00EEFCEFFDA90A850B0875093B
:103983000074027808120E92740C120F9A124E757C
:1039930012686CF50A050BE50BC3940540D7740C4C
:1039A300120F9AAC82AD837A9C7B981258A660055D
:1039B300121949805F7410120F9A12636274141201
:1039C3000F9A123A1A120F9A126A1E7419120F9A48
:1039D300E070047E028005EE60027E017409120F1E
:1039E3009AEFF0740C120F9A126A50E5087009747A
:1039F30008120F9A740280077408120F9A7401F068
:103A030074C96F700FEEF9851882851983AA82AB8A
:103A13008312173902558A125A33F508741822741F
:103A2300F41207E874E9120D4FEAFCEBFD7402127D
:103A33000F9AAA82AB831219AF7402120F9AAC8247
:103A4300AD837A147B9A1258A66006121949023A7A
:103A5300D97406120F9AAE82AF83121289EEFCEF6D
:103A6300FD121973851882851983AA82AB8390038B
:103A730054E0F912197F750A0F750B9A7C027D00C9
:103A8300AA0AAB0B790012194F7C147D007A027BD2
:103A9300921270B57C0A7D007A4B7B951270B590BB
:103AA3000DAD123ADE7C027D007AFD7B997900121E
:103AB300194F7C077D007ABF7B97790012194F7CE1
:103AC300107D007406120F9AAA82AB83123C82AA5D
:103AD3000AAB0B124912741702558CE0FAA3E0FBF0
:103AE3001218FB2274F71207E874FC120D4F1250E0
:103AF300FB6005121949801D7C077D007ACD7B97F9
:103B0300790012194F7C327D007A007B2090049853
:103B1300E0F9121D15022D1074F71207E874FC1258
:103B23000D4F1250FB702E1219557A0379FF121F95
:103B3300D3E9701F7C077D007ACD7B97790012193A
:103B43004F7CC87D007A007B20900498E0F9121D19
:103B53001580057900121949022D1074F41207E833
:103B630074F1120D4F8909EAFEEBFF750800EEFCB4
:103B7300EFFDA90985080A750B007402780A120E75
:103B8300927403120F9A123C6B12686CF5090508C4
:103B9300E508C3940340D77403120F9AAC82AD8334
:103BA3007A6F7B991258A66006121949023C5D741C
:103BB30003120F9A124E5A7407120F9A125A2FF5C4
:103BC30008851882851983E060447401F0123C6211
:103BD3006022A9081216FDE97003123C8C7C027D59
:103BE300007A0F7B9A790012194F7C087D007A5D69
:103BF3007B96803F7C027D007A0F7B9A79001219B5
:103C03004F7C097D007AB97B95123C7A8047123C40
:103C13006260E1A9081216F7E97003123C8C7C027A
:103C23007D007A0F7B9A790012194F7C097D007A07
:103C3300A57B95790012194F7401120F9AAA82ABD2
:103C430083A908124DA87401120F9AAA82AB83129A
:103C53003C7A12491B790012194F740F02558C12CA
:103C630017038B0BEA450B22123C6F22E582250AD0
:103C7300FAE583350BFB22123C827A0F7B9A227979
:103C83000012194F7C027D0022AA0885188285192B
:103C930083E0F9121769851882851983AE82AF8391
:103CA300A90812196DEEFAEFFB1219612274F412CE
:103CB30007E874EC120D4F890AEAFEEBFF750B005F
:103CC300EEFCEFFDA90A850B08750900740278085C
:103CD300120E927404120F9A1250AC40E374041241
:103CE3000F9AAC82AD837A1B7B991258A66005129A
:103CF300194980707408120F9A126A1E740C120FFD
:103D03009A125A2FF8EE60027E0185188285198374
:103D1300E4F07402120F9AEEF07403120F9AE8F0B3
:103D23007405120F9AE0600E7404120F9AAA82AB04
:103D330083121991800312128F8518828519838546
:103D430082088583097808120CD779047C01123F15
:103D53000B120D04E970987C077D007ACD7B97796F
:103D63000012194F741402558C74F21207E874F997
:103D7300120D4FEAFCEBFD7403120F9AAA82AB8378
:103D83001219AF7403120F9AAC82AD837A147B9A23
:103D93001258A66006121949023E69121649E9141F
:103DA300F50AFA7B00121C558A088B09AE08AF0985
:103DB300EE4F700579061219497901EEFAEFFB12FD
:103DC300164FA90AEEFAEFFB12199D7C027D007AC9
:103DD3000F7B9A790012194F750A00750B0075084D
:103DE30000750900123E7D7A837B99790012194F81
:103DF3007425123E7174993509F583E0F50D851824
:103E030082851983AA82AB83124DA78518828519EF
:103E130083AA82AB83790012194FEE250AF582EF4C
:103E2300350BF583E0650D701B7C087D007A427BC2
:103E330096790012194FE50A2401F50AE50B3400BF
:103E4300F50B800D7C097D007A9B7B957900121917
:103E53004F123E769405E5099400408812490AEE14
:103E6300FAEFFB121C5B74070237498908EC25083B
:103E7300F58222125E61C3E508227C027D007AFD91
:103E83007B99790012194F7C037D002274F4120789
:103E9300E874F6120D4F890AEAFEEBFF750B00EE8C
:103EA300FCEFFDA90A850B08750900740278081256
:103EB3000E927402120F9A1248A540E37402120F75
:103EC3009A12589E600512194980388518828519FF
:103ED30083E412499F120CD77402C0E07404120FDA
:103EE3009AAA82AB83121991D0E0F97C00123F0B9E
:103EF300120D04E970D07C077D007ACD7B977900A1
:103F030012194F740A02558C7D0012166D74022229
:103F130074EE1207E874E2120D4F8A0A8B0BAC0A97
:103F2300AD0B741A120F9A126868F50E741A120FF9
:103F33009AE060030242EF126A291219A9E9FE12FC
:103F4300436BA2E77508004003024180AC0AAD0B46
:103F5300A90E85080C750D007402780C120E92746C
:103F63000E120F9A124308940340E1790C1219A917
:103F7300E9F508E4F50AF50B780A120CD7E91243C0
:103F830083FC7D007A0D7B04122FF9120D04E9FFE7
:103F9300600874096F60030240D9740E120F9AE02F
:103FA300643FAC82AD83700C7A937B991258A66000
:103FB3000F0242F17A977B991258A660030242F1ED
:103FC300E508124383FF8F8285820A2401FAE434D1
:103FD30000125A0F250AF582EB124D9AE4F0780C81
:103FE300120CD7780A120CD77C007D007A0D7B0463
:103FF300124345120D04E960030242F1AC0CAD0D0E
:104003007412120F9A1242FFAA0CAB0D6003024105
:1040130078121C5BE4F50A780A120CD712440312D7
:104023000D04E960030242F1740E120F9AE0643F3B
:10403300705812437D400579010242F11243A312E5
:104043000CD7780A120CD712433A120D04E9600315
:1040530002416B7C027D007A0F7B9A790012194F23
:1040630075080080031244B81243E240F87C027DD5
:10407300007A0F7B9A790012194F7C077D007ACD65
:104083007B97790012194F02416E12436450A87452
:104093000C650970467410120F9A120B2B1243F41D
:1040A300125B80120CD77C007D007A0D7B041243D7
:1040B3002A120D04E9FF701EEE124383F8740F12E7
:1040C3000F9AE06870107C077D007ACD7B977900AA
:1040D30012194F0242F4EFF90242F112444C8006E6
:1040E300124491F005081243C25028740F120F9A1C
:1040F3001243ED50EB850882AA82740F120F9A12B5
:1041030043B17410120F9A124397C0E0124472D055
:10411300E080D07403120F9A7402F0750800801DBA
:1041230012434B120F9AE8F0A3E9F07402120F9AAC
:10413300125A2FC0E012441BD0E0F00508EE75F0D0
:1041430003A4F8EAF91243EA40D6AA0AAB0B121CFD
:104153005B7810120CD7125EA5120CD712431C12F7
:104163000D04E9700302407D121949AA10AB111224
:104173001C5B0242F4121C5B79050242F1AC0AADEE
:104183000BA90E85080C750D007402780C120E92A3
:104193007406120F9A124308940240E1E4F50AF5FB
:1041A3000B780A120CD7124403120D04E9FF6008BE
:1041B30074096F60030240D97406120F9AE0643FDA
:1041C300707512437D400302403A7406120F9AAC95
:1041D30082AD837A097B9A1258A660030242F1EEFC
:1041E30075F003A4F8A9F01243A3120CD7780A12AE
:1041F3000CD712433A120D04E970367C027D007A23
:104203000F7B9A790012194F75080080031244B886
:104213001243E240F87C027D007A0F7B9A79001208
:10422300194F7C077D007ACD7B97790012194F8057
:104233000312194902416E124364400302403A7467
:1042430006120F9AAC82AD837A037B9A1258A6604A
:10425300030242F1EE75F003A4F8A9F012444C8076
:1042630006124491F005081243C250287407120F36
:104273009A1243ED50EB850882AA827407120F9AB3
:104283001243B17408120F9A124397C0E01244729A
:10429300D0E080D07403120F9A7402F07508008086
:1042A3001D12434B120F9AE8F0A3E9F07402120FA8
:1042B3009A125A2FC0E012441BD0E0F00508EE75A5
:1042C300F003A4F8EAF91243EA40D6AA0AAB0B12A8
:1042D3001C5B7810120CD7125EA5120CD712431C6C
:1042E300120D04E9700302422502423479211219A6
:1042F30049741E024D7E851882851983AA82AB8379
:104303001219B5E922E582250CFAE583350D12650C
:1043130047F50E0508E508C3227C007D00850908E2
:1043230012433012432A22121CD9740422E50824B2
:1043330001FAE43404FB227C007D00124330124373
:104343004522121CDF74042285088285820CE50C49
:10435300C333F8E433F9E50A28F8E50B39F97404B3
:104363002212436AA2E022EE75F003A4F8A9F074C6
:104373003D28F5827488125E972212436AA2E122D5
:104383001243872275F003A4F8A9F0124392221274
:1043930043F8E022E028FCA3E0398C82F583E02295
:1043A30012438EF50AFAAB0B12446A781022E0240A
:1043B300FF18E434FFF9E8C39AF8E99400F9228579
:1043C300080CEE75F003A4F8AAF0EAF912438EC3C1
:1043D30033F8E433F9E50C98E499C365D03322EE5E
:1043E30075F003A4F8A9F01243F4E0F8E508C398C4
:1043F300221243F822743C28F582748839F583220B
:10440300EE124387FC7D0085090885080AE50A1238
:104413004332121CCD740222EE75F003A4F8AAF005
:10442300EAF91243F4124441950C12443122F8E99B
:104433009400F9E51028F582E51139F58322E0248B
:10444300FFF8E434FFF9E8C32212438EF508FA7B40
:104453000012446AE508C333FAE433FB121C558A9D
:104463000A8B0B75080022121C558A108B1122EE41
:1044730075F003A4F8A9F01244A49A12448222F816
:10448300E99400F9E50A28F582EB39F58322EE7504
:10449300F003A4F8EAF91244A4950C124482743090
:1044A30022124392C333F8E433F9E824FF18E934C2
:1044B300FFF9E8C322851882851983AA82AB83EEAC
:1044C30075F003A4F812438E24FFF8E434FFF98552
:1044D300080AE8C3950A124431124DA28518828551
:1044E3001983AA82AB83790012194F05082274F449
:1044F3001207E874F8120D4F890AEAFEEBFF750BF9
:1045030000EEFCEFFDA90A850B087509007402781B
:1045130008120E9212489F40E8125898600512192B
:104523004980297401120F9AE070047A08800B12F3
:104533005A2960047A0180027A00790112205D7C95
:10454300077D007ACD7B97790012194F74080255C5
:104553008C74F41207E874EB120D4F890AEAFEEB30
:10456300FF750B00EEFCEFFDA90A850B087509002A
:1045730074027808120E927409120F9A12570640A9
:10458300E37409120F9AAC82AD837A6F7B99125848
:10459300A66005121949803912128F125647120F5D
:1045A3009A7402F0909977120B277D007C007903AF
:1045B3007404120F9AAA82AB83121F4F7404120D54
:1045C30004E970CF7C077D007ACD7B9779001219BF
:1045D3004F0257017F05020AA274F71207E874FC21
:1045E300120D4F1250FB70027903121949022D105C
:1045F30074F71207E874F5120D4FEAFCEBFD74072C
:10460300120F9AAA82AB831219AF7407120F9AACD6
:1046130082AD837A147B9A1258A6600512194980D9
:1046230060909977120F6F851882851983120F6333
:104633007404120F9A7405F0120F9A7401F0740641
:10464300120F9A7401F07A897B187902121E35854C
:104653001882851983AA82AB83121073E9701C7CBC
:10466300077D007ACD7B97790012194F7C167D0068
:104673007A807B91790012194F8006121949121022
:1046830079740B022D1274F41207E874E8120D4FBB
:104693001250FB60061219490247A67C027D007A7C
:1046A3000F7B9A1247BC7A247B9A790012194F9098
:1046B30005A5E05407600814600F14601680217C80
:1046C300037D007AAB7B9980127C067D007A877B21
:1046D3009780087C037D007AB37B99790012194F88
:1046E3007C017D007A2C7B9A790012194F74041295
:1046F3000F9AAA82AB83900359124D9E7404120F32
:104703009A1247AB9005B2E0F50AA3E0F50B740CDF
:10471300780A120F29E50A600E24FC601424FC6059
:104723001A24FC6020802B7C087D007A277B9680EE
:104733001C7C037D007ABF7B9980127C037D007A09
:10474300C37B9980087C047D007AE97B9879001209
:10475300194F7C017D007A2C7B9A790012194F74D2
:1047630004120F9AAC82AD83900364E0FAA3E0FBDA
:104773001219797C047D00EC120F9A1247AB740472
:10478300120F9AAC82AD837A787B031219737C1073
:104793007D007404120F9AAA82AB83790012194F19
:1047A30012490A741802558C1247B87A2C7B9A79ED
:1047B3000012194F22AA82AB83790012194F7C0190
:1047C3007D002274F41207E874F4120D4F8908EA8D
:1047D300FEEBFF750900EEFCEFFDA90885090A75DC
:1047E3000B007402780A120E92124F3C40E88518AF
:1047F30082851983AC82AD837A6F7B991258A67038
:104803003B851882851983124E52E4F50AF50B781D
:104813000A120CD77406120F9A125893FAEFFB126E
:104823002FF9120D04E96005740969700F7C077D87
:10483300007ACD7B97790012194F800312194974BE
:104843000C02558C74F41207E874F8120D4F890AA0
:10485300EAFEEBFF750B00EEFCEFFDA90A850B08E2
:1048630075090074027808120E9212489F40E812EC
:1048730058987022851882851983AA82AB831219EE
:104883008B122561E9700F7C077D007ACD7B9779C8
:104893000012194F800312194902454F851882856A
:1048A300198312570C94022274F41207E874FB1252
:1048B3000D4FEAFCEBFD7401120F9AAA82AB83122F
:1048C3005A3CAA82AB8379E5122219E970317C0242
:1048D3007D007A0F7B9A790012194F85188285190A
:1048E30083E0F50A3395E0F50B780A120CD77A15B5
:1048F3007B961218FB7402120D0412490A800312EC
:104903001949740502558C7C027D007A0F7B9A123B
:10491300491B790012194F22790012194F7C077D28
:10492300007ACD7B972274F41207E874F6120D4FC8
:10493300890AEAFEEBFF750B00EEFCEFFDA90A8581
:104943000B0875090074027808120E927402120F94
:104953009A1248A540E37402120F9A12589E7036B9
:104963007402120F9AAA82AB831219918518828559
:104973001983740112499F120CD779027C06123FE6
:104983000B120D04E9700F7C077D007ACD7B9779BC
:104993000012194F8003121949023F06F08582085D
:1049A30085830978082274F01207E874E4120D4F26
:1049B300890CEAFEEBFF750A00EEFCEFFDA90C85FE
:1049C3000A0875090074027808120E92740C120F0B
:1049D3009A124E6540E3740C120F9AAC82AD837A3F
:1049E3001B7B991258A66003024A9F740C120F9AFC
:1049F300AA82AB831219918A088B097410120F9A39
:104A0300124D867414120F9AAA82AB831219918ADB
:104A13000E8B0FAE0EAF0F8518828519837402F0CB
:104A230014120F9A7401F004120F9AE50AF0A3E529
:104A33000BF07404120F9AEEF0A3EF126A638582EF
:104A43000E85830F780E120CD779067C067D00AA9B
:104A530008AB09123F0D120D04E970407406120FE2
:104A63009AE508F0A3E509F07408120F9AE50AF035
:104A7300A3E50BF0740A120F9AEEF0A3EFF074069D
:104A8300120F9AAA82AB83121709E9700F7C077D74
:104A9300007ACD7B97790012194F8003121949745C
:104AA3001C120D047F08020AA274F71207E874FCB3
:104AB300120D4F1250FB6005121949801012171581
:104AC3007C077D007ACD7B97790012194F022D1058
:104AD30074EE1207E874E8120D4F890AEAFEEBFF41
:104AE300750B00EEFCEFFDA90A850B087509007430
:104AF300027808120E928518828519831257064090
:104B0300E2851882851983E0643A600579111219E8
:104B1300497404120F9AE0642C703F7408120F9AC0
:104B2300E0647C70487404120F9A126362740A1270
:104B33000F9A1270CE7408120F9AAA82AB831219BD
:104B430097850882850983E064417006A3E0645475
:104B5300601F7921121949024C8AE0647C700E7F30
:104B6300007406120F9A1270CE740480CA791180F1
:104B7300E3E5082402F508E5093400F5097E008E13
:104B83000B850B0CE508250CF582E50912358D64C0
:104B93000D600A0E050BE50BC3948040E4E50BC3DF
:104BA300948050AE0E7415120F9A74CCF0EF700906
:104BB3007414120F9A740280077414120F9A7401FA
:104BC300F07401120F9AE0700512128F800D851890
:104BD30082851983AA82AB83121991740C120F9ADE
:104BE300126A5DEE2402FAE43400FB12446AEA45D9
:104BF3001170057906024B578A828B83E4F0EEA38A
:104C0300F085080C85090D750E00780C120CD3EE97
:104C1300FC7D00EA24020A0AEB3400FB12635C12F7
:104C23000D0475081E7808120CDB750861750904FC
:104C33007808120CD77810120CD7EE2402F508E48A
:104C43003400F5097808120CD77508047509007843
:104C530008120CD779207C5B7D047415120F9AAA75
:104C630082AB8312162B7409120D04E9700F7C07B3
:104C73007D007ACD7B97790012194F800312194971
:104C8300AA10AB11121C5B7418024D7E74EE12074E
:104C9300E874EE120D4F8908EAFEEBFF750900EE8A
:104CA300FCEFFDA90885090A750B007402780A1246
:104CB3000E927402120F9A126F6840E37402120F7D
:104CC3009AAC82AD837A1B7B991258A6600612199F
:104CD30049024D7C7402120F9A124D867406120F0C
:104CE3009AAA82AB831219918A0C8B0DAE0CAF0D6D
:104CF300740A120F9AAA82AB831219918A0E8B0F30
:104D0300121BD18A0C8B0D780C120CD7780E120C57
:104D1300D7EEFCEFFDAA0AAB0B124345120D04E9D3
:104D2300704D7C027D007A0F7B9A790012194F7EB9
:104D330000802B851882851983AA82AB83E50C2515
:104D43000AF582E50D124D9A124D9E85188285193A
:104D5300831247B87A207B9A790012194F0E8E0A74
:104D6300C3E50A950EE4950F40C912490A80031260
:104D73001949AA0CAB0D121BD77412120D047F0A2A
:104D8300020AA2124D8A22AA82AB831219918A0ABD
:104D93008B0B22F582E5831237CC22124DA222E03F
:104DA300124DA722F912197F7C027D002274F3129F
:104DB30007E874EF120D4F890CEAFEEBFF750A004A
:104DC300EEFCEFFDA90C850A08750900740278084A
:104DD300120E9204120F9A124E6540E47401120FE0
:104DE3009AAC82AD837A1B7B991258A670567401D4
:104DF300120F9AAA82AB831219918A088B09740540
:104E0300120F9A124E527409120F9A124E5A858239
:104E13000A85830B780A120CD7750A01750B007883
:104E23000A120CD7EEFCEFFDAA08AB0912432A12B3
:104E33000D04E9700F7C077D007ACD7B9779001212
:104E4300194F80031219497411120D040245D71228
:104E53004D8AAE0AAF0B22125A3385188285198305
:104E6300F022124E75126548F50C050AE50AC39443
:104E73000422124E7922E5822508FAE5833509FBDF
:104E83002274F41207E874EC120D4F8908EAFEEB62
:104E9300FF750900EEFCEFFDA90885090A750B00F3
:104EA3007402780A120E92124F3C40E87940740C57
:104EB300120F9AAC82AD83851882851983AA82ABBF
:104EC300831219A37401120F9AE0701E125898608E
:104ED3000512194980607900E9C0E012128F7D0044
:104EE3007C00D0E0F9121F0780397404120F9A1264
:104EF300500570187A6F7B991258A670D4740412F7
:104F03000F9A125A2FFCE4FD7901800B1258A270FC
:104F1300C07D007C007900740C120F9AAA82AB83C7
:104F2300121F01E960031219497C077D007ACD7BCA
:104F330097790012194F023D6785188285198312EC
:104F43006A3394032274F41207E874F0120D4F8944
:104F530008EAFEEBFF750900EEFCEFFDA9088509E1
:104F63000A750B007402780A120E92126F6240E8FF
:104F73007404120F9AE0640D7014125898600512AD
:104F8300194980797900E9C0E012128F80527408C0
:104F9300120F9A125005702D7A1B7B991258A67026
:104FA300DE7408120F9A125A2F7901C9C0E0E9FF83
:104FB300E4FE851882851983AA82AB83121991EEC8
:104FC300FDEFFC801F7A6F7B991258A670B17900B0
:104FD300E9C0E0851882851983AA82AB83121991EF
:104FE3007D007C00D0E0F9121F07E9600312194924
:104FF3007C077D007ACD7B97790012194F741002DC
:10500300558CE0642C851882851983AC82AD83228C
:1050130074F41207E874F0120D4F890AEAFEEBFFED
:10502300750B00EEFCEFFDA90A850B0875090074EA
:10503300027808120E928518828519831250AC40AB
:10504300E29005A2E06409700779071219498056B6
:10505300851882851983AC82AD837A1B7B9912589C
:10506300A670E879407C897D057408120F9A125561
:105073006E120F9AE0600C7408120F9AAA82AB8327
:105083001219917401120F9AE0600D851882851927
:1050930083AA82AB8312198B79031219497A8F7B06
:1050A300187904121E3502500012570C940422740E
:1050B300F71207E874F7120D4F1250FB70327404A5
:1050C300120F9AAC82AD8375839975822A74051287
:1050D3000BFC7404120F9AAA82AB831210A3E9701B
:1050E3000F7C077D007ACD7B97790012194F8003DF
:1050F3001219497409022D12EAFCEBFD8518828509
:105103001983AA82AB83125A40AC82AD837A147B93
:105113009A1219C7E92274F41207E874E7120D4FC3
:10512300890AEAFEEBFF750B00EEFCEFFDA90A8589
:105133000B0875090074027808120E9212489F40FA
:10514300E812589860030251EA7401120F9AE07052
:105153000579250251EAC3940B4021794074081262
:105163000F9AAC82AD83851882851983AA82AB839B
:105173001219A37410120F9A7403801C8518828568
:105183001983AA82AB831219917408120F9A126AB7
:105193005D7410120F9A7402F07411120F9AAC829C
:1051A300AD837583977582407408120BFCF50878FC
:1051B30008120CDB7808120CDB79007413120F9AB7
:1051C300AC82AD83740A120F9AAA82AB83121F5565
:1051D3007402120D04E9700F7C077D007ACD7B9772
:1051E300790012194F8003121949741902558C74EE
:1051F300F41207E874F8120D4F890AEAFEEBFF7503
:105203000B00EEFCEFFDA90A850B0875090074027B
:105213007808120E9212489F40E81258987034741E
:1052230001120F9AE07017793C12107FE970247C09
:10523300077D007ACD7B97790012194F8018851866
:1052430082851983AA82AB83121991EAF912107F1E
:10525300E960DC12194902454F74ED1207E874F056
:10526300120D4F8908EAFEEBFF750900EEFCEFFD16
:10527300A90885090A750B007402780A120E9212A6
:105283006F6240E8851882851983AC82AD837A1BEF
:105293007B991258A6600302536579407C897D058A
:1052A3007408120F9AAA82AB831219A37405120F02
:1052B3009AE07009900DD874FFF0A3801374041260
:1052C3000F9AAA82AB83121991900DD8EAF0A3EB3F
:1052D300F07401120F9AE0700A909977780C120F0C
:1052E300388014750C01750D00750E00750F0012D2
:1052F3005A29780C120C5B7409120F9AE0701E7510
:1053030010FA7511957512007810120CD37C087D74
:10531300007A897B0512635C120D04801279407C4C
:10532300897D057408120F9AAA82AB831219A37A96
:105333008F7B187904121E359005A27402F0900534
:10534300A3E4F07905AA0CAB0DAC0EAD0F12106DF2
:10535300E9700F7C077D007ACD7B97790012194F96
:1053630080031219497410120D0402342B74F712BE
:1053730007E874FC120D4F1250FB600512194980A7
:10538300459005A27402F0900DD874FFF0A3F0903D
:1053930005A3E4F07A8F7B187904121E3579059002
:1053A3009977120F6F12106DE9700F7C077D007AE9
:1053B300CD7B97790012194F800C1219497A007B23
:1053C300007904121E35022D1074F41207E874EAF2
:1053D300120D4F890AEAFEEBFF750B00EEFCEFFDA1
:1053E300A90A850B0875090074027808120E9274D5
:1053F3000A120F9A12570640E3740A120F9AAC82EC
:10540300AD837A6F7B991258A6600612194902542C
:1054130099740A120F9A125578120F9AE064107059
:105423001A79407401120F9AAC82AD83740E120F75
:105433009A12556E120F9A74038013740E120F9AF8
:1054430012618E120F9A126198120F9A74021257F8
:105453001A120CDB7401120F9A858208858309786E
:1054630008120CD77508317509007808120CD77922
:10547300017406120F9AAC82AD837AEF7B05121E7C
:10548300F57405120D04E970827C077D007ACD7BEB
:1054930097790012194F741602558C74F41207E8A9
:1054A30074EA120D4F890AEAFEEBFF750B00EEFC5E
:1054B300EFFDA90A850B0875090074027808120E1E
:1054C30092740A120F9A12570640E3740A120F9A43
:1054D300AC82AD837A6F7B991258A6600612194984
:1054E30002556B740A120F9A125578120F9AE064E0
:1054F30010701A79407401120F9AAC82AD83740E46
:10550300120F9A12556E120F9A74038013740E12AF
:105513000F9A12618E120F9A126198120F9A7402E7
:1055230012571A120CDB7401120F9A8582088583B5
:10553300097808120CD77508327509007808120C1F
:10554300D779017406120F9AAC82AD837AEF7B058B
:10555300121EF57405120D04E970827C077D007A32
:10556300CD7B97790012194F025499AA82AB83120B
:1055730019A3740922AA82AB83121991EA851882AE
:10558300851983F0740F227420120D047F04020A1C
:10559300A274F41207E874EB120D4F890AEAFEEBCA
:1055A300FF750B00EEFCEFFDA90A850B08750900DA
:1055B30074027808120E927409120F9A1257064059
:1055C300E37409120F9AAC82AD837A6F7B991258F8
:1055D300A660051219498062740A120F9AE0C394F7
:1055E3000B401B7940851882851983AC82AD837487
:1055F30009120F9A125889120F9A7403800D7409B5
:10560300120F9A125640120F9A740212571A120C62
:10561300DB740E120F9A126E66F914120F9AAA8295
:10562300AB83121EFB7401120D04E970A67C077D87
:10563300007ACD7B97790012194F025701AA82ABEA
:1056430083121991851882851983EAF0A3EBF0740C
:10565300082274F41207E874EB120D4F890AEAFE6C
:10566300EBFF750B00EEFCEFFDA90A850B0875092E
:105673000074027808120E927409120F9A125706D8
:1056830040E37409120F9AAC82AD837A6F7B99124F
:1056930058A660051219498065740A120F9AE0C36F
:1056A300940B401B7940851882851983AC82AD83A6
:1056B3007409120F9A125889120F9A7403800D7489
:1056C30009120F9A125640120F9A740212571A12A5
:1056D3000CDB740E120F9A1268567403F9740112DC
:1056E3000F9AAA82AB83121EFB7401120D04E97098
:1056F300A37C077D007ACD7B97790012194F74152F
:1057030002558C12570C940322124E79126548F5F8
:105713000A050BE50BC322F075080078082274F420
:105723001207E874EB120D4F890AEAFEEBFF750BC3
:1057330000EEFCEFFDA90A850B08750900740278D9
:1057430008120E927409120F9A12570640E3740955
:10575300120F9AAC82AD837A6F7B991258A66005BB
:105763001219498063740A120F9AE0C3940B401B09
:105773007940851882851983AC82AD837409120F31
:105783009A125889120F9A7403800D7409120F9A92
:10579300125640120F9A740212571A120CDB740E2F
:1057A300120F9A126850F97401120F9AAA82AB83EE
:1057B300121EFB7401120D04E970A57C077D007AAB
:1057C300CD7B97790012194F02570174F41207E841
:1057D30074E7120D4F8908EAFEEBFF750900EEFC32
:1057E300EFFDA90885090A750B007402780A120EE9
:1057F300927409120F9A126F6840E37409120F9A98
:10580300AC82AD837A1B7B991258A66005121949A5
:1058130080717411120F9AAA82AB83121991EAFE56
:10582300740A120F9AE0C3940B401B7940851882C7
:10583300851983AC82AD837409120F9A12588912A9
:105843000F9A7403800D7409120F9A125640120FA7
:105853009A7402126367120CDB740E120F9A1258B9
:1058630093F97401120F9AAA82AB83121F13740166
:10587300120D04E970977C077D007ACD7B97790040
:1058830012194F0251EDAA82AB831219A374082295
:10589300126856EE22851882851983AC82AD837A0D
:1058A3000C7B9A1219C7E92274EC1207E874F312FD
:1058B3000D4FEAFEEBFFEEFCEFFD126862F5088583
:1058C3001882851983E0643A600879111219490234
:1058D3005A05AA82AB831219918A108B11EEFCEF41
:1058E300FDA908851882851983AA82AB83125A4AB7
:1058F30070D8126A29C333FAE433FB121C558A0E9B
:105903008B0FEA450F7004790680C1750A00801772
:10591300125A4A70B5125A19E50E28F582E50F3965
:10592300F583126A5D050AE50AC39509EEFCEFFDEE
:10593300A908851882851983AA82AB8340D2125A9B
:105943004A7087125A2FF50BC333FAE433125A0FF6
:10595300450D60B3750A00801A125A4A6003025853
:10596300CD125A19E50C28F582E50D39F583126A33
:105973005D050AE50AC3950BEEFCEFFDA908851842
:1059830082851983AA82AB8340CF125A3CE0640D0F
:1059930060030258CD7404120F9AAC82AD837583F1
:1059A300957582F17409120BFCF50A780A120CDB67
:1059B300780C120CD7E50BF50A780A120CDB780E7B
:1059C300120CD77810120CD7A9097CFF7DFF740C39
:1059D300120F9AAA82AB83121F0D7408120D04E9E9
:1059E3006005121949800D7C077D007ACD7B97797C
:1059F3000012194FAA0CAB0D121C5BAA0EAB0F12AF
:105A03001C5B740D120D047F0C020AA2FB121C55C1
:105A13008A0C8B0DEA22AA82AB83121991E50AC381
:105A230033F8E433F922851882851983125A332215
:105A3300AA82AB8312198BE922125A40221219AFA0
:105A430085188285198322126548F5088518828591
:105A53001983E0642C2274F41207E874FC120D4FCE
:105A63001250FB600512194980331212898A0A8B7E
:105A73000B12128F7509007809120CDB900351E0A9
:105A8300F9AC0AAD0B121F197401120D04E970D59C
:105A93007C077D007ACD7B97790012194F7404023D
:105AA300558C74F61207E874EF120D4FEAFCEBFD08
:105AB300740D120F9AAA82AB831219AF740D120FD1
:105AC3009AAC82AD837A147B9A1258A66006121997
:105AD30049025B7B7C027D007A0F7B9A7900121965
:105AE3004F7A4F7B911218FB740B120F9AE4F0A3B9
:105AF300F0851882851983AA82AB83121037E96077
:105B0300547C027D007AFD7B99790012194F74034E
:105B1300120F9A120B2B7407120F9A120B2B740B82
:105B2300120F9A120B2B740F120F9A120B2B74096C
