:020000040000FA
:06000000020ED902048A81
:030013000204AD37
:03002B00020D00C3
:03003300020AAF0F
:03003B00020502B9
:030053000203BBEA
:03006B00020A89FD
:1000830002041F0101FF01010503010F10FEFFE937
:1000930017E917E917E917A5169F16E917EA2C00C0
:1000A300000000882C000000000C0000000C000180
:1000B300008041545F41465F67726F7570000000B6
:1000C3000000CB0401FF000000000000000000005E
:1000D3000000F31900000000000000000000000011
:1000E300000000000000000000000000111A171AB1
:1000F3000000231A000000000000000000000000C0
:10010300000000000000000000000A4C41423030B3
:10011300372020202001FFFFFFFF060401FF00001E
:100123000547950000003B1A411A00004D1A0000D4
:1001330000000000000000000000000000000000BC
:1001430000000000651A6B1A0000711A000000001D
:10015300000000000000000000000000000000009C
:1001630000008F1A951A00009B1A0000000000007F
:10017300000000000000000000000000000000007C
:100183000A4C41423030372020202001FF07040170
:10019300FF000003799801CF990A4C414230303770
:1001A3002020202001FF050401FF00000325980102
:1001B300C7990A4C414230303720202020010104E6
:1001C30001FF0000037F98000000B91ABF1A000066
:1001D300CB1A000000000000000000000000000037
:1001E3000000000000000000D11A0B49206C6F765C
:1001F300652055203A29010080040401FF00000511
:100203006F95000000578DFFFF0200EB0500000013
:100213005F066400020200080000050207051E02D3
:10022300051E020A0A03B80B02803E0102152014C0
:1002330096511800020206FF00120EF8604F120FCB
:10024300256012E7548066F6120D877011120F6451
:10025300703B090909F4F618F618F618F622120D80
:100263009C7015120F6E08080860EAE6447FF618C2
:10027300768018E4F618F622120F6E6016120F64D9
:100283007012E4F608F608F608E65480F609090940
:1002930018181822EAC0E0EBC0E0ECC0E0EDC0E0C3
:1002A300E687F0A4FBACF008E687F0A42CFCE43569
:1002B300F0FA1809E687F0A42C4B60027401CA35E2
:1002C300F0FCE433FB09E687F0D2F7A42CCB35F03E
:1002D300FC1908E687F0A42BCC35F0FBE433FD08CA
:1002E30019E687F0D2E7A42C4ACB35F0CD3400FCD5
:1002F30009E687F0D2E7A42DCC35F0FDE433FA0903
:1003030018E687F0D2F7A42CCD35F0CA3400FC08E8
:10031300E687F0D2E7D2F7A42ACC35F07A7E20E73D
:100323000B0ACB33CBCD33CDCC33CC33CB335014BF
:100333007004ED30E00ED2F1E4CD3DCDCC3CCC3BAE
:100343005005DA05C2F1EB547FC63308E63392F069
:10035300FBE73309E733C39A502D2B70190C0D4C6F
:100363004D70151806E608C333700D20F10AA2F08C
:1003730013F6E418800B4024E4F630F0027680187C
:10038300F618F618F68024D33B14501074FFA2F02D
:1003930013F6187680E418F618F6800FA2F013F619
:1003A30018E63303F618ECF618EDF6D0E0FDD0E0CE
:1003B300FCD0E0FBD0E0FA22C0E074F2120851A2B4
:1003C300AFE433FED2AFE5A7FFE5A1F5085F541014
:1003D300600612249175A1EFE5085F5408600812C6
:1003E300249775A1F7802BEFA2E0C0D0E508A2E027
:1003F30092F0120E3A158182F05017906198E0F84E
:10040300900839E0C398A2D265D0335002E8F07562
:10041300A1FEEEA2E092AF7F01020908C0E074F2F0
:10042300120851A2AFE433FED2AF9061A4E0F87595
:100433009B00E59158540860087591F71224DF80FA
:100443002AE59158541060087591EF1224E5801B3A
:10045300E8A2E0C0D0E591A2E092F0120E3A158135
:1004630082F05007E0C2E0F01226299061A3E0F881
:10047300E5E9585404600E1225FF75E9FB9061937A
:10048300E0A2E640F2808BC0E074F2120851A2AF02
:10049300E433FED2AF9061A5E0F8E5BF58540460A1
:1004A3000675BFFB122641020415C0E0C0D0E8C0A8
:1004B300E0E9C0E0C082C083E5C1C0E09007A5E0E9
:1004C300F8742428F58274073400F583D0E0F090A3
:1004D30007A4E0F8A3E0687006E5959007A7F090FD
:1004E30007A5E004F0C394804002E4F0A374C6F0CF
:1004F300D083D082D0E0F9D0E0F8D0D0D0E032C0C1
:10050300E0C0D0E8C0E0C008C009C082C083900842
:1005130028E0F8A3E0687008539AFBA374018026CF
:10052300C2E9900828E0F50874012508F074A825AD
:1005330008F58274073400F583E0F5C1900828E0DC
:10054300C394804002E4F0D083D082D009D00880E5
:10055300A6C3E498F8E499F91205958026C3E49AB2
:10056300FAE49BFBE920E7E9120595E498F8E4999E
:10057300F922C3E498F8E499F9120595E498F8E4AC
:1005830099F9C3E49AFAE49BFB22EB20E7CFE92035
:10059300E7E0B90010BB0008E88AF084F8AAF0226B
:1005A300E4FBC8FA22EB70227B10C833C8C933C9F5
:1005B300335007C39AC3DBF280069A50012ADBEA61
:1005C300C833F4C8C933F4C9FA2275F008E4C83350
:1005D300C8C933C933C99AC99B5004C92AC93BD571
:1005E300F0ECFBC833F4C8E4C9FA2212062E20F05B
:1005F3001430E72B74FFFCFBFA747F8022E4FCFBCE
:10060300FA7480801AB48008BC00F2BB00EF800F3C
:1006130050EBF9E4C39AFAE49BFBE49CFCE499C62F
:10062300CC18C6CB18C6CA18C6F922E4C9C608CA6C
:10063300C608CBC6D3330308CCC63392F0C3947F2A
:10064300402E94184019C9B90704CACBCC225025AF
:10065300C309CA33CACB33CBCC33CC33D9F422F45A
:10066300600DC9CCC313CB13CBCA13CAD9F6CC22A2
:10067300E4FCFBFA2214FCFBFA22080808EAC0E0B7
:10068300EBC0E086F0E7A4FA180986F0E7A42AFA9B
:10069300180986F0E7A42AFA180986F0E7A42AFACB
:1006A3001986F0E7A4FBE5F02AFA190886F0E7A417
:1006B3002BFBE5F03AFA190886F0E7A42BFBE5F0EB
:1006C3003AFA18180986F0E7A4C5F02BFBE43AFAC6
:1006D3001908E7C5F0C6A426F6E5F03BFBE43AFAB1
:1006E3001886F0E7A4F6E5F00826F6E43B08F6E4FE
:1006F3003A08F6D0E0FBD0E0FA22080808E630E733
:1007030011120DC6120715080808C64480C618182A
:100713001822181818E9799EC608CAC608CBC60855
:10072300CCC6C370207996CACBCC7019798ECBCC4A
:1007330070137986CC700EF9802ACA33CACB33CBB7
:10074300CC33CC331930E7F2CCCBCA33501470041A
:10075300EA30E00DE4CA3ACACB3BCBCC3CCC5002E6
:1007630009C3E913C6CC182313C6CB18C6CA18C6C7
:10077300F922E4CFC0E0E4CEC0E0E4CDC0E0E4CCB5
:10078300C0E075F020C3E633F608E633F608E63337
:10079300F608E633F6181818EC33FCED33FDEE33A8
:1007A300FEEF33FFC3EC9709ED9709EE9709EF9737
:1007B300191919400FFFEC97FC09ED97FD09EE9706
:1007C300FE191906D5F0BEECF709EDF709EEF709A6
:1007D300EFF7191919D0E0FCD0E0FDD0E0FED0E02E
:1007E300FF222518C582C0E0E51934FFC583C0E0A8
:1007F300E518C3958224F810AF08858319858218FC
:100803008008858319858218D2AFCEF0A3E520F046
:10081300A37808E608F0A3DEFAEFF0A3E58124FA53
:10082300F8E608F0A3E608F0A3E608F0A30808E654
:1008330008F0A3E608F0A315811581D0E0FED0E00F
:10084300F8158115811581E8C0E0EEC0E022C0D023
:100853002518C582C0E0E51934FFC583C0E0E5185B
:10086300C3958224F310AF08858319858218800805
:10087300858319858218D2AFC8F0A3E9F0A3EAF003
:10088300A3EBF0A37908E709F0A3D8FAECF0A3ED02
:10089300F0A3EEF0A3EFF0A3D0E0F0A3D0E0F0A339
:1008A300D0E0F0A3E520F0A3E5F0F0A322120F5966
:1008B300B900030208F2E49003017812790C800274
:1008C300F0A3D8FCD9FA900E12AA82AB83900086CB
:1008D30078B679028015E493A3AC82AD838A828BC8
:1008E30083F0A3AA82AB838C828D83D8E9D9E77581
:1008F30082227583C37405120C5F75825B75832A2C
:100903007400120C5F851983851882E0C0E0A3E0B0
:10091300F9A3E0FAA3E0FBA37808E0F608A3DFFA63
:10092300E0FCA3E0FDA3E0FEA3E0FFA3E0C0E0A39F
:10093300E0C0E0A3E0F5D0A3E0F520A3E0A3F5F049
:1009430010AF0885831985821880088583198582ED
:1009530018D2AFD082D083D0E0F8D0E03275F01057
:100963008E1A8F1B85821F85831E851882851983A6
:10097300E0CEA3E0CF851F82851E83EBC9EAC8EDD5
:10098300CBECCAC3E833C8E933C9EA33CAEB33CB88
:10099300C3EA9EF51DEB9FF51CB35004AB1CAA1DC7
:1009A300EC33CCED33CDD5F0DAAE1AAF1B22D083C6
:1009B300D082ECC0E0EDC0E0E493A3FCE493A3FD9C
:1009C300ED4C600D120ACDEC24FFFCED34FFFD80ED
:1009D300EFE493A3FCE493A3FDED4C600D120B6ACB
:1009E300EC24FFFCED34FFFD80EFD0E0FDD0E0FC14
:1009F300E493A3C0E0E493C0E022D083D082E9C0B3
:100A0300E0E493A3C386F0C5F095F0F908E493A35B
:100A130086F0C5F095F0700BE493A3C3994005E904
:100A2300048002A3E475F002A42582F582E5F03583
:100A330083F583D0E0F9E493A3C0E0E493C0E0221C
:100A4300851983851882E0A3FEE0A3F5207808E0EA
:100A5300A3F608DFFAE0A3FFE0A3C0E0E0A3C0E051
:100A6300E0A3C0E0E0A3C0E0E0A3C0E010AF0885CE
:100A730082188583198008858218858319D2AFD09F
:100A830083D082020C65C0E074F2120851A2AFE475
:100A930033FED2AFE589A2E150031223A175890089
:100AA300C2C5EEA2E092AF7F01020908C0E074F272
:100AB300120851A2AFE433FED2AFE58BA2E050039C
:100AC3001223A1758B00C2E880D8C0E0C3E49396DB
:100AD300087401939618400FE49366700808740134
:100AE30093661870007019A3A3C3E4939608740166
:100AF300939618A3A3400DD0E0D0E0D0E00209ED17
:100B0300A3A3A3A3A3A3D0E022740480047402804C
:100B130000CCC0E0EDC0E0E518C39CCCAD1950019A
:100B23001D10AF068C188D1980068C188D19D2AF45
:100B3300120BE1D0E0FDD0E0FC2274028000CCC0B7
:100B4300E0EDC0E0E518C39CCCAD1950011D10AF1A
:100B5300068C188D1980068C188D19D2AF120BBF15
:100B6300D0E0FDD0E0FC22C0E0C0F088F0E4936662
:100B730070080874019366187000A8F0A3A3700BA3
:100B8300D0F0D0E0D0E0D0E00209EDA3A3D0F0D0C4
:100B9300E022D083D082CCC0E0E493A36006120CA1
:100BA300021470FAE493A36006120D471470FAD08E
:100BB300E0FCE493A3C0E0E493C0E022CAC0E0E415
:100BC30093A3C582CCC582C583CDC583F0A3C5825B
:100BD300CCC582C583CDC583DAE5D0E0CA22CAC0BD
:100BE300E0E0A3C582CCC582C583CDC583F0A3C590
:100BF30082CCC582C583CDC583DAE6D0E0CA22C0E4
:100C0300E0E493A3D39C5010E493A3C39C400AD085
:100C1300E0D0E0D0E0020BB2A3A3A3D0E022C0084F
:100C2300C3E096F50808A3E096420808A3E09642BD
:100C33000808A3E09645087001D3D008227009087C
:100C43000808226016181818C6C333C608C633C668
:100C530008C633C608C633C6D5E0EA22C09FF59F4F
:100C6300E473D09F22D083D082C09FE493C0E0740A
:100C73000193C0E0740293F59F227404800A740305
:100C83008006740280027401C0E0F404120C98D050
:100C9300E0120F34222518F58210AF08F518400230
:100CA30015198008F51840021519D2AF851983224A
:100CB300BB0102E722C082C08389828A83BB00030F
:100CC300E08002E493D083D08222C0D0251810AFF5
:100CD30008F518500205198008F51850020519D2B5
:100CE300AFD0D0226016080808C6C313C618C613AF
:100CF300C618C613C618C613C6D5E0EA22C0E0C09C
:100D0300D0E8C0E0E5A8D2AFC2C7A2E792AFD0E077
:100D1300F8D0D0D0E032C3E0C696F608A3E0C6967A
:100D2300F608A3E0C696F608A3E0C696F6222518B1
:100D330010AF08F518400215198008F51840021580
:100D430019D2AF22C0E0E493A36C7009D0E0D0E0E5
:100D5300D0E0020BB2A3A3D0E022C3E09608A3E045
:100D63009608A3E09608A3E096A2D265D03322E0CA
:100D730066701008A3E066700A08A3E066700408B2
:100D8300A3E06622181818E6084608700AE608C3A6
:100D9300337005E633F4220822191919E7094709C4
:100DA300700AE709C3337005E733F4220922E766C3
:100DB30070100809E766700A0809E76670040809F5
:100DC300E76622181818E4C396F608E496F608E4D2
:100DD30096F608E496F622C3E096F008A3E096F0B0
:100DE30008A3E096F008A3E096F022E647F6080988
:100DF300E647F60809E647F60809E647F622E0263D
:100E0300F008A3E036F008A3E036F008A3E036F0DC
:100E130022E056F608A3E056F608A3E056F608A328
:100E2300E056F622E657F60809E657F60809E657AC
:100E3300F60809E657F622C0E0E8C0E0E58124FCA5
:100E4300F8E6A2E7D0E0F8D0E022E056F008A3E00D
:100E530056F008A3E056F008A3E056F022700422EF
:100E6300600D18C6C333C608C633C6D5E0F41822CE
:100E7300E627F60809E637F60809E637F60809E62D
:100E830037F622E026F608A3E036F608A3E036F6A6
:100E930008A3E036F622C3E09608A3E09608A3E091
:100EA3009608A3E09622C6F4C608C6F4C608C6F49C
:100EB300C608C6F4C622600D08C6A2E713C618C644
:100EC30013C6D5E0F322C3E7960809E7960809E7B6
:100ED300960809E7962275D000758140751801754B
:100EE3001903000208B0E6F008A3E6F008A3E6F051
:100EF30008A3E6F022E6084608C313460833600257
:100F0300E633F422600C08C6C313C618C613C6D54D
:100F1300E0F422E0F608A3E0F608A3E0F608A3E075
:100F2300F622E7094709C3134709336002E733F49D
:100F330022CAC0E0E6F0A308DAFAD0E0FA22EAF027
:100F4300A3EBF0A3ECF0A3EDF022E0FAA3E0FBA304
:100F5300E0FCA3E0FD22E5C754F84401F5C779019D
:100F630022E7C33319471947194722E6C333184603
:100F730018461846222518F582E43519F58322C24E
:100F8300AF75D69F02000022120C68953000120C38
:100F930068CA3000120C68F03000120C682A310065
:100FA300120C683C3100120C688E3100120C68EF91
:100FB3003100120C68793200120C681D3300120CD8
:100FC30068653300120C689F3300120C68BC330051
:100FD300120C68E13300120C68333400120C684CB5
:100FE3003400120C68723400120C68AD3400120C19
:100FF30068F13400120C68183500120C686935006A
:10100300120C68193600120C68D13600120C68995C
:101013003700120C68593800120C689D3800120C06
:1010230068C23800120C68053900120C6852390086
:10103300120C68AA3A00120C68303B00120C684E7E
:101043003B00120C68783B00120C68923B00120CB8
:1010530068A13B00120C68AC3B00120C686C3C00AE
:10106300120C68C53C00120C68873D00120C688F97
:101073003D00120C68133E00120C68593E00120C1E
:10108300689A3E00120C682A4000120C68E2400085
:10109300120C684E4100120C68794200120C689ED3
:1010A3004200120C68144300120C68A64300120C91
:1010B30068664400120C68854400120C689445006D
:1010C300120C68B24500120C68C44500120C683457
:1010D3004600120C684D4600120C68894700120C3A
:1010E300681A4800120C68284900120C686149000C
:1010F300120C68AD4900120C68C94A00120C681240
:101103004D00120C681D4D00120C68284D00120C86
:1011130068334D00120C683D4D00120C68484D00B9
:10112300120C68624D00120C686C4D00120C68764C
:101133004D00120C68814D00120C68A94D00120C71
:1011430068044E00120C680E4E00120C68324E00FA
:10115300120C68564E00120C68B44E00120C68F85C
:101163004E00120C68144F00120C688B4F00120CC7
:1011730068C34F00120C680F5000120C686C5000CB
:10118300120C68265100120C680A5300120C686393
:101193005300120C68935400120C68B95400120CDB
:1011A30068425600120C68BE5900120C68905B002E
:1011B300120C68595D00120C68065E00120C68710F
:1011C3005F00120C68106000120C685D6000120C66
:1011D30068C76000120C68D66000120C685D63007B
:1011E300120C680F6500120C687C6500120C685BBA
:1011F3006600120C68746700120C68F16800120C28
:1012030068106900120C68656900120C686A6A004C
:10121300120C68926A00120C68EA6A00120C68C920
:101223006B00120C680D6C00120C68586C00120CE9
:1012330068C36C00120C68046E00120C68686E00C0
:10124300120C68B66F00120C68167200120C684715
:101253007200120C68FF7300120C68547400120CB5
:1012630068587500120C68F57500120C684E76000C
:10127300120C68017700120C68A37700120C684304
:101283007800120C68E87800120C68DB9901120CE4
:10129300681A9A01120C68619C01120C68AB9C01DC
:1012A300120C68C69D01120C682E9E01120C686315
:1012B3009E01120C68D79F01120C685AA201120CEE
:1012C3006883A301120C6819A401120C6821AD01F3
:1012D300120C68B6AD01120C689DB001120C689037
:1012E300B101120C68FEB101120C6844B301120C77
:1012F3006826B401120C680BB601120C681CB80105
:10130300120C6886B801120C6858B901120C686295
:10131300B901120C6890B901120C684DBA01120C94
:101323006824BB01120C68EBBB01120C688FBC0173
:10133300120C68B8BC01120C68DABC01120C6830DC
:10134300BF01120C6808C001120C684CC001120CDA
:1013530068B4C001120C686CC101120C689EC10113
:10136300120C68E2C101120C6818C201120C686405
:10137300C201120C68B9C201120C68BEC201120C80
:101383006811C301120C6836C301120C6845C4010D
:10139300120C68A9C401120C6819C501120C68A5C6
:1013A300C501120C6872C801120C6856C901120CEF
:1013B30068D9CA01120C680FCD01120C68BDCD01AA
:1013C300120C686DCE01120C68AED001120C68517C
:1013D300D101120C6898D101120C6844D301120C8C
:1013E3006858D301120C6862D301120C688AD301C6
:1013F300120C6896D301120C68B5D301120C68A9BC
:10140300D501120C6804D601120C684ED601120CD9
:101413006856D701120C68ADD701120C68FCD801CD
:10142300120C6840D901120C68E8D901120C68CB80
:10143300DA01120C6876DB01120C68C2DC01120CB3
:1014430068C0DD01120C6866DE01120C68F6DE016D
:10145300120C680DDF01120C6844DF01120C684E98
:10146300DF01120C6858DF01120C6863DF01120CF4
:101473006881DF01120C68C5DF01120C6822E001EC
:10148300120C6847E001120C6861E001120C68ED70
:10149300E001120C680AE201120C6877E201120CF7
:1014A300685EE301120C6885E301120C68F9E3013D
:1014B300120C6874E401120C6878E501120C686E72
:1014C300E601120C681DE701120C6830E801120CEA
:1014D30068CCE801120C6859E901120C6837EA017B
:1014E300120C686FEA01120C68C7EA01120C6890CB
:1014F300EB01120C68B1EB01120C6838EC01120C11
:10150300685CEC01120C687EEC01120C68C7EC01FC
:10151300120C68DDEE01120C68C4EF01120C687541
:10152300F001120C68ABF201120C68FBF201120C11
:10153300683BF301120C687DF301120C68D9F301C7
:10154300120C6807F401120C682BF401120C687E6C
:10155300F401120C68ACF401120C68E5F401120CEE
:10156300683AF501120C68A0F501120C68F4F60153
:10157300120C6817F901120C6884F901120C68AD9A
:10158300F901120C6838FA01120C689FFA01120C67
:1015930068EAFA01120C680EFB01120C6832FB01B7
:1015A300120C688DFB01120C68A8FB01120C686118
:1015B300FC01120C685DDE05120C689CDE05120C42
:1015C30068C6C302120C680CC402120C68ECC40295
:1015D300120C68EEC502120C68F1C602120C687D8B
:1015E300C802120C68DBC802120C6898C902120CFC
:1015F30068B6CA02120C6827CB02120C6863CB02CE
:10160300120C68B1CB02120C68BBCB02120C68FF40
:10161300CB02120C685BCC02120C68F6CC02120CE3
:101623006873CD02120C6842CE02120C68DBCE0244
:10163300120C68FBCE02120C6831CF02120C6862E6
:10164300CF02120C6823D002120C6833D002120CA2
:101653006887D002120C68A2D002120C68B4D002C0
:10166300120C68BDD002120C6817D102120C6873F9
:10167300D102120C68BFD102120C68DAD102120C2B
:10168300680BD202120C6828D202120C6834D20200
:10169300120C68A8D302120C68C1D302120C68287A
:1016A300D402120C683BD402120C6849D402120C07
:1016B30068FDD402120C68E1D502120C68E7D60269
:1016C300120C6871D702120C687BD702120C68E8FF
:1016D300D702120C68FFD702120C6831D802120C21
:1016E300686AD802120C6894D802120C68F5D80202
:1016F300120C6815D902120C6833D902120C6879DE
:10170300D902120C689FDA02120C68ECDA02120C8E
:10171300681BDB02120C6891DB02120C68B9DB0256
:10172300120C68F2DB02120C6800DC02120C68581F
:10173300DC02120C68A7DC02120C68E6DC02120C55
:101743006816DD02120C6842DD02120C684DDD02E0
:10175300120C686BDD02120C682DDE02120C683766
:10176300DE02120C6878DE02120C68CDDE02120C67
:1017730068E1DE02120C68EFDF02120C6802E0027D
:10178300120C6817E002120C68B9E002120C683CF4
:10179300E102120C68FAE102120C6805E202120C73
:1017A3006831E302120C684DE302120C689FE302F6
:1017B300120C68DEE302120C68F3E302120C6855A4
:1017C300E402120C68E4E402120C682FE502120C26
:1017D3006880E702120C68FEE702120C6873E802E5
:1017E300120C6895EA02120C68ADEA02120C68B09A
:1017F300EA02120C68BCEA02120C68D0EA02120C6C
:1018030068D8EA02120C680BEB02120C68BBEB02FD
:10181300120C6831EC02120C68A4EC02120C68582A
:10182300ED02120C680DEE02120C682CEE02120C83
:1018330068D2EE02120C68FDEE02120C6800EF0291
:10184300120C686AEF02120C6892F002120C686ABA
:10185300F102120C68F5F102120C680EF302120C7D
:1018630068CBF302120C6804F402120C6835F4021C
:10187300120C68F3F402120C6823F502120C68FED2
:10188300F502120C6897F602120C6822F702120C8A
:1018930068D3F702120C6856F802120C6888F80233
:1018A300120C68C9F802120C68FAE604120C685F9D
:1018B300E704120C689CE704120C68EBE704120CB3
:1018C3006801EA04120C68E4EB04120C684EEF049E
:1018D300120C6889EF04120C68ABEF04120C680E4B
:1018E300F004120C6842F004120C6865F004120C48
:1018F3006892F004120C68EEF004120C68E1CC0458
:10190300120C680FCD04120C6856CD04120C68D16A
:10191300CD04120C68D5CE04120C68CFCF04120C80
:1019230068E9CF04120C68DBD004120C68F8D10408
:10193300120C6819D204120C6831D204120C684ECE
:10194300D404120C680FD504120C6823D504120CAE
:101953006840D704120C68A4D804120C68B8D804E1
:10196300120C688CD904120C6876FA04120C68C63F
:10197300FA04120C689AFB04120C6810FC04120C93
:101983006882FC04120C68FEFC04120C6862FD04FD
:10199300120C68F2FD04120C683AFE04120C68ADD6
:1019A300FE04120C6870FF04120C681FCE05120CA3
:1019B300684FCE05120C68A4CE05120C6840D905F9
:1019C300120C6869D905120C68ACD905120C68446D
:1019D3008705120C685F8705120C68AD8705120C2A
:1019E300689C8905120C686B8B05120C683A8C0590
:1019F300120C68EB8C05120C68738D05120C68B120
:101A03008D05120C682DC505120C685EC505120CF8
:101A13006815C605120C6851C605120C686DC6051B
:101A2300120C68B4C605120C6808C705120C68913D
:101A3300CF05120C68C5CF05120C6819D005120C1E
:101A43006855D005120C6871D005120C68BFD0051B
:101A5300120C68EBD005120C68B8B905120C68ECCF
:101A6300B905120C682ABB05120C6866BB05120C7B
:101A73006882BB05120C68CEBB05120C6816BC0548
:101A8300120C6843B705120C6877B705120C68B5DA
:101A9300B805120C68F1B805120C680DB905120CE3
:101AA3006859B905120C68A1B905120C681FC7055E
:101AB300120C6859C705120C68FFC705120C683B66
:101AC300C805120C6857C805120C689EC805120C8D
:101AD30068ECC805120C68EFC805120C688EBC04CC
:101AE300120C6836BD04120C689CBE04120C688983
:101AF300C004120C688FC104120C6809C204120CD2
:101B030068C6C304120C68F8C304120C6855C404F5
:101B1300120C6887C404120C68C8C404120C683F12
:101B2300C604120C68C2C604120C68EFC604120C79
:101B330068F5C804120C68CBC904120C687FCB0487
:101B4300120C6802CC04120C6848CC04120C68A274
:101B5300D305120C68C0D305120C6827D405120CE8
:101B63006864D405120C68A8D405120C6834790093
:101B7300120C685E7900120C688E7900120C68638F
:101B83007A00120C68D57B00120C68607E00120C80
:101B9300688F7E00120C689DDF05120C68A5DF05B7
:101BA300120C68A7DF05120C68AFDF05120C68B4CE
:101BB300DF05120C68B9DF05120C68BFDF05120CD4
:101BC30068D4DF05120C68DADF05120C68008002A6
:101BD300120C686F8002120C68BB8102120C6845FC
:101BE3008202120C68928202120C68E88202120CC2
:101BF30068098302120C685D8302120C68A38302D6
:101C0300120C68D38302120C684D8402120C68B65E
:101C13008402120C68EB8402120C681A8502120CFF
:101C230068728502120C68B4A803120C68808602DD
:101C3300120C68CC8602120C68A78702120C68D1BA
:101C43008702120C68828802120C68F08802120C58
:101C530068178902120C68BB8A02120C684C8B024B
:101C6300120C68C38C02120C68808D02120C68453A
:101C73008E02120C68798E02120C68BC8E02120C52
:101C8300680E9002120C68CA9002120C68ED910261
:101C9300120C68DCB103120C68559802120C68B878
:101CA3009802120C683B9902120C68E09902120C1C
:101CB300685D9A02120C68F59A02120C68329C0253
:101CC300120C68B39C02120C68179D02120C6895E3
:101CD3009D02120C68159E02120C68209F02120CC2
:101CE30068479F02120C6863A002120C6837A102B6
:101CF300120C68FBA102120C68C6A202120C68B097
:101D0300A302120C68F9A302120C68D2A402120CEB
:101D13006837A502120C6889A502120C68BEA502D9
:101D2300120C6890A602120C6886A702120C684770
:101D3300A802120C6816A902120C68D6A902120C8A
:101D430068A4AA02120C6852AC02120C689EAC0280
:101D5300120C6882AD02120C68B4B002120C68F95E
:101D6300B102120C68B2B202120C6894B302120CE4
:101D73006858B502120C6841B702120C6845B802E4
:101D8300120C686FB802120C6870BA02120C685C0D
:101D9300BC02120C68DEBD02120C6881BE02120C7A
:101DA300688BBF02120C685FC002120C685AC10232
:101DB300120C68B5C202120C68FDDA04120C687BBF
:101DC300DB04120C68B1DB04120C6818DC04120C7F
:101DD3006855DC04120C68C8DD04120C68E4DD04E9
:101DE300120C6829DE04120C68B7DE04120C6810AA
:101DF300DF04120C683DE004120C684FE104120C7E
:101E030068ACE104120C6818E204120C6879E2046D
:101E1300120C68BAE204120C6867E304120C6879C6
:101E2300E404120C68A4E404120C68EFE404120C3A
:101E33006836E504120C68C8E504120C6883E604EE
:101E4300120C682A8E05120C68768E05120C68E453
:101E53008E05120C68058F05120C68B58F05120CE0
:101E630068BE8F05120C68119005120C683A900534
:101E7300120C68A19005120C68329105120C68745B
:101E83009105120C68BE9105120C681D9205120C87
:101E930068499205120C68DA9205120C68199305C9
:101EA300120C68589305120C688D9305120C689FE9
:101EB3009305120C68B19305120C68D09305120CAC
:101EC30068D99305120C688F9405120C68CF94059A
:101ED300120C687EFF04120C6825DA05120C68F0F8
:101EE300C005120C6826C105120C686FC105120CDF
:101EF30068BFC205120C6840A804120C687FA904CD
:101F0300120C68BBA904120C687AAB04120C68A308
:101F1300AB04120C6836AE04120C687AAE04120CD1
:101F23006803B004120C689BB004120C6803B1047C
:101F3300120C68A4B104120C68E6B104120C6826F2
:101F4300B204120C68B1B304120C6821B504120C6C
:101F53006846B704120C6874B704120C689BB70484
:101F6300120C68A4B704120C68FFB704120C689231
:101F7300B804120C68B0BB04120C6831BC04120C18
:101F8300687DDF05120C6893DF05120C689BFC016A
:101F9300120C68AEFC01120C684BFD01120C688632
:101FA300FD01120C68A1FD01120C68C6FD01120CA3
:101FB300680BFE01120C683CFE01120C686DFE01F9
:101FC300120C68F3FF01120C68C3DB05120C68F9ED
:101FD300DB05120C6815DC05120C6857DC05120CC6
:101FE3006867DC05120C6871DC05120C688CF10360
:101FF300120C68E1F103120C68DAF203120C68AAFE
:10200300F303120C68BFF303120C6809F403120CF8
:102013006866F403120C6879F403120C68C3F403C2
:10202300120C68D7F403120C6809F503120C680745
:10203300F603120C6850F603120C685FF603120CD9
:1020430068AEF603120C68C4F603120C68DBF603E1
:10205300120C680AF703120C6823F703120C68BC0E
:10206300F703120C6816F803120C6871F803120CCC
:102073006893F803120C680AFB03120C683FFB0316
:10208300120C68D2FB03120C684AFC03120C68564C
:10209300FC03120C6892FC03120C68E8FC03120C9C
:1020A30068D7FD03120C68FCFD03120C6806FE03DF
:1020B300120C6815FE03120C689EFE03120C68B91D
:1020C300FE03120C68DBFE03120C6816FF03120CEE
:1020D3006825FF03120C6830FF03120C686CFF03C2
:1020E300120C687FFF03120C6810DE05120C6828BF
:1020F300DE05120C68008005120C684F8005120C77
:1021030068F18105120C68AD8305120C68F583052F
:10211300120C68DD8405120C680E8605120C6830FB
:102123008605120C688C8605120C68108705120C44
:1021330068008004120C68218004120C689E8004DD
:10214300120C68238104120C689F8104120C680826
:102153008204120C68548204120C68D58204120C97
:1021630068678304120C68EF8304120C68318404DB
:10217300120C687A8804120C68FE8904120C683DFC
:102183008A04120C68498D04120C68D08D04120C59
:1021930068908F04120C68D29004120C68FC9104AE
:1021A300120C68DA9204120C68099304120C68008A
:1021B3009504120C68809704120C68399804120C69
:1021C30068559904120C68AC9C04120C68BC9C04FE
:1021D300120C681D9E04120C68AA9E04120C689CC3
:1021E3009F04120C68C7A004120C687AA104120C95
:1021F300689BA104120C682FA204120C688AA20423
:10220300120C6888A304120C6869A404120C68E217
:10221300A504120C6820A704120C68A8A704120CCA
:10222300681EDB03120C68D8DB03120C684ADC035C
:10223300120C6859DC03120C68D3DC03120C6842DD
:10224300DD03120C6849DE03120C687ADE03120CFC
:1022530068F1DE03120C68AAE103120C6881E20341
:10226300120C68EEE203120C686BE403120C68357F
:10227300E503120C68A0E503120C68A0E603120C38
:102283006888E703120C68F9E703120C683CE8035B
:10229300120C689AE903120C6867EB03120C687A54
:1022A300EC03120C68C6ED03120C68D9EE03120C92
:1022B3006872EF03120C6838F003120C6817F90206
:1022C300120C686BF902120C68B7F902120C68025F
:1022D300FA02120C6842FA02120C6892FA02120C09
:1022E3006808FC02120C68BBFC02120C68FEFC02BC
:1022F300120C6814FD02120C686CFD02120C68BA11
:10230300FD02120C68E1FD02120C684CFE02120C75
:10231300684FFF02120C6806C905120C6837C9051D
:10232300120C68F1C905120C6857CA05120C68A192
:10233300C305120C68F8DA05120C6809DB05120CE8
:1023430068A9DB05120C68E0CA05120C68EECA0521
:10235300120C68E7FF04120C6829DD05120C6839BA
:10236300DD05120C6854DD05120C68B5DD05120C91
:10237300683ED805120C68C3D805120C6827D90526
:10238300120C6898CC05120C68BACC05120C6820A4
:10239300CD05120C6840CD05120C6886CD05120CD4
:1023A30068E1CD05120C68D6D405120C68EBD40590
:1023B300120C685FD505120C6879D505120C688C70
:1023C300D505120C689AD505120C68B4D505120C04
:1023D30068D4D505120C6804AB05120C6812AB0562
:1023E300120C688CAB05120C6870AC05120C6829D2
:1023F300AE05120C685BDF05120C680EB205120CF9
:10240300685CB205120C68F9B205120C68A4B30536
:10241300120C68BCB305120C6838B405120C684E74
:10242300B405120C6861B405120C686FB405120C84
:1024330068B59905120C680A9A05120C68069C0582
:10244300120C68389C05120C685A9C05120C6873B0
:102453009C05120C688C9C05120C68969D05120C49
:1024630068319E05120C6808D105120C682CD10541
:10247300120C6845D105120C6878D105120C68A9B5
:10248300D105120C68D7D105120C6839D205120C8C
:102493006848D205120C6852D205120C685FD20547
:1024A300120C68B3B405120C68D9B405120C681683
:1024B300B505120C6825B505120C6844B505120C58
:1024C30068ACB505120C68B5B505120C6814B605F1
:1024D300120C6838B605120C68F7B605120C6804BE
:1024E300B705120C6815B705120C68C0FF03120C70
:1024F30068DDFF03120C68A89E05120C6806A00590
:10250300120C6813A005120C6826A005120C68456E
:10251300A005120C685BA005120C686FA005120CD5
:1025230068E4A005120C6849A105120C68F9A1051D
:10253300120C68CEA205120C68DEA205120C68ED1F
:10254300A205120C6890DC05120C68B4DC05120CB1
:1025530068DCDC05120C6804DD05120C682DBC0573
:10256300120C6854BC05120C6875BC05120C68DAB1
:10257300BC05120C6893BE05120C68ACBE05120CA8
:1025830068B8BE05120C68CCBE05120C68EABE051D
:10259300120C68F4BE05120C68FEBE05120C68111D
:1025A300BF05120C6864BF05120C689DBF05120CB1
:1025B30068CCBF05120C681AC005120C6869C00507
:1025C300120C6884C005120C688EC005120C689F3B
:1025D300C005120C68E5C005120C68BFDD05120CBE
:1025E300683AF104120C6864F104120C6880F10477
:1025F300120C6893F104120C68A9F104120C68061A
:10260300F204120C6839F204120C6875F604120C09
:10261300689BF704120C68CEF704120C681AF804CE
:10262300120C6846F904120C686EF904120C6883E4
:10263300F904120C6893F904120C68D7F904120C0C
:102643006838FA04120C6848FA04120C6809D605B3
:10265300120C6824D605120C684DD605120C686757
:10266300D605120C688CD605120C68ABD605120C75
:1026730068C3D605120C68F1D605120C680BD70592
:10268300120C68EADE05120C688EAE05120C689512
:10269300AE05120C68A1AF05120C68D1AF05120C80
:1026A30068F7AF05120C681AB005120C683CB00548
:1026B300120C6876B005120C68DCB005120C6815B4
:1026C300B105120C6861B105120C688EB105120CCC
:1026D30068AEB105120C6869D205120C6881D20587
:1026E300120C689CD305120C689FD305120C68E189
:1026F3007E00120C68537F00120C68917F00120C4D
:1027030068D27F00120C6803B203120C6822B20372
:10271300120C6890B203120C6801B303120C689890
:10272300B303120C68B4B303120C683AB403120C6B
:102733006800B603120C68C9B603120C68B3B80379
:10274300120C68D8B903120C68DBBA03120C688840
:10275300BB03120C6854BC03120C6866BD03120C55
:1027630068D7C103120C68BFC203120C6855C303B8
:10277300120C6884C303120C682EC403120C684441
:10278300C403120C6867C403120C68E1C403120C7F
:1027930068F7C403120C6822C503120C6836C6031B
:1027A300120C689CC703120C683CC803120C6880A7
:1027B300C803120C68F2C803120C685BC903120C3D
:1027C30068BDC903120C6873CA03120C68ECCA0310
:1027D300120C6828CB03120C6894CB03120C68B953
:1027E300CC03120C680CCE03120C68AECE03120C91
:1027F30068DDCE03120C680FCF03120C6890CF0371
:10280300120C6869D103120C6818D303120C6814F4
:10281300D403120C6853D803120C6829DA03120C80
:102823006826A305120C68BFA305120C6836A4051D
:10283300120C68A5A405120C68CFA405120C6884B9
:10284300A505120C68A6DE05120C683CD705120C10
:1028530068D5D705120C6808D805120C682FA70590
:10286300120C684EA705120C689DA705120C68B9D7
:10287300A705120C68EAA705120C68F7A705120C46
:102883006804A805120C68F0A805120C682EA905A7
:10289300120C683EAA05120C6849AA05120C685B63
:1028A300AA05120C6864AA05120C686EAA05120C1C
:1028B300688FAA05120C68F89405120C683D9905F7
:1028C300120C684B9905120C682EDF05120C682652
:1028D300A803120C6819A803120C6813A503120CA1
:1028E3006875A203120C683EA103120C6892A00340
:1028F300120C68D89E03120C68889C03120C680F94
:102903009C03120C68BEB103120C686FB003120C67
:1029130068B69B03120C68469B03120C68CCAF038A
:10292300120C687FAE03120C681D9B03120C68FD2A
:102933009803120C68C99803120C68969803120C3A
:10294300687A9803120C68939703120C684B9703E9
:10295300120C68969503120C68169503120C6813F3
:102963009503120C68089403120C68D69303120C97
:1029730068139303120C683E9103120C68CF900303
:10298300120C68A19003120C682AAC03120C687530
:10299300AB03120C6893AA03120C685EAA03120C11
:1029A300682AAA03120C689E9003120C688B90038A
:1029B300120C68369003120C68259003120C680EF3
:1029C300AA03120C68178F03120C68E18E03120C12
:1029D30068678E03120C68328E03120C68AEA9036B
:1029E300120C68719202120C68D38D03120C68A248
:1029F3008D03120C686A8A03120C682A8A03120C6C
:102A0300681E8A03120C687E8903120C68BE880351
:102A1300120C68408603120C68D18303120C688F72
:102A23008303120C68638203120C68188203120C6E
:102A330068548103120C68278103120C686A8003AF
:102A4300120C68008003120C683A8003120C68664B
:102A5300A903120C6837860200000080FBE47300B0
:102A630001363601010001020100010301000104E6
:102A730001060605020000070100340801000F09E2
:102A83000401010D0100FF0E0800001702000019E8
:102A93000100FF1A0100011B0100FE1C0100081DBB
:102AA3000200001F01000120010001210200002398
:102AB30001000F240200002601000127010008285D
:102AC3000200FF2A0100072B0102402C0100002D08
:102AD3000100012E0100012F0100FF30010B1C3109
:102AE3000800003A0100083B01000F2F010000001D
:102AF300000400420113980000050042013D9800C4
:102B030000060042019E95000007002001D99900AC
:102B13000010004203990E000012001003A40E03DC
:102B23000000002103D104060000002001D30402A9
:102B33000400002901A50E020401002901C3990222
:102B43000402002901BD99050400002901A70E050F
:102B53000401002901AF99050402002901C9990361
:102B630004710402046004110470040204020401E9
:102B73000402041004610400041404630473047263
:102B83000462044304000413040604000400040460
:102B9300041204000400040004000451046400004F
:102BA3000400040004440400040004000400046559
:102BB3000400043504810464000504000483040054
:102BC3000403027102300160021102700201020269
:102BD3000202028002100261023A004100630273A2
:102BE3000272026202430200021302380000020072
:102BF30002040212020002000200020002040204A4
:102C030002370037003C0244020002390000020090
:102C1300026502000235028102000205028202837C
:102C230002000201017101010101011101010131E0
:102C330001010101018001100161013B00140063E6
:102C43000173017201620143010001130106013D99
:102C5300013500040112010001000100010001041B
:102C6300010401330133013C014401320136000008
:102C730001000165010001350081010001050182A8
:102C83000183010001010371030103010301030136
:102C930003010322030203010310030003000300E3
:102CA300030003000300030003420300032403069D
:102CB3000300030003040312032503230325032353
:102CC300030403040300030003000344030003009D
:102CD3000323030003650321003503810300030578
:102CE30003000300030003030071003001600011BF
:102CF30000700031022003500480001000610000C6
:102D030000140063007300720062004300000013AC
:102D13000006000000000004001200000000000094
:102D230000000004000400370037003C02440000A8
:102D33000000000000000065000000350081000075
:102D4300000500000083000000000004004201377A
:102D53009800000500420196970000060042010A10
:102D630096000007002001D8990000100042030FCD
:102D73000F0000120010031A0F030000002103D7F5
:102D830004060000002001D904070000003001D729
:102D9300990700100030011B0F0000000000000025
:102DA3000000000000000000000000040042017366
:102DB300980000050042017D960000060042015B79
:102DC30096000007002001D199000010004203790A
:102DD3000F000012001003850F0200000009018696
:102DE3000F030000002103E104060000002001E3BB
:102DF30004020400002901860F020401002901CD09
:102E030099020402002901CB990000040042018BBE
:102E1300980000050042013497000006004201407B
:102E230096000007002001D49900001000420328F7
:102E33000F000012001003330F030000002103DA18
:102E430004060000002001DC04070000003001D369
:102E530099070010003001340F000000000000004B
:102E630000000000000000000000000400420131E7
:102E73009800000500420143980000060042014902
:102E830096000007002001D2990000100042034180
:102E93000F0000120010034C0F030000002103DD9C
:102EA30004060000002001DF040000000000000011
:102EB30000000000000000000036000100060000D2
:102EC300000F0000000000000000000000000003ED
:102ED300FFFF00000403FFFF0000FFFF0FF40100EA
:102EE30005C4040320000100000B000000000000E3
:102EF300000003010F000051221300A9210100511A
:102F03002202004F210300552104005B21050061CB
:102F13002106006D213000852131007F213200918F
:102F2300213300972134009D21FFFF0000D327FDAB
:102F330027D9271B28DF270328DF270F28E5271B8F
:102F430028DF270328000000000000000000000025
:102F5300000000000000000000EB271B28F12715EC
:102F630028F7271B2801D31206031308FD120B159C
:102F730013104F1202D91205F11207DF120CB5120A
:102F83000DC712FF000003EAF5E5D5D5C5B5A59534
:102F930095858575756565555545453535252515DE
:102FA3001505FF162F1705170B1729171D171717C9
:102FB30035173B1741174D171117F916F31600165E
:102FC3000F00000B150B020002220F32000006E96E
:102FD30017FB170118C9160718C316CF1643186134
:102FE300186718491855184F180316FD1539163F59
:102FF300163316EB150C0E020B040B0A0708000F11
:103003000001191618161615230300000349484238
:103013004D181725050200383C3E363B3B352B4304
:103023002C303017181921301B1D1F303030161863
:103033001920231A1C1E30231747175B18531759DF
:103043001737180D1813181F181918020402010155
:10305300010109020F161516091645160000000096
:1030630000001B162D1600BE040A0E0004007F008C
:10307300E8030C0028000000000015000308100CF2
:103083000A03080900040001FF1E1E0C05040810B2
:103093000F0974F61207E574FF120D318518828546
:1030A3001983E4F08582088583097808120C8575F5
:1030B30008017509007808120C851230E9740412AE
:1030C3000CCD740102492074F61207E58C088D09B2
:1030D3007808120C8575080B7509007808120C85A1
:1030E3001230E902491E123112121F6F2274F612B6
:1030F30007E58C088D097808120C8575080B75098E
:10310300007808120C85123112121F7502491EEA4B
:1031130075F00BA4FAA8F075F00BEBA428FBEAFCFE
:10312300EBFD7A237B0022C082C0838A828B83E0FB
:10313300D2E7F01220AD024610C082C0837900129C
:1031430036B81268C0C082C08390033412563ED092
:1031530083D082C3E09CA3E09D500C126F94FAA32A
:10316300E012316D600109024610FBEA75F00BA411
:10317300FAA8F075F00BEBA428FB900336E02AF8CD
:10318300A3E03B8882F583E0540F2274F71207E52E
:1031930089081236B812375EACF075F00BE9A42C2F
:1031A300F9900336E028FEA3E039FF740165086057
:1031B300067402650870208A828B8312374A12488C
:1031C3001474026508701B12360912379170138E3E
:1031D300828F83E4F0800BEA2403FCEB12372C127A
:1031E3003738EEFAEFFB120F9D02464874F41207CC
:1031F300E51278BB79008E828F83E06076890A8935
:103203000B8065E50A75F00BA4FAA8F075F00BE5E1
:103213000B12317A7046E50A75F00BA4F8AAF07523
:10322300F00BE50B1237708E828F83E08508828561
:103233000983123852850882850983A3124814EE44
:103243002403FCEF12373512461712633AAA08AB70
:1032530009120F9D7901900334125D47E50A240199
:10326300F50AE50B3400F50B123611E50A9AE50B66
:103273009B4090024AC474F51207E5EAFEEBFF7423
:103283000B120F7812461C750A01EC4D602BEC12E1
:1032930078D7ED1268C012480C7901120FA9E5081E
:1032A3004509606F850882850983A31278C5790271
:1032B300AA08AB09120FA9805AE5084509602B1229
:1032C30068C4124F8612461812377B700CEEFAEF61
:1032D300FB120FAFE9F50A80CBEE2403FA1236B3E3
:1032E30070317903EEFAEFFB80CA8E828F83A3E0FD
:1032F30064FE7003A3E0F4700BEE24030A0A0A12BF
:1033030036B3700CEEFAEFFB120FAFE9F50A800348
:10331300750A00A90A7F03020A4374F71207E590AE
:10332300033412477BEA4B602FEA75F00BA4FAA82B
:10333300F075F00BEBA428FBEAFEEBFF121EEB90FB
:10334300033612477B900336125B8C6012EEFCEF60
:10335300FD7900121E4F8007900336E4F0A3F002BC
:10336300464874F61207E5E4F508F5097808120CE7
:103373008590033412563EEC75F00BA4FCA8F0754F
:10338300F00BEDA428FD7A237B00121F6374021255
:103393000CCDE9FE6003120FC7026AD374F712075C
:1033A300E57E007F00800AEEFAEFFB120F8B1242DC
:1033B3003712342740F102464874F71207E57E00BE
:1033C3007F008012123696FCA3E039FDEEFAEFFB84
:1033D300120F9712423712342740E902464874F716
:1033E3001207E57E007F008033EEF8EFF9E875F011
:1033F3000BA4F8AAF075F00BE9A42AF9900336128E
:10340300605588828983E0A2E7500EC2E7F0AC8260
:10341300AD83EEFAEFFB120F9112423712342740BD
:10342300C80246489003341252F6C3EE98EF99222D
:10343300C082C083EC4D600512270180097C087DA2
:10344300007900121E4F02461074F61207E5790048
:10345300EA4B601878008808126C07EB126F9060D3
:10346300047901780808E8C3940840EA0249237400
:10347300F71207E574F3120D31ECFEEDFF851882A8
:10348300851983E4F004120F78EAF0A3EB1260C00D
:103493007403120F78AC82AD83EEFAEFFB120FD9EF
:1034A300EEFAEFFB120FDF02464374F71207E574DF
:1034B300F3120D31ECFEEDFF851882851983E4F0DC
:1034C300EAFCEBFD7403120F7812384B7401120FF0
:1034D300781248088E828F8312481474FE68700332
:1034E30074FF69600479018002790002464374F72E
:1034F3001207E5EAFEEBFF12354F701412355A8EB0
:10350300828F83E0F4F88A828B83E058F0120F9D58
:10351300A90802464874F71207E5EAFEEBFF7508AF
:10352300008E828F83E0602212354F701D12355A50
:103533008A828B83E08F838E82F8E058700CE0F8E8
:103543008A828B83E048F0120F9D80C4120FA3E997
:10355300F50874016508221278D01237621236A476
:10356300FAA3E039FB2274F41207E58A088B097C7D
:10357300007D001236091237381236C91278C27923
:1035830000850882850983A3E064FE7003A3E0F449
:1035930060717E007F008062EEFAEF12316D60573A
:1035A300EEFAEFFBEA75F00BA4FAA8F075F00BEB5B
:1035B300A428FB900336E02AF50AA3E03BF50B852C
:1035C3000882850983A3126006850A82850B83A37B
:1035D300E06A7003A3E06B701EE50A2403FAE50BAF
:1035E3001236B4700AE50A2403FCE50B12373512D0
:1035F30036BD79011268D6124237123611EE9AEFB0
:103603009B4095024AC4EA24030A0A0AEB22900368
:10361300341264ADC32274F31207E58A088B098A56
:10362300828B83A31278C51236B81278C2750C0048
:103633001236091236B470547E007F008049123668
:1036430096FAA3E0398A82F583E0540F6036123686
:1036530096F50AA3E039F50BE50A2403FCE50B1202
:10366300373F3400FB1226FBE964017017850A8299
:10367300850B83A312656EA31248141236BD750C15
:10368300011268D612423712342740B2A90C7F05C3
:10369300020A43EEF8EFF9E875F00BA4F81236A42A
:1036A30022AAF075F00BE9A42AF9900336E0282248
:1036B300EF12378B221278D6EB221236C91268D159
:1036C300EEF0A3EFF022E5081278D7E5092274F5AE
:1036D3001207E5EAFEEBFF8E828F83A31278C57C87
:1036E300007D00EE24030A0A0AEF123738EEFAEFE0
:1036F300FB120FA3E9F50A7401650A70291278D049
:1037030012375EAAF075F00BE9123770850882F55F
:103713008312374A12377B700DE5082403FCE50951
:1037230012372C1237380233163400FDEE2403FA15
:10373300EF2212373F3400FB120FD9223400FDE58C
:10374300082403FAE50922A312374F221237532222
:10375300E0F8A3E0F98E828F83A32212376222342A
:1037630000F5831252FAE875F00BA4F8221236AA78
:10377300F508A3E039F50922E8F0A3E9F0E5082408
:1037830003FAE50912378B221237916401223400C0
:10379300FB120FDFE92274F31207E574E6120D3111
:1037A3001278BB750C01750800750900750A007560
:1037B3000B00851882851983E4F0EE2403FCEF34B3
:1037C30000FD7403120F7812384BE96401702374FF
:1037D3000B120F7812480C7401120F7812600A70E2
:1037E30003A3E06960518518828519838582088562
:1037F3008309740D120F78E4123852740E120F7885
:10380300124814740D120F78AA82AB83120FFDE9CC
:103813006401700B740D120F7885820A85830B780F
:103823000A120C85AC08AD09EEFAEFFB120FB57462
:1038330002120CCDE9F50CEEFAEFFB120FF7A90C0F
:10384300741A120CCD023691123B1E12100322126F
:1038530047761252F622C082C08378007900800333
:10386300123949123611E89AE99B5029E8FAE9FB23
:10387300EA75F00BA4FAACF075F00BEBA42CFB90FB
:103883000336E02AFCA3E03B8C82F583E0540F70FF
:10389300CF790080027901024610C082C083903044
:1038A3007D12534CEC75F012A4FCA8F075F012EDE8
:1038B300A428FD79FF7AA87B08121E4F02461074D4
:1038C300F71207E5E9FEEAFF7A007B00780079004A
:1038D3008028E8FCE9FDEC75F012A4FC85F008757E
:1038E300F012EDA42508123D5EC39E400AE0FCEFF2
:1038F300C39C400312410C123949123D5240D3027A
:103903004648C082C0837800790080031239491287
:10391300393D501F123D62F470F2E875F012A4F8BD
:10392300AAF075F012E9A42AF974A828FA740839E0
:10393300FB80047A007B0002461090307D123FE446
:10394300C3E89AE99B22E8240108E93400F92274C8
:10395300F01207E574F3120D318A0A8B0B8C0C8D70
:103963000D8908EC450D6016AA0CAB0D1210518A97
:103973000E8B0FAE0EAF0FEE4F6003023A10121014
:10398300278A0E8B0FA80EA90FE8FEE9FFE849600E
:103993007C90307B123A726022740365086006746F
:1039A30004650870167A04790312102190307B1293
:1039B3003A8940077A007B00023A6F903079123AD5
:1039C30072601B74016508600674026508700F7AE3
:1039D300027901121021903079123A8950D6851854
:1039E300828519837401F0120F7812633AAC0CAD1F
:1039F3000D7403120F78123B17740B120F781246D3
:103A030024124CFAE41263221215438004EE4F6031
:103A13004A780074FF2508C39404500278048E8208
:103A23008F8312633A8E828F83A3A3A3A3E508F047
:103A3300E88E828F83A3A3A3A3A312634212058DEF
:103A43001240018E828F83A3A3A3A3A3A3A3F01287
:103A53003FF8120F4D1268BA120F41123A77400520
:103A6300900E16E4F0121417EEFAEFFB0253001255
:103A7300645C49227A04790012102190307D126F20
:103A830076EA98EB9922123AA275833075827DE427
:103A930093C398F8A3E49399F9C3EA98EB9922E4C2
:103AA30093F8740193F92274F21207E574F3120D7B
:103AB300318A088B09ECFEEDFF750A00EEFAEFFB85
:103AC3001210518A0C8B0DA80CA90DE849603E8891
:103AD300828983E065087004A3E06509602F88820A
:103AE3008983A3A3A3A3E0C3940550211267688528
:103AF30018828519837401F0120F7812676CEEFC3B
:103B0300EFFD7403120F78123B17750A01A90A74AB
:103B13000D025DFE123B1E12100F22AA82AB83120E
:103B23000FD9851882851983AA82AB832274F61272
:103B330007E5123B6C600FA3A3A3A3E014C3940493
:103B4300500479018002790002492374F61207E5D3
:103B5300123B6C600FA3A3A3A3E014C3940250040D
:103B630079018002790002492312104B8A828B83E8
:103B7300E58245832274F61207E5123B6C600BA3C2
:103B8300A3A3A3E07004790180027900024923C052
:103B930082C083EAFCEBFD7A007B0002460DC08203
:103BA300C0837C007D0002460D74F41207E574F3B4
:103BB300120D31EAFEEBFF8C0A8D0BC3EC94F8ED8A
:103BC30094FF4007EE4F7003023C657508007509CA
:103BD30000802E8518828519837401F012425F12CA
:103BE3000F7812426D60137403120F78AC82AD83A9
:103BF300EEFAEFFB1226FBE97049E5082401123DBA
:103C0300FE90307DE4126464E50898E5099950520A
:103C1300E50875F012A4F8AAF075F012E509A42AD4
:103C2300F9126FA960D4EE4F70A974FF650A70048E
:103C330074FF650B60C412424F650A7004A3E0650C
:103C43000B70B7E50875F012A4F508A8F075F0122B
:103C5300E509A428F50974A82508FA74083509FBB1
:103C630080047A007B00024ABF74F41207E574F300
:103C7300120D317508001210518A0A8B0BAE0AAF70
:103C83000BEE4F602A8518828519837401124770E1
:103C9300F8A3E0F9740B120F7812499D120FF17C0F
:103CA300127D0079FFEEFAEFFB121E4F7508011229
:103CB3003A775009900E167401F0121417A90802EE
:103CC3004ABF74F71207E5E9FE74FE6A700374FFD6
:103CD3006B7800790070058052123949123D5250B9
:103CE3004AE8FCE9FDEC75F012A4FCAFF075F012A4
:103CF300EDA42F123D5EF460E0E8FCE9FDEC75F005
:103D030012A4FC75F012EDA42FFD74A82CF5827497
:103D1300083DF583E06A7003A3E06B70BC80091271
:103D23003D6214C39404401712394912393D5018A7
:103D3300EE70EC123D6264016005E0640370E91209
:103D43004240FAA3E0FB80047AFE7BFF02464890E0
:103D5300307D125350C3E89CE99D2212414122E871
:103D6300FAE9FBEA75F012A4FAACF075F012EBA4D1
:103D73002CFB74AC2AF58274083BF583E022121005
:103D830063024610C082C083790180F274F0120787
:103D9300E58A0A8B0B7A0479011210218A0C8B0DA8
:103DA300EA450D603EEAC333FAEB33FB121EEB8A9E
:103DB300088B09AE08AF09EE4F60237AFE7BFF1232
:103DC300106974FE6A700374FF6B601B850882853B
:103DD300098312477BE5082402123DFE80E1750C3E
:103DE3000080047E007F00850A82850B83E50CF04A
:103DF300EEFAEFFB025305E5082407F508E509345D
:103E030000F5092290307D125350C3EA9CEB9D22AA
:103E130074F61207E5E4F508F5097808120C8590A5
:103E2300307DE493F508740193F50974037808125F
:103E33000E60123E4A121F637402120CCDE9FE603B
:103E43000312107B026AD3E5082402FCE50934005F
:103E5300FD7A227B002274F61207E574FE120D31FF
:103E6300851882851983E4F0A31247FA85820885B1
:103E730083097808120C8575080275090078081201
:103E83000C857C007D007A227B00121F6F74041264
:103E93000CCD740202492074F11207E574DF120D90
:103EA30031851882851983858208858309780812EC
:103EB3000C857508027509007808120C857C007D55
:103EC300007A227B00121F757404120CCDE9600383
:103ED300023FD290307D123FE4124802C3EA98EBCE
:103EE300995003023FD2750800023FC7740F120FA7
:103EF3007885820A85830B780A120C85750A087502
:103F03000B00780A120C8585080A7403780A120ECE
:103F130060E50A2402FCE50B123E51121F7574047E
:103F2300120CCDE96003023FC57411120F78E0F45F
:103F33007003A3E0F47003023FC57402120F787498
:103F430001F07411120F78124808740D120F7812D1
:103F530048147402120F78AA82AB83121009E96025
:103F63006190037512563E740F120F781260061299
:103F73001543E50875F012A4F8A9F074A828FE7497
:103F83000839FF740F120F78A982AA83890C8A0D4E
:103F9300750E00780C120C817C08123FEC120CCDCC
:103FA30012634712058D124001123FF8120F4D1292
:103FB30068BA120F41123A774005900E16E4F012D8
:103FC3001417050885080A126F6A5003023EEF852D
:103FD3001882851983E0F97421120CCD7F07020A38
:103FE30043E493FA740193FB227D00EEFAEFFB1294
:103FF3001E437403221268CBE4F090991C22E88ECE
:10400300828F83A3A3A3A3A3A3A3A3124023740117
:10401300124023A3F0EE24101268CEE4F0A3F022A2
:10402300124D06A3A3A32274F41207E574FE120D26
:1040330031851882851983E4F0A3F0FE8067EEF8DA
:10404300EFF9E875F012A4F8AAF075F012E9A42AC2
:10405300F974A828F50A740839F50B780A120C8547
:104063007508087509007808120C858E088F097485
:10407300037808120E60123E4A121F6F7404120C6A
:10408300CD850A82850B83A3A3A3A3E0F4600F85E8
:104093001882851983E02401F0A3E03400F0EE24B4
:1040A300010EEF3400FF90307D127550409085185B
:1040B300828519838582088583097808120C8575A2
:1040C30008027509007808120C857C007D007A22AD
:1040D3007B00121F6F7404120CCD7402024AC1C01C
:1040E30082C0837A007B0080041912410C123E07C0
:1040F300501012412BC3940550F0E970EC12411596
:1041030080047A007B00024610EA24010AEB3400A3
:10411300FB22EA75F012A4FA75F012EBA428FB74E3
:10412300A82AFA74083BFB22EAFCEBFDEC75F012BB
:10413300A4FCA8F075F012EDA42812414122FD74ED
:10414300AC2CF58274083DF583E02274F71207E581
:1041530074F3120D317E007F000241F3E50875F020
:1041630017A4F8A9F012720AFAA3E0FBEEF8EFF92C
:10417300E875F012A4F8ACF075F012E9A42C124221
:104183004E6A7003A3E06B603FE50875F017A4F86F
:10419300AAF0EA127209F8A3E0F97401120F78E0A9
:1041A300687003A3E0696020E50875F017A4F8EAD6
:1041B300F9742428FC740A39FD7403120F78AA8257
:1041C300AB831226FBE96014E50875F017A4F8A980
:1041D300F0742228FA740A39FB12154F050890303F
:1041E30081E493F8E508C398500302415F12423714
:1041F30090307D1275505039EEF8EFF9124240F4C9
:104203007003A3E0F460E68518828519837401F0D6
:10421300EEF8EFF9E875F012A4F875F012E9A42AA4
:10422300F912425F120F7812426D60C17508008067
:10423300AD024643EE24010EEF3400FF22E875F091
:1042430012A4F8AAF075F012E9A42AF91242532233
:1042530074A828F582740839F583E02274AA28F536
:10426300827408391252F4740B22E8F0A3E912495C
:10427300A5121009E922C082C08390033D74EBF0BC
:10428300A37412F090033F74E5F0A37412F090034B
:10429300437405F0A37411F002461074F71207E596
:1042A300EAFEEBFF900377E06408601BE0640460C0
:1042B300168E828F83E054036401704812461712EE
:1042C3004DFBE06406703D8E828F83A3A3E064FE02
:1042D3007003A3E0F4602D8E828F83A3A31248089A
:1042E300900368E0687003A3E069700BEE2415F592
:1042F30082EF126F90600812139FE9F5088008128D
:1043030013A580F67508C2EEFAEFFB121EF1023513
:104313001374F41207E58A088B098A828B83E0F809
:10432300A3E0FAE82AFAE43400FB121EEB8A0A8BB4
:104333000BAE0AAF0BEE4F6063850882850983E0FD
:10434300FC7D007900121E4F8E828F83A3A3127807
:10435300C51213E18E828F83A3A3A3A312477B8588
:104363000882850983E0F8EE28F8EF34001248103C
:10437300850882850983A3E0C0E0EE240D1268BDA1
:10438300D0E0F01213F3EE240E1268BDE9125F675A
:10439300E0C0E0EE24111268BDD0E0F0EEFAEFFBCE
:1043A300024AC474F61207E574EB120D31EAFEEB10
:1043B300FF125B89600302444A7A077B00121EEBFB
:1043C30090033912477B125B8960788E828F831248
:1043D3000F4D90033A124DFE120F41127789C0E040
:1043E300124456D0E0F0EE2405FAEF3400FB8A08BD
:1043F3008B098A82F583E0C0E0124451D0E0124A6F
:10440300BBE0C0E0124451A3D0E01247EF120F4DBE
:10441300851882851983120F4188828983E0C0E061
:104423007405120F78D0E0F0850882850983E0C017
:10443300E07404120F78D0E0F07407120F7812457D
:104443008C80067910800279017415024920124488
:1044530056A322900339E0FAA3E0F5838A82A3A34B
:10446300A3A322C082C083125B89600D900339121B
:10447300649B900339E4F0A3F012130F1214EF02BC
:10448300461074F01207E574EB120D31ECFEEDFFEC
:1044930089087425120F78780C120F167429120FDD
:1044A30078E0F9742A120F78E0FC742B120F78E08D
:1044B300FD740F697005740F6C6012900FB1E064A6
:1044C30002700579C1024587E9C39C40F6900378E1
:1044D300780C120EE9E50890037EF0E990037CF076
:1044E300ECA3F0ED90037FF074FF6A700374FF6B2D
:1044F300701D900FBCE0F47003A3E0F47005121E6E
:104503005B800C900FBC12462DE8F0A3E980079066
:104513000375EAF0A3EBF0EE4F6017EEFAEFFB1230
:1045230015AFE96401700BEEFCEFFD7A897B031292
:104533002701900368E4F0A3F090036BF0A3F090DD
:104543000388F0900FB1E06402700890037C740F4D
:10455300F0A3F09003777405F014120F78E4F09051
:104563000378120F4D851882851983120F4190032A
:104573007EE0C0E07405120F78D0E0F07407120FEC
:104583007812458C7415025302E41249A51228814E
:104593002274F71207E5E9900338F07A807B0090E4
:1045A30003C2E0F9121FB11210C97900024648C0D4
:1045B30082C083900338E070031221A31210C980D4
:1045C3004CC082C083900338E0900E157004E4F071
:1045D300802D7401F0900338E0F460237C41E0C344
:1045E30094415002E0FCECF8E0C398F0EC75F0E87D
:1045F300A4CCA8F075F003A428FD7A801253587A4E
:10460300157B0E794112286F8003121057D083D087
:1046130082020C65EE1268CC22E0F508A3E0F509EE
:104623002212462822123753A3221252F690037500
:104633002274F71207E5EB90037FF01212F780055F
:10464300740D120CCD7F01020A4374F71207E5744F
:10465300E9120D31EAFEEBFF7508008E828F83A30A
:10466300A3A3E0C0E07406120F78D0E0124770C035
:10467300E07408120F78D0E0F07409120F78740117
:104683001247EAF8A3E0F9E849600D8E828F83129E
:104693006006120FDFE970467407120F78E4F01218
:1046A30013DB7404120F7812477B900377E06404E2
:1046B300700E1213E77402120F78EAF0A3EB800B6B
:1046C3007402120F7874FDF0A374FFF07402120FDA
:1046D30078AA82AB83121435E9F508024769851875
:1046E30082851983AC82AD838E828F83126006121A
:1046F3000FEB8E828F83A3A3A3A3E070247407120E
:104703000F7874011247817402120F781248148EC5
:10471300828F831248087404120F78E8F0A3E980AB
:10472300AA124802740A120F781248147414120F52
:10473300787401126DFDE0C0E07415120F78D0E0BB
:10474300F07416120F78E41247EAFCA3E0FD740C30
:10475300120F78AA82AB83122701740A120F78AA68
:1047630082AB83122095A908741702464512477637
:10477300A3E0221247EFA322EAF0A3EBF0221247B1
:10478300F5F8A3E0F92274F71207E574F8120D3176
:10479300EAFEEBFF7900900377E064087044851824
:1047A3008285198374FDF0A374FFF01213DB740286
:1047B300120F7812477B7405120F78E4124776E0E4
:1047C300C0E07404120F78D0E01247EAC0E0740628
:1047D300120F78D0E0F07407120F78E41249A11297
:1047E300143574080246451247EFE022F08E828F9B
:1047F30083221247FAE022F08518828519832285E5
:1048030018828519831252F622E0F8A3E0F91268A0
:10481300CBE8F0A3E9F02274F11207E5890BECFE73
:10482300EDFF750E00750A00E92479602824FC6009
:104833007924F3601324FC601514603E14600302B2
:1048430048F990037702491390036502491312153F
:104853003DEA024914750AC11215498A088B09EA0F
:1048630045097003024919750A007808120C817C06
:1048730017123FEC120CCD0249197892790B7C0088
:104883007D00801688828983E064FE7003A3E0F4D0
:104893006002050E1278A91278B29030771265651E
:1048A30040E28E828F83E50E806B750AC175089294
:1048B30075090B7C007D008008050E123DFA127805
:1048C300B2903077E4126464EC98ED99504885080F
:1048D30082850983E064FE7003A3E0F460DD850E46
:1048E3000CEA650C7001EB70D0750A007808120CA5
:1048F300817C07024874747F250BC3941E400575A1
:104903000AC98012890874D3126C0874021268C031
:10491300E08E828F83F0A90A023FDF7404120CCD6C
:104923007F02020A43C082C0839003497495F0A3B7
:104933007411F09003EF7495F0A37414F090034D89
:1049430074CBF0A37411F090034F7495F0A374111A
:10495300F090035174D1F0A37411F002461074F473
:104963001207E574F9120D318A088B098C0A8D0B35
:104973008518828519837808120EE97404120F785A
:10498300E9F07405120F78E4F07406120F78E4125C
:1049930049A11210AB7407024AC1E8F0A3E9124916
:1049A300A5221247FAAA82AB832274F41207E58A7E
:1049B300088B098A828B831268D9EE4F7003024AEF
:1049C300B9900312125B8C60158A828B83A3A3E0D8
:1049D300F9EEFAEFFB900313124DFE122A608E825A
:1049E3008F83A3A3A3A3A3A3A3A3A3E064027074CD
:1049F3008E828F83A3A3A3A3A3A3E0540270030215
:104A03004A8B850882850983A3A3E064E960798ED4
:104A1300828F83A3A3A3A3A3A3A3A3A3A3E070143D
:104A2300900FB4E0048E828F83A3A3A3A3A3A3A3B5
:104A3300A3A3A3F08E828F83A3A3A3A3A3A3A3A360
:104A4300A3A3E014124ABBA3A3A37404F0900FB56D
:104A5300126314E8F0A3E91273ED8B0BEA450B70B4
:104A630003126DCB8E828F83A3A3A3A3A3A3A3A3BC
:104A7300A3E0640260128E828F83A3A3A3A3A3A3E4
:104A8300A3A3A3E06406702E8E828F83A3A3A3A3A4
:104A9300A3A3E0A2E0501F850882850983A3A3E0B6
:104AA300F9EEFAEFFB12293B8E828F83A3A3A3A314
:104AB300A3A3E054FEF08009124D0222740D120CE0
:104AC300CD7F04020A4374EC1207E574DD120D3145
:104AD300EAFEEBFF8C088D097437120F78780C12FD
:104AE3000F16750A007405120F78AC82AD83122974
:104AF300897412120F78E070087415120F78E06051
:104B0300207405120F78E0A2E6501E8E828F83A3D5
:104B1300A3A3A3A3A3A3A3A3126006121471E96022
:104B23000879031226E9024CE87405120F78E05461
:104B33000C64047005750B018003750B00E0A2E59E
:104B43005035750A01E50BA2E0402C1213E18A10DF
:104B53008B11A810A911124617E0687003A3E0692E
:104B630060157405120F781278CC1260021229476F
:104B7300E96004790480AC7405120F78E0A2E65072
:104B8300227406120F78E0540370187405120F781C
:104B9300E0540C640C600CE0540C64086005751060
:104BA3000180037510007405120F78E05403F87444
:104BB3000268700C1278CC12600212290B024CE8C6
:104BC300740168703AE510A2E05003124CF07405CA
:104BD300120F78A882A9837403120F78E8F0A3E96F
:104BE3001252EA851882851983124CFAE0C0E074E8
:104BF30002120F78D0E01249A1122A31024CE8E8E0
:104C03006003024CE890035FE0640170108E828FB2
:104C130083A3A3A3A3A3A3E07003024B767422127E
:104C23000F7874021252EA741A120F78124814E5BC
:104C330010A2E050087405120F78124CF0E50BA295
:104C4300E0506AEE240FF582EF126F90C0E0741704
:104C5300120F78D0E0F0900314125B8C7003024CB7
:104C6300E81213E18A128B13A812A913741A120FF4
:104C730078E0687003A3E069706B780C120C7D78A0
:104C83000A120C897808120C85A910740C120F787B
:104C9300AC82AD837421120F78AA82AB8390031484
:104CA300124DFB122A607407120CCD8038780C1257
:104CB3000C7D780A120C897808120C859003751202
:104CC3000B10EE2412F582EF126CBE7423120F78D0
:104CD300AC82AD83740E120F78AA82AB8312292F94
:104CE3007409120CCD7423120CCD0273B81278CC54
:104CF3001264A912292322E8F0A3E9124D02221219
:104D03004D0622F08E828F83A3A3A3A3A3A32274B1
:104D1300F71207E512206502464874F71207E512F9
:104D2300206B02464874F71207E5122077024648C3
:104D3300C082C08312207102461074F71207E51275
:104D4300207D02464874F71207E57409120F78E0D4
:104D5300F5087808120C891220897401024645C0AF
:104D630082C083122095024610C082C08312209B0A
:104D730002461074F71207E51220A102464874F7A1
:104D83001207E5EAFEEBFF890874016508701479E0
:104D93000012120D90308CE493FC7900EEFAEFFBD5
:104DA30012118302464874F41207E574F9120D31A7
:104DB300E9FE8A088B098C0A8D0B7413120F781283
:104DC300600690061F125B8C6027EE85188285199A
:104DD30083F07401120F787808120EE9EAF8EBF900
:104DE3007405120F7812499D90061F124DFB122A6B
:104DF30060024998FB90034BE0F8A3E0F5838882B7
:104E030022C082C0831220D102461074F71207E534
:104E1300900E18E0F97E00800B126F7C540D640134
:104E23007001190E1250085003E970ED02464874E0
:104E3300F71207E5900E19E0F97E00800B126F7CE4
:104E4300548D64817001190E1250085003E970EDFE
:104E530002464874F21207E5890BE975F006A424AB
:104E63000CF508E5F0123E028A0CE508250CFAE57C
:104E7300093400FB121EEB8A0C8B0DAE0CAF0DEE4A
:104E83004F6027AC08AD097900121E4F124617E593
:104E93000BF0EE2508F8EF3509F98E828F83A3A373
:104EA300A3A3A3A3A3A3A3124814EEFAEFFB025EEA
:104EB3000174F61207E5EAFEEBFF12115F900E177D
:104EC300E0F8E9C3984009900345126006121165A2
:104ED300EE2402F8EF12661E9003471264D8900383
:104EE30047E004F0EEFAEFFB12116B8508828509A7
:104EF30083E0026AD4C082C08379009003458001B5
:104F0300091260068A828B83E582458370F202462A
:104F13001074F71207E5EAFEEBFFEE4F60569003BD
:104F230045125B8C604E888289837A007B00EE6534
:104F3300827003EF6583600FAA82AB83124F7AE519
:104F4300824583602F80E7900345124F8668700285
:104F5300EF698E828F83700812480890034580039F
:104F63001273CA124814EEFAEFFB122A01EEFAEF9B
:104F7300FB121EF1024648124F7E221252FA888219
:104F83008983221252F6EE22C082C08390034580A9
:104F93000488828983125B8C600B88828983125612
:104FA3003EEC4D70EC8A828B83E4F0A3F0E8496019
:104FB3000688828983800390034512477B0246104B
:104FC30074F71207E590034580048A828B8312509D
:104FD300034B60257E0080010E12500850ECEE75E5
:104FE300F006A4FCADF0EA2CFCEB3DFDEC2410F53F
:104FF30082ED12505870E180047A007B000246482B
:105003001264ADEA22125061EEC3982274F71207BC
:10501300E57D0080010D12505DEDC3985034ED75B0
:10502300F006A4FEA8F0E8FFEA2EFEEB3FFFEE2415
:1050330010F582EF12505870DCED75F006A4FEE80F
:10504300FFEA2EFAEB3FFBEA2411F582EB126F9095
:105053004CF0024648126F9C69221250612212786A
:10506300D6EB3400F583E0F82274F61207E512124A
:10507300857A007B008025EAF8EBF9E875F006A451
:10508300F8ACF075F006E9A42C126482127797A3AA
:10509300E4126578F0A312779D127914903075129B
:1050A3003A8140D37A007B00801C8A088B09740301
:1050B3007808120E60125F2EA374FEF0A30412632D
:1050C30058A3E412791490308012510B40DC7A001B
:1050D3007B00801D8A088B0974037808120E6074A4
:1050E3004A126C08740D12744F74FEF0A304127903
:1050F3001490308612510B40DB90308AE493900376
:1051030053F0125115024923E493F8C3EA98EB9440
:1051130000227CE87D037A107B009003C2E0F91241
:105123001FAB2274F01207E574F5120D318A088B58
:1051330009890A8C0BE9A2E050147508FC7509FF74
:10514300A2E15005D2E40251E8D2E30251E8125D34
:10515300ED7003A3E069700579000252B5AC0A79DA
:1051630002AA08AB09121261E960EDE50AF50C78B1
:105173000C120C8979027CFE7DFFAA08AB09125B35
:1051830068120CCDE960030252B3E50AC2E5F50AE1
:105193009003B5E07051E50AA2E6404B7403120F89
:1051A30078AC82AD83AA08AB09120FE5E97032121D
:1051B30054898A0C8B0DA80CA90DE8FEE9FFE84978
:1051C3006025EE24020A0AEF123791601AEE2402D8
:1051D300FCEF3400FD7403120F78AA82AB8312270D
:1051E30001E50AD2E5F50A900348E0F50C9003685F
:1051F300E0F50EA3E0F50F780E120C857D017C001F
:10520300900348E0F9AA0EAB0F1212197402120CA4
:10521300CDE9F8900348E004F0E860030252B3E5F7
:105223000AA2E55004740E80027406C0E0740112F1
:105233000F78D0E01268EA8A0E8B0FAE0EAF0FEE36
:105243004F60691252D31252EA888289837401F043
:105253007478550AA31278DCE50C1278DCA3E50810
:10526300F0E5091252C2E4F0E50AA2E5500F740317
:10527300120F78AC82AD83E824061252B98E828F66
:1052830083A3A374FDF0A374FFF0E50B60159030C6
:105293008DE493F8E50BC3985009EE24131268BD0F
:1052A300E50BF0EEFAEFFB12109F800679108002F7
:1052B30079C7740B8049FAE93400FB12270122886D
:1052C300828983A3A3A3A31252CE22126651A322DF
:1052D300EE24171268CE7401F01213DBEE241A12B7
:1052E30068CEEAF0A3EB22F01278D034001252F425
:1052F30022F5831252FA22E0F8A3E0F922740D1288
:105303000CCD7F08020A4374F61207E57A007B107E
:10531300126DD860089003D47401F080299006C000
:10532300E06401900FB27006E0FC79018004E0FCB8
:1053330079037A007B0012118390307312534C7AF5
:10534300007B1012535A02492312535022E493FC58
:10535300740193FD227B009003C2E0F9121FA52282
:1053630074EC1207E58A088B098C0C8D0D890E7479
:1053730014120F78125D477416120F78E0F510A31C
:10538300E0F511121471E960077AFF7BFF0254867E
:10539300900FB1E0640260030254797900AA08AB6C
:1053A30009121267A90E12125B8A128B13AE12AF87
:1053B30013EE4F70030254618E828F83A3A3A3A3C2
:1053C300A3E064018E828F83A3A370691260068EAB
:1053D300828F83A3A3A3A3A3A3E0541860439030B5
:1053E3008BE4938E828F83A3A3A3A3F0EA650C704F
:1053F30003EB650D6014EA650A7003EB650B600A45
:10540300EA65107003EB6511701F7810120C85AC00
:105413000AAD0BAA0CAB0D12156D7402120CCD80E4
:1054230008900367126DC2A3F074FE6A700374FFE1
:105433006B601D804EA3A3A3E0640360298E828F5B
:1054430083A3A3A3A3A3E0640470057AFE02538E8F
:105453008E828F83A3A3A3A3A3E0640270089003A7
:10546300B4E0640270101254898B0BEA450B60069A
:10547300AA08AB09800DAA08AB09900349124DFB9A
:10548300122A600273B8900375125B6E12153122F3
:1054930074F71207E5EAFEEBFF121039E9700AEE22
:1054A300FAEFFB121045E96006EEFAEFFB80047A8F
:1054B300FE7BFF02464874F01207E58A0A8B0B8CC9
:1054C3000E8D0F8909750800121471E979006003C4
:1054D300025630AA0AAB0B121267A90912125B8A91
:1054E3000C8B0DAE0CAF0DEE4F60198E828F83A324
:1054F300A3A3A3A3E0640270559003B4E064027015
:105503000302562EAA0AAB0B90034F124DFB122A2D
:105513006012104B8A0C8B0DA80CA90DE84970037F
:1055230002562E88828983A3A3A3A3A3E0A2E0400B
:105533000302562E750C01A2E150687901AC0AAD45
:105543000BAA0EAB0F1211B3E9706402562E8E82B2
:105553008F83A3A3A3A3A3E064037005750C028048
:10556300528E828F83A3A3A3A3A3E06401600302EB
:10557300562E90037512563E8E828F831259938A4C
:105583000C8B0DA80CA90DE84960D1903084E493ED
:10559300FA88828983E0C39A50C2A3E0600302566B
:1055A3002E80B988828983A3A3A3A3A3D2E1F0EEBB
:1055B3004F603A8E828F83A3A3A3A3A3A3E05418BF
:1055C300602B7508018E828F83A3A3120B10750CB9
:1055D300FE750DFF780C120C857900AC0AAD0BAA91
:1055E3000EAB0F1212797404120CCD803E90036837
:1055F300E0650E7004A3E0650F701490308CE493A3
:10560300FCA909AA0AAB0B121183750801801CA916
:105613000CAC0AAD0BAA0EAB0F1211B3E9700C75EB
:105623000801A909AA0AAB0B12120DA90802530516
:10563300E50C2415F582E50D1268D112632E227450
:10564300EA1207E574F0120D318A0C8B0D8C088D6C
:10565300097426120F78E0F514A3E0F51575120608
:105663009003F5125B8C602390037512563EAA08D3
:10567300AB0912155B8A108B11EA4511600D8A8202
:105683008B83A3E07005790002597BE50C241DF59B
:105693000EE50D3400F50F850E82125B78F5138845
:1056A300828983A3A3A3E0FA88828983A3A3A3A304
:1056B300E0F9EA2400FEE439FFAA08AB0912121349
:1056C300850E82850F831259B6E029F50BE50AA2F0
:1056D300E5500375120E7487550A70177418550A2E
:1056E3006418600FE50C2417F582E50D126F9065C1
:1056F30012600779011226E9808C530A78C3EE946D
:10570300F8EF94FF501D7900EEFAEFFB1259856014
:105713001288828983A3A3A3A3A3A3E054186003DD
:105723000256897808120C857D001259A9120CCDF6
:10573300E9F87403687003025689E860030257F4BA
:105743007418550A70030258A9E50AD2E0F50AA2B3
:10575300E45004D2E1F50AA90A125FFF12598560E9
:105763005388828983A3A3A3A3A3A3E0541860440B
:1057730088828983A3A3A3A3A3E064017036E51001
:105783004511603090037512563E88828983125901
:10579300938A0E8B0FA80EA90FE849601788828998
:1057A30083A3E0600F851082851183A3126ADF5003
:1057B30003025689E50AF50E780E120C8912599CDC
:1057C300120CCDE9702B7C007D0085148285158336
:1057D30074FFF0A3F0850C82850D83A3A3A3A3A379
:1057E300A3A3A3E06003125633A90B125FFF122099
:1057F3008F851482851583E0F47003A3E0F4603988
:105803009003B4E064027003025689125D38E0FA33
:10581300A3E0124DF7122A60EA65087003EB6509ED
:105823006003025689EEFAEF124DF7122A608514CF
:1058330082851583EAF0A3EBF07808120C857D01CD
:105843001259A9120CCDA90AEEFAEFFB1212678ABC
:10585300088B09A808A909900368E0687003A3E00E
:1058630069600302596CEEFAEFFB12104B8A088B46
:1058730009A808A909E849606E88828983A3A3A3BC
:10588300A3E06401600D88828983A3A3A3A3E064DA
:10589300027054851882851983AC82AD83EEFAEFCA
:1058A300FB120FE58055900361E0600FE50AF50EEA
:1058B300780E120C8912599C120CCDE50AF50E785C
:1058C3000E120C8979027CFE7DFFEEFAEFFB125B70
:1058D30068120CCDE960030257F4851482851583A1
:1058E30074FFF0A302583B1213DBEAFCEBFD8518AF
:1058F30082851983AA82AB83122701850C82850DC9
:1059030083A3A3A3A3A3A3A3A3E06401700F1256CD
:10591300337408120F78AA82AB83122701125B42F9
:105923001267564430F5087808120C897401120F77
:10593300788582088583097808120C85740B120F09
:10594300788582088583097808120C85E513F508A4
:105953007808120C897900EEFCEFFD125FFF12113B
:10596300AD7406120CCD025689125B421268C01246
:1059730059B6E50BF01213F37410120CCD7F0E021F
:105983000A4312125B8A0E8B0FA80EA90FE8492255
:10599300A3A31264AD12155B227901AC08AD091201
:1059A30064A2125B6822AC0BA9131264A21212192F
:1059B30074022212675EA3A3A3A32274F01207E565
:1059C30074F0120D318A0C8B0DECFAEDFB750F0898
:1059D3009003F5125B8C6014126AD88A828B83E57C
:1059E3008245836007A3E07003025B3D125B423490
:1059F30000125B78F50B88828983125B4BE0FBEC2A
:105A03002400FEE43BFF88828983A3A3125B4BA39C
:105A1300A3E0FBECF508E43BF50988828983A3A3A3
:105A2300A3A3A3A3A3E0F50EE50AA2E45003750F15
:105A330010A2E550067408250FF50F748F550A70F0
:105A43000FE50C2417F582E50D126F90650F6008C2
:105A530079011226E9025B3D530A707800E50AA238
:105A6300E45022125B42126F902408FCA3E034003E
:105A7300FD7408120F78AA82AB831227017808E518
:105A83000AC2E4F50AE50AA2E55028125B42126F46
:105A93009028F8A3E03400F9E82408FCE93400FD79
:105AA300851882851983AA82AB83122701E50AC26E
:105AB300E5F50AAC0EA90BEEFAEFFB12121FE9F89B
:105AC3007403686075900368E06E7003A3E06F6011
:105AD3005EE87054E50AF50F780F120C89125B59D2
:105AE300120CCDE97054780A120C897401120F78E4
:105AF30085820C85830D780C120C85740B120F783C
:105B030085820C85830D780C120C85E50BF50A78DC
:105B13000A120C89A90EAC08AD09EEFAEFFB1211BB
:105B2300AD7406120CCD8012740468700D80B778C2
